:10000000504400208100000091190000BD1A00003A
:10001000BD1A0000BD1A0000BD1A0000BD1A000084
:10002000000000000000000000000000BD1A0000F9
:10003000BD1A000000000000BD1A0000BD1A00003B
:04004000C5170000E0
:1000440001000000740000000200000054000000E1
:100054000040002000400020000010400000020387
:100064000040002050400020400400000000010334
:10007400644400208C4F00200000000310B500F001
:100084002FF801F02FF8FEE7F8B5060000240C273E
:10009400124D2B68A34204D80024AB68A3420ED8A7
:1000A400F8BD3A0062436B689B185A7AB24204D195
:1000B40005CB0021121A01F0BDFD0134E8E7EB681D
:1000C40022019B185A7BB24205D118685A68996874
:1000D400121A01F0BDFD0134DFE7C0464400000000
:1000E40070B500241B4A1C4B00209A6000F0E6FF08
:1000F40001F0F2FB012000F0E1FF012541F20001D3
:10010400164B174A9C801A80164A20009A60164A99
:10011400DA60164A51849D80FFF7B6FF01F0C8FBF0
:10012400022000F0CBFF2800FFF7AEFF104D114B6B
:10013400ED1AAD10AC4205DB01F0B2FC002001F079
:10014400BDFC70BD0B4AA3009B181B689847013483
:10015400F0E7C0460000000000ED00E0000D0040A4
:1001640000A5FFFF5040002050440020FE600040E6
:08017400602900005C29000075
:04040000FFFFFFFFFC
:04040400DFDFFFFF38
:100440000440002000000000544E0020BC4E00205C
:10045000244F002000000000000000000000000009
:10046000000000000000000000000000000000008C
:10047000000000000000000000000000000000007C
:10048000000000000000000000000000000000006C
:1004900044F2500044F25003C2F20000C2F20003E2
:1004A00010B5834205D040F20003C0F2000303B14F
:1004B000984710BD44F2500044F25003C2F20000CD
:1004C000C2F200031B1A9A10D90F8918491010B5EF
:1004D00029B140F20003C0F2000303B1984710BDF8
:1004E00010B544F26444C2F20004237873B9FFF7F4
:1004F000CFFF40F20003C0F200032BB140F20840EE
:10050000C0F2000000E000BF0123237010BDC04610
:1005100040F20003C0F2000310B54BB144F2684151
:1005200040F20840C2F20001C0F2000000E000BF4B
:10053000FFF7C0FF10BDC0460369C268934201D8EF
:1005400081685B18013B981A7047F7B50500C468CD
:10055000836840681F1B00190E000193A41897427E
:1005600007D83A0001F076FB019B6868E41A220084
:10057000F11901F06FFBBFF35F8FEC60F7BD002353
:10058000F7B506001700C568019100933369B46898
:100590009D4221D2013B5B1B641BBC4200D93C0045
:1005A0009C4200D91C00706822004019019901F09A
:1005B00051FB009B2D191B190093019B3F1B1B191D
:1005C0000193B368AB4200D10025BFF35F8FF560A4
:1005D000002FDBD10098FEBD1B19DBE710B5154CD1
:1005E000A8220021200001F027FB0323124A2361E7
:1005F0006361124BA261E36140F6000323620023B2
:10060000A3626362E36222660D4A62661022A266FA
:100610002367E3666367BFF35F8F0F3318000949F1
:10062000C21A5918097849B2A154013BF7D2BFF355
:100630005F8F10BD904C0020661C0000904400208D
:100640008044002068240000F0B5254B85B01B785D
:10065000070014000191532B01D0FFF7BFFF1823AF
:100660007B431F4A00269B18DA6E1D6F029295424B
:100670001AD99B6E26005B1B9C4200D91E001823D2
:100680007B43174A01989B18596E3200491903930E
:1006900001F0E0FA019BAD199B190193039BA41B88
:1006A0009B6EAB4200D10025029B5B1B9C4200D994
:1006B0001C005CB118237B43094A01989B18596EB2
:1006C0002200491901F0C6FA36192D1926B118234E
:1006D0007B43034A9B181D67300005B0F0BDC04640
:1006E000904C002010B50B00EFF31084012181F332
:1006F00010881900FFF7A8FF84F3108810BD0000D0
:10070000182370B5451C5D4343431400114A0E0085
:100710009B18DB6AAD18012B0AD0022B14D023B929
:100720002800FFF709FF844208D90024200070BD8B
:100730002800FFF701FF844200D9040022003100A5
:100740002800FFF702FFF1E722002800FFF717FF5C
:100750000400EBE7904C0020F8B50B4B04001B782D
:100760000E001700532B01D0FFF738FFEFF3108571
:10077000012181F310883A0031002000FFF7C0FF0B
:1007800085F31088F8BDC046904C002010B5064C8B
:100790002378532B01D0FFF721FFE36E206FC01A9F
:1007A000431E984110BDC046904C002010B5826891
:1007B00004004068531C834205D820688154A3601C
:1007C000E3680133E360A26863689A4209D1216853
:1007D0002069FFF7C1FFA368984203D001235B4261
:1007E000E36010BD0023A360FBE70000F0B5150037
:1007F0000400012285B000930A9F0B9B0191A9423E
:1008000017D2009902928A4200D202910122190065
:1008100011400391134201D17FB90027E3680126FB
:10082000002B3BDB009B012B1CD9013B00936E434B
:10083000F8E7B1FBF5F10132E1E720269B0703D58C
:10084000009B103603B1103E029BBB42E6D2310042
:100850002000FFF7ABFFE368013F002BDEDB002F3A
:10086000F2D1DAE7019BB3FBF6F39D42DFD9019B9E
:100870003200B3FBF6F35A43019920008A1A019221
:100880000E4AD156FFF792FFE368002B03DBB6FB5D
:10089000F5F3AE4204D2039B03B15FB905B0F0BDDE
:1008A0001E00E4E720212000FFF780FFE368013FFE
:1008B000002BF3DB029B9F42F4D8EFE77924000082
:1008C000F0B59DB00CAB07934023089300230D00B7
:1008D0001700059009930B900A9300216956013582
:1008E00031B90A9D002D00DD23E10A981DB0F0BD4D
:1008F000252900D0C3E0002604201D390023EB5633
:100900006A1C2D2B17D012DC232B1AD02B2B16D0C0
:1009100000240A210023EB566A1C18003038C0B2AC
:10092000092810D84C43303C15001C19F2E7302B35
:10093000EED1022300E001231E431500DEE706434B
:10094000FBE70E43F9E70021029103912E2B0BD117
:100950000123EB562A2B12D13B6802351A1D3A604F
:100960001B680293012303930021042369560A00A4
:1009700001359A43682A17D100216956F7E7150017
:1009800040F20A0C01210022AA56681C1300303BD9
:10099000DBB2092BE8D86546029B03916B43303BE1
:1009A000D31805000293EEE7782909DC6F290CDCE7
:1009B00063295FD018DC252961D0582900D18BE04C
:1009C0000A9B002B00DB88E78BE7703908000829B9
:1009D000F6D801F081F8A600F5FFF5FF8900F5FFD4
:1009E0007800F5FFF5FF81006429E9D13B680A2111
:1009F0001A1D3A601B681A000393DB17D2185A407D
:100A00000123092A3FDC029A04929A4200D20493FD
:100A10002CB1039B002B01DB730700D5013CB3070E
:100A200001D5029B1BB1F30701D484BB00240A9BB0
:100A3000002BC5DB039B002B35DA2D215B42039392
:100A400007A8FFF7B3FE0A9B002BB9DB0323334053
:100A5000022B03D1029B0BB94CBB00240A9B002B39
:100A6000AEDB0A22029B03990196009407A8FFF7C8
:100A7000BDFEA5E700213B681A1D3A60595607A83C
:100A8000FFF794FE9CE792FBF1F20133B9E7049B78
:100A90009C42CCD9202107A8FFF788FE0A9B013C85
:100AA000002BC2DAC3E77307D0D52B21C8E7049B1C
:100AB0009C42D3D9302107A8FFF778FE0A9B013C5E
:100AC000002BC9DACAE70A2239680B1D3B60029B7A
:100AD000019600940968C9E739680B1D3B60029BC9
:100AE000019600941022F5E73B681A1D3A601E68D3
:100AF00016B90023144E03933400002161560029D7
:100B000000D15DE7039B23B1029BF3189C4200D107
:100B100056E707A8FFF74AFE0A9B0134002BECDAE0
:100B20004EE739680B1D3B600023019308330093A7
:100B3000D8E7099C24B1220005980CA9FFF70CFE08
:100B400064190A94D1E6C0466F1C00000EB403B5C8
:100B500003AB02CB01AA0193FFF7B2FE02B008BCBF
:100B600003B0184710B5054800F00AFC044800F02F
:100B700007FC044800F004FC10BDC046A84D00204E
:100B8000E84D0020C84D002070B50E001500010092
:100B90000022104800F060FB040038B10E4B00202A
:100BA0000E4A0F49FFF7D2FF200070BD020031004E
:100BB0000C4800F051FB040008B10B4BEFE70200BA
:100BC00029000A4800F048FB04000028ECD0084B3C
:100BD000E5E7C046A84D0020761C0000D6240000A2
:100BE0009C1C0000E84D0020B81C0000C84D0020EF
:100BF000DE1C0000F0B5013885B0032826D83E4C35
:100C000000F060FF02181C200C233C4923700020D8
:100C1000FFF79CFF3A4A237811003A48137000F01E
:100C2000EFFB0400E0B1384B384A39490020FFF7A8
:100C30008DFF12E00D2337492370E8E70E23364974
:100C40002370E4E70F2335492370E0E70020344B9D
:100C50002E4A2F49FFF77AFF0324200005B0F0BD8C
:100C6000304F3149FFF772FF3900304800F0C8FBC0
:100C7000040008B12E4BD7E72E4E2F49FFF766FF31
:100C800031002E4800F0BCFB040008B12C4BCBE730
:100C90002C4D2D49FFF75AFFEB68FF68F6683900C5
:100CA000320018000393FFF76FFF040040B1274B99
:100CB000164A17490020FFF749FFFFF753FFCCE71B
:100CC0003B00039A22490096FFF740FF0C4B20009F
:100CD0001A7820490B3AFFF739FF6A6820001E494D
:100CE000FFF734FF1D4B20001B681D49DB6C9A6821
:100CF000FFF72CFFB1E7C0469C4D0020041D00000B
:100D00007C4D0020A84D00201C1E0000F124000096
:100D10009C1C00003D1D0000771D0000B91D000057
:100D2000F31D0000102600004D1E0000E84D0020BD
:100D3000681E000098250000991E0000C84D002084
:100D4000B31E000000250000E41E0000101F00007C
:100D5000331F0000641F0000991F0000384D002061
:100D6000B31F000010B5084800F02FFA040038B196
:100D70000020064B064A0749FFF7E8FE200010BD99
:100D80000549FFF7E3FEF9E7A84D0020D01F00005A
:100D9000C72400009C1C0000F91F000010B5084883
:100DA00000F00EFA28B10020064B074A0749FFF76A
:100DB000CDFEFFF7D7FE00200549FFF7C7FE10BDA7
:100DC000A84D00202D200000B92400009C1C00002C
:100DD00055200000F0B504000F00150087B064280E
:100DE00003D8642901D8642A0AD9264B0020264A50
:100DF0002649FFF7ABFE03230593059807B0F0BD26
:100E0000234B00205A68642C06D0100024B16423C0
:100E10006043B0FBF3F0101A1E4B0021D860642F22
:100E200007D011002FB1390064235143B1FBF3F116
:100E3000511A194BD960642D13D02DB12B006426A3
:100E40005343B3FBF6F3D21A144EF260FFF79CFE45
:100E5000059040B1124B0C4A0C490020FFF776FE7A
:100E6000CBE70022F0E7F368029503930A4B2200D8
:100E7000DB6800970193074B0A49DB680598FFF789
:100E800065FEBAE789200000A02400009C1C000039
:100E9000002500007C4D00205C4D00203C4D0020D2
:100EA000B7200000DA20000010B510490020FFF73D
:100EB0004DFE0F490020FFF749FE0E490020FFF7C5
:100EC00045FE0D490020FFF741FE0C490020FFF7C9
:100ED0003DFE0B490020FFF739FE0A490020FFF7CD
:100EE00035FE00200849FFF731FE10BD2221000029
:100EF000492100005F21000087210000AC21000093
:100F0000D1210000F32100001422000010B508498F
:100F10000020FFF71BFE07490020FFF717FE0649D8
:100F20000020FFF713FE00200449FFF70FFE10BD5D
:100F3000262200005A2200008E220000C222000059
:100F400030B587B0FFF7B0FFFFF720FC0028FBD0DB
:100F50001022002102A800F06FFE102202A900203A
:100F6000FFF7C0FB02A800F0C1FD013805285DD8DD
:100F700000F0A8FD035C17343A3DFFF7C7FF2E4988
:100F80000020FFF7E3FD00F07BF8C0B2FFF732FE70
:100F90000028D7D0294B2A4A2A490020FFF7D6FD3E
:100FA000D0E729490020FFF7D1FD00F069F8274973
:100FB00004000020FFF7CAFD00F062F82449050094
:100FC0000020FFF7C3FD00F05BF8E9B2C2B2E0B267
:100FD000FFF700FF0028B5D01E4BDCE7FFF7C2FE8D
:100FE0000028AFD01C4BD6E7FFF7D8FEAAE71B4C72
:100FF0001B490020FFF7AAFD22781A490B3A00206E
:10100000FFF7A4FD184B62681B681849DB6C0020D1
:101010009B68FFF79BFD164B1649DB680020009389
:10102000154BE268DB68FFF791FD8BE71349002061
:10103000FFF78CFD86E7C046F6220000162300006D
:10104000892400009C1C000024230000462300008B
:1010500066230000862300009E2300007C4D0020B4
:10106000BF230000E4230000384D0020F2230000DD
:101070003C4D0020182400005C4D00203A24000064
:101080001FB510220021684600F0D6FDFFF77EFB59
:101090000028FBD0102269460020FFF723FB18B977
:1010A0000449FFF753FDF1E7684600F01FFD05B066
:1010B00000BDC0465624000010B5FFF741FF10BD2B
:1010C00010B518B90122054B1A7010BD0228FCD1C9
:1010D0000349044800F06AF8F7E7C04690C07E4034
:1010E00088260000A04D002010B5FFF7E5FF002086
:1010F00010BD0000EFF31080012383F31088064B2E
:10110000196819B9054AD1704031D1701A68013295
:101110001A6080F310887047484E0020000D04408C
:10112000EFF31081012383F31088074B1A6812B183
:101130001A68013A1A601A681AB9044BDA708032D8
:10114000DA7081F310887047484E0020000D04408B
:10115000030A70B5C0B2084D1B01CA0307D51A189F
:101160009200AE58054C26400C40AE50AC501B18B7
:101170009B00E95070BDC04600080440FFFFFEFF21
:1011800070B505000024FFF7B5FF2B88A34202D8F5
:10119000FFF7C6FF70BD6B68E2009B18988819685E
:1011A0000134FFF7D5FFA4B2EFE7000010B5034B01
:1011B00003600800FFF7E4FF002010BD54524F50B9
:1011C0008368C26800209A6070478368C268002004
:1011D0005A607047802382681B06136182685361DE
:1011E00082689361002382685362826893627047C9
:1011F000F0B586684068B46E0078032800D80134E2
:101200004D424D410DB9A1421CD3DB070CD4736B89
:10121000DB06DB0E03280AD918090123834369B9C9
:10122000B3B902235360F0BD736BDB02F1E70C200E
:101230000340043B58424341DBB2F0E7002BF0D1BE
:101240000323EFE7032801D91160ECE70139FBE73D
:10125000002CF5D1E5E700000123F0B55B4285B035
:101260000293032700230600039315001300174081
:1012700002AA0191FFF7BCFFB36803991C6B0093AE
:10128000B9B940F2020C0423280700D46346624631
:10129000029815422AD040F2120C9C4462469200F9
:1012A0009446009A133362445060B2689B00D3188E
:1012B00058606B0605D58023B268DB03106C0343CE
:1012C0001364012F20D0124B23400C041C43022D29
:1012D00013D129B101233000019902AAFFF788FF39
:1012E0000C4B2340039C24061C4308E0DB19009AA6
:1012F00012339B00D2185060DBE7002FF0D10020A2
:10130000B3681C6305B0F0BD022DE2D0E8E7C0462B
:10131000FFFFFCFFFFFFFFFCF0B50500806987B011
:101320008C46019203AC88B123000200C2CAC2C33A
:1013300063460371019B8360EB6903606B699847A7
:10134000AB690BB123CC23C307B0F0BD2000EFE79E
:1013500010B5002801DB00F09DFB10BD10B5002882
:1013600001DB00F043FB10BD10B5041E05DB00F0EF
:1013700081FB0022014BA400E25010BD4C4E002026
:1013800070B50400436812201856DD69FFF7ECFFC2
:1013900028202856FFF7E8FF29202856FFF7E4FF0A
:1013A0002A202856FFF7E0FF2B202856FFF7DCFF06
:1013B0002C202856FFF7D8FF2D202856FFF7D4FF02
:1013C000EB6C1BB101201856FFF7CEFF0020A3687D
:1013D000E26820609A60A368586370BD0A018B01BF
:1013E00013430922022805D0063A022802D8033204
:1013F00001B1033240F2001013431843704700005C
:101400000122F0B50E000B7C110099404660C160CE
:101410000274337CA74904005B1800211B0283601F
:10142000736987B04361B3698161C361F569EFF3A3
:10143000108082F3108840279F4BDA68BA43DA6045
:10144000DB6880F310884AF20052A3681A60A36830
:10145000D962A368D963A3689964337A32787768CC
:10146000DB05032A04D1802252021343013F08E026
:10147000032AFBD911040B430B2A02D948F20002BC
:101480001343A2682000D362FFF7A4FEA368AA69F1
:10149000DA61A368EA691A62A3689F66A3685F6657
:1014A00033780B2B01D9A368DF662B6D327801935B
:1014B00001235B42049300230593002A00D0C2E07D
:1014C00073685B08013B0493A268049B5365A268A0
:1014D00093653278032A0AD9A268D365A268136695
:1014E00033780B2B03D943F20002A368DA64327815
:1014F000A36811000C39012900D9ADE0E033196867
:101500006E4A114040F200120A431A60A3686C4907
:10151000E0331A680A401A60A3686A49E0331A681F
:101520000A401A60059B1A041B061A432B6D02928F
:1015300093B92B7833B169783078FFF74FFF019B6F
:1015400003430193AB783BB1E9783078FFF746FF6E
:10155000019B000403430193636840F2010CDA69C4
:101560000023110048310391303203996046097815
:10157000D940014208D01F009800A16810581237C6
:10158000BF000138C91948600133062BEDD1327C08
:10159000053B93401B0702D00022A3685A64EF6CFE
:1015A000A168002F00D193E0FB78BA781B071206E0
:1015B000134301229C461300307C8340180000072F
:1015C00028D0B86810B9FA68501E824188310A6084
:1015D000A268B9688C3211600122317C8A401207FE
:1015E00018D06346A268F968903211603A7E787E1E
:1015F000920100020243B87EA168000302434A64DC
:101600003A793969120413439C46A2681167A268AB
:101610007969D1676346A26893632B6D002B5ED115
:10162000FB7E3A7F5B0252061343019A1A430192F2
:101630006B1CAA1CDB7FD27F5B0352071343019A0A
:101640001A4301924BE0012A00D13DE72000F168E6
:1016500004AAFFF7CDFD37E70E3A012A00D961E76A
:10166000194AE033116801318C4611601749087836
:1016700060B91A68124802401A60A3681148E03342
:101680001A6802401A6001230B704BE718680700C4
:101690008020400438431860A3680A4FE03318687C
:1016A000384018606346092B00D83BE700230B70D5
:1016B000136037E790084000FC6F0440FFFCFFFF19
:1016C000FFFFFFFEFFFFFFFD0C4E0020104E00202D
:1016D0008F63A36888331F602B6D002BA8D02B006D
:1016E00048331B785A1E9341344A5B421340AA2266
:1016F000D2039B18A26813643378012B04D1002312
:10170000A268D364A2681365A368019A12205A6381
:101710002B00A26854331B78D16A1B010B432900AC
:101720005531097849010B43D36203230299A2681A
:101730000B4313630123A2680B431363A368E2689E
:10174000DA60717C30562200FFF702FE2520EB1C88
:10175000D97F18562200FFF7FBFD25202B1DD97FCE
:1017600018562200FFF7F4FD25206B1DD97F18566F
:101770002200FFF7EDFD2520AB1DD97F1856220072
:10178000FFF7E6FD2520EB1D2200D97F18562E001D
:10179000FFF7DEFD2D2008362200F17F2856FFF7E7
:1017A000D7FD2FB10120220039783856FFF7D0FD40
:1017B0000020034B236007B0F0BDC0460000FBFFD4
:1017C00054504700F8B5EFF30386103E76B2300070
:1017D00000F0FEF8254BB200D458254A6368DD6955
:1017E00013784BB946F200032249CB652249CB65F9
:1017F0002249CB650123137063681F78012F2CD118
:10180000A368E26830009A6000232E00A268483680
:101810009364A268D364A268136500F0E7F8337894
:101820003B4203D028202856FFF798FD33789B07CA
:1018300003D529202856FFF791FD2A202856FFF7C7
:101840008DFD2B202856FFF789FD2C202856FFF709
:1018500085FD2D202856FFF781FD636923B1002205
:1018600020001100FFF758FDF8BDC0464C4E002087
:10187000084E002000900840009108400092084067
:10188000094B1A7882420DD0084A12781AB90849D1
:101890000A78D207FCD51A78D206FCD418701A78C8
:1018A000D206FCD47047C046A0E0014036E00140BB
:1018B0003CE00140064B0749DA1DD27F1B6A9200CB
:1018C00052585B015B0FDA401300034A1360704704
:1018D00000E0014050440020504E002040F2FE3312
:1018E00070B51C4A1C4C0121E25243F6C8731B4AD6
:1018F0000025D1541A4B1B4A1D611A601A4A5A60BE
:1019000048F200029A60194ADA60FFF7D3FF40F20A
:1019100013430922E554164B28001A70154B063A5A
:101920001A70FFF7ADFF144B144A1D701378DB07D4
:10193000FCD50123124A1370124A13700022FF33A0
:101940002362114BDA77FFF7B5FF40F2FE330F4AFF
:10195000E25270BD03A5FFFF00E0014000C07E40E1
:10196000504400200090D00300127A00002D310175
:10197000A2E00140A5E0014036E001403CE001402A
:1019800031E00140C4FF7E4007E0014000A5FFFFB9
:10199000F8B540F24013002401270A4E0A4A758C1C
:1019A000D35A1D402B00E3403B4206D0074AA30018
:1019B0009B181B680BB1E0B2984701340D2CF1D194
:1019C0007586F8BDFE60004000600040144E0020A7
:1019D000044BC0308000C25803490A40C250C3586B
:1019E0007047C04600600040FFFFFEFF10B50400D6
:1019F000FFF7EEFFBFF35F8F1F22630914401E3A0B
:101A0000A240024960339B005A5010BD00E100E043
:101A1000F7B5FF27019283080A4A03269B009B180B
:101A20003A0040F200350640F6008901B2403940E4
:101A3000B1405C59800094430C435C51019A024BC5
:101A40001A50F7BD00E100E04C4E00201F22430970
:101A500010401E3A824002499B005A507047C046CF
:101A600000E100E010B50400FFF7C0FF2000FFF721
:101A7000EDFF10BD1F22430910401E3A8240044969
:101A800020339B005A50BFF34F8FBFF36F8F7047C7
:101A900000E100E010B50400FFF7BAFF2000FFF7F7
:101AA000E1FF10BD034B1B781BB140F2003202492D
:101AB0008B507047D42700000060004000BE704784
:101AC0007047000002B4714649084900095C4900AA
:101AD0008E4402BC7047C04603B4714649084000BA
:101AE0004900095E49008E4403BC704710B50A22C4
:101AF000002100F095F810BDF0B587B00590029177
:101B00000392242B22D8012B20D043480825844659
:101B10000800664604780131375D3E002E402F42B2
:101B2000F6D12D2C19D10C78811C012001901025A3
:101B30001800A843E8B9302C15D120260878B04306
:101B4000582810D14C780231102312E000F07CF8B4
:101B500016230360002007B0F0BD01962B2CE6D1C0
:101B60000C78811CE3E7002BEED10A33302C00D136
:101B7000023B0198294D4619B6FBF3F718000025E2
:101B80007843301A04902800302252429446A444EC
:101B90006246092A12D86446A34224DD6A1C0AD090
:101BA00001256D42874206D302D1049AA24217DB77
:101BB0000125584320180C780131E5E741225242B3
:101BC0009446A4446246192A01D8373CE4E76122CE
:101BD00052429446A4446246192A04D8573CDBE793
:101BE00001256D42E7E76B1C09D12223059A3000DD
:101BF0001360039B002BAED04B1E029307E0019BAA
:101C000003B14042039B002BA5D0002DF4D1029BD1
:101C1000039A13609FE7C046D6270000FFFFFF7FAF
:101C200010B513000A00010002480068FFF764FFC6
:101C300010BDC0460040002003008218934200D12E
:101C4000704719700133F9E7014B18687047C046B7
:101C500000400020002310B59A4200D110BDCC5C9A
:101C6000C4540133F8E75465726D696E616C0028E5
:101C70004E554C4C29000D0A2A2A20552D706861BA
:101C8000736520447574794379636C65536574207A
:101C90004641494C4544202A2A0D0A005B455252D0
:101CA0005D20496E2046756E6374696F6E3A20251B
:101CB0007328292C202573000D0A2A2A20562D70FE
:101CC0006861736520447574794379636C65536505
:101CD00074204641494C4544202A2A0D0A000D0A29
:101CE0002A2A20572D7068617365204475747943E2
:101CF00079636C65536574204641494C4544202AFC
:101D00002A0D0A000D0A2D2D2D20436F6D706C6574
:101D10006D656E746172792050574D204D6F64650A
:101D2000203120285472616E7366657220617420C0
:101D3000437265737429202D2D2D0D0A000D0A2D77
:101D40002D2D20436F6D706C656D656E74617279B9
:101D50002050574D204D6F64652032202854726109
:101D60006E736665722061742054726F756768299E
:101D7000202D2D2D0D0A000D0A2D2D2D20436F6DC8
:101D8000706C656D656E746172792050574D204D91
:101D90006F6465203320285472616E73666572200B
:101DA000617420437265737420262054726F7567C6
:101DB0006829202D2D2D0D0A000D0A2D2D2D2043D3
:101DC0006F6D706C656D656E746172792050574DE2
:101DD000204D6F646520342028496D6D656469610C
:101DE0007465205472616E7366657229202D2D2DE5
:101DF0000D0A000D0A2A2A20496E76616C6964205A
:101E0000436F6D706C656D656E74617279205057AB
:101E10004D206D6F6465202A2A0D0A000D0A2A2ABA
:101E2000204D6173746572206368616E6E656C200D
:101E3000286368302920525F4750545F4F70656EA9
:101E4000204641494C4544202A2A0D0A000A4D618A
:101E500073746572206368616E6E656C2030206FEC
:101E600070656E65640D0A000D0A2A2A20536C61A4
:101E7000766531206368616E6E656C202863683119
:101E80002920525F4750545F4F70656E204641498C
:101E90004C4544202A2A0D0A000A536C61766520BD
:101EA0006368616E6E656C2031206F70656E65646D
:101EB0000D0A000D0A2A2A20536C617665322063D0
:101EC00068616E6E656C20286368322920525F4716
:101ED00050545F4F70656E204641494C4544202A5E
:101EE0002A0D0A000A20436F6D706C656D656E7473
:101EF0006172792050574D206368616E6E656C2069
:101F00006F70656E2053554343455353200D0A00AF
:101F10000D0A2A2A20436F6D70617265206D61740D
:101F2000636820736574204641494C4544202A2A41
:101F30000D0A004475747920757064617465643AA3
:101F40000A76616C75655F753D25640A76616C750E
:101F5000655F763D25640A76616C75655F773D2522
:101F6000640D0A00436F6D706C656D656E7461720F
:101F7000792050574D204D6F646520256420696E8F
:101F8000697469616C697A656420737563636573EC
:101F90007366756C6C790D0A002020506572696F4C
:101FA000643A2030782530345820636F756E74732E
:101FB0000D0A002020446561642054696D653A2053
:101FC00030782530345820636F756E74730D0A00B5
:101FD0000D0A2A2A20436F6D706C656D656E746101
:101FE00072792050574D20535441525420666169F4
:101FF0006C6564202A2A0D0A00436F6D706C656D54
:10200000656E746172792050574D207374617274DB
:1020100065642028332D7068617365206F75747056
:10202000757420616374697665290D0A000D0A2AAA
:102030002A20436F6D706C656D656E7461727920D6
:1020400050574D2053544F50206661696C65642091
:102050002A2A0D0A00436F6D706C656D656E7461A0
:1020600072792050574D2073746F707065642061D1
:102070006E6420616C6C206368616E6E656C7320A9
:10208000636C6F7365640D0A000D0A2A2A2044757B
:102090007479206379636C65206F7574206F662096
:1020A00072616E676520286D61782031303025259A
:1020B00029202A2A0D0A000D0A2A2A20447574793B
:1020C000206379636C652075706461746520464196
:1020D000494C4544202A2A0D0A004475747920751C
:1020E0007064617465643A0A553D25642525097656
:1020F000616C75655F753D2564200A563D25642534
:10210000250976616C75655F763D2564200A573D2B
:10211000256425250976616C75655F773D25640D1D
:102120000A000D0A3D3D3D20436F6D706C656D6585
:102130006E746172792050574D205375622D4D6534
:102140006E75203D3D3D0D0A00456E74657220316F
:1021500020746F2073657420696E69740D0A0045E0
:102160006E746572203320746F2073657420332D74
:10217000506861736520447574792028552C205669
:102180002C2057290D0A00456E7465722034207486
:102190006F20537461727420436F6D706C656D6550
:1021A0006E746172792050574D0D0A00456E74654A
:1021B00072203520746F2053746F702020436F6D30
:1021C000706C656D656E746172792050574D0D0AA3
:1021D00000456E746572203620746F2053686F77E7
:1021E000202043757272656E742053746174757328
:1021F0000D0A00456E746572203020746F205265A0
:102200007475726E20746F204D61696E204D656E1D
:10221000750D0A00436F6D702050574D20496E7048
:1022200075743A2020000D0A3D3D3D20456E7465D1
:1022300072203120746F2053657420436F6D706C71
:10224000656D656E746172792050574D204D4F4415
:10225000452031203D3D3D0D0A000D0A3D3D3D200C
:10226000456E746572203220746F2053657420436C
:102270006F6D706C656D656E746172792050574D2D
:10228000204D4F44452032203D3D3D0D0A000D0AB2
:102290003D3D3D20456E746572203320746F2053A0
:1022A000657420436F6D706C656D656E74617279D5
:1022B0002050574D204D4F44452033203D3D3D0D8E
:1022C0000A000D0A3D3D3D20456E746572203420A4
:1022D000746F2053657420436F6D706C656D656E0F
:1022E000746172792050574D204D4F444520342061
:1022F0003D3D3D0D0A000D0A43686F6F7365206D0B
:102300006F646520666F722050574D2831202D2054
:1023100033293A0D0A00496E6974206661696C655B
:10232000640D0A000D0A456E74657220552D7068A3
:1023300061736520647574792028302D3130302523
:1023400025293A0D0A00456E74657220562D706875
:1023500061736520647574792028302D3130302503
:1023600025293A0D0A00456E74657220572D706854
:1023700061736520647574792028302D31303025E3
:1023800025293A0D0A0044757479206379636C65D8
:1023900020736574206661696C65640D0A00436F83
:1023A0006D706C656D656E746172792050574D204B
:1023B0007374617274206661696C65640D0A000D46
:1023C0000A2D2D2D20436F6D706C656D656E7461E7
:1023D00072792050574D20537461747573202D2DE0
:1023E0002D0D0A0020204D6F64653A202564200DD4
:1023F0000A002020506572696F643A2030782530D9
:1024000034582020446561642054696D653A203059
:1024100078253034580D0A00202044757479204303
:102420006F756E74733A20553D25642020563D2506
:10243000642020573D25640D0A000D0A496E76611F
:102440006C6964207375622D6D656E75206F707494
:10245000696F6E0D0A000D0A496E76616C69642021
:10246000496E7075740D0A0000000000000054549D
:1024700052205245474745530030313233343536C8
:10248000373839414243444546636F6D705F70771A
:102490006D5F70726F636573735F696E70757400E2
:1024A000636F6D705F70776D5F7365745F64757473
:1024B000795F33706861736500636F6D705F70770B
:1024C0006D5F73746F7000636F6D705F70776D5FB9
:1024D000737461727400636F6D705F70776D5F739A
:1024E00065745F636F6D706172655F6D6174636861
:1024F00000636F6D705F70776D5F696E6974000067
:102500000C00000000A000000000000000400000DF
:1025100000FF000000000000000000002025000077
:1025200001000000000000000000000000000000AA
:10253000000000000000000000000000000000009B
:102540000000FFFFFFFFFFFFDFDFDFDFDFDF000057
:10255000000000000000000000000000000000007B
:1025600000000000000000000000000078250000CE
:102570005611590100000000FFDF000100000000BB
:10258000001000000000000000000000000000003B
:1025900000000000000000000C00000000A000008F
:1025A00000000000004000000202000000000000E7
:1025B00000000000B825000000000000000000003E
:1025C000000000000000000000000000000000000B
:1025D00000000000000000000000FFFFFFFFFFFF01
:1025E000DFDFDFDFDFDF00000000000000000000B1
:1025F00000000000000000000000000000000000DB
:102600000000000000000000561159010000000009
:102610000C00000000A000000000000000400000CE
:1026200001FF000000000000000000003026000054
:102630000100000000000000000000000000000099
:10264000000000000000000000000000000000008A
:102650000000FFFFFFFFFFFFDFDFDFDFDFDF000046
:10266000000000000000000000000000000000006A
:10267000000000000000000000000000000000005A
:1026800056115901000000002800000094260000A7
:10269000000000000080000000000000008000003A
:1026A0000100000000800000020000001000000097
:1026B0000A000000100000000B00000010000000E5
:1026C0000C000000008000000D00000000800000F1
:1026D0000E000000100000000F00000000000103C9
:1026E00000010000000001030101000000000103DF
:1026F00002010000000001030301000010000000BF
:1027000004010000000001000801000000000105B4
:1027100009010000000001050A010000100000008E
:102720000B010000100000000C0100000040000040
:102730000002000000000000010200001000000084
:102740000602000010000000070200001000000058
:1027500008020000000001030C0200000000010359
:102760000D02000000000100000300000000010451
:102770000103000000000104020300000000010743
:102780000004000000000107010400001000000028
:102790000204000010000000030400000000011B00
:1027A00007040000104000000804000010000000B2
:1027B00009040000100000000005000010000000E7
:1027C0000D090000040000000E09000010000000C8
:1027D0000F0900000F00202020202020202020288A
:1027E00028282828202020202020202020202020C9
:1027F0002020202020208810101010101010101001
:102800001010101010100404040404040404040440
:1028100010101010101010414141414141010101BF
:102820000101010101010101010101010101010198
:1028300001101010101010424242424242020202A5
:102840000202020202020202020202020202020268
:102850000210101010200000000000000000000016
:102860000000000000000000000000000000000068
:102870000000000000000000000000000000000058
:102880000000000000000000000000000000000048
:102890000000000000000000000000000000000038
:1028A0000000000000000000000000000000000028
:1028B0000000000000000000000000000000000018
:1028C0000000000000000000000000000000000008
:1028D00000000000000000004275696C74207769F8
:1028E00074682052656E6573617320416476616E11
:1028F00063656420466C657869626C6520536F6619
:102900007477617265205061636B616765207665DD
:102910007273696F6E20362E322E302D7263302B1B
:1029200032303235303932392E61663035306263BB
:102930003000362E322E302D7263302B323032354D
:10294000303932392E616630353062633000000034
:04295000000002067B
:04295400F8B5C046CC
:04295800F8B5C046C8
:04295C001105000061
:04296000E10400008E
:040000030000008178
:00000001FF
