:1000000070440020810000005D2F00007532000068
:100010007532000075320000753200007532000044
:100020000000000000000000000000007532000029
:1000300075320000000000007532000075320000CB
:04004000E72B0000AA
:10004400844400203C4F00200000000300400020B6
:100054000040002000001040000002030040002087
:100064006C40002040040000000001030100000077
:1000740044000000020000005000000080B500AF02
:1000840000F09AF801F024FFC046FDE790B585B072
:1000940000AF78600023FB603CE040F27003C0F2E4
:1000A40000035968FA6813005B009B189B00CB1887
:1000B4005B7A1A007B68934229D140F27003C0F244
:1000C40000035968FA6813005B009B189B00CB1867
:1000D400186840F27003C0F200035968FA6813000C
:1000E4005B009B189B00CB185B681C0040F27003FC
:1000F400C0F200035968FA6813005B009B189B0068
:10010400CB181B68E31A1A00002103F065F9FB6899
:100114000133FB6040F27003C0F200031B68FA680D
:100124009A42BAD30023BB6038E040F27003C0F2B5
:100134000003DA68BB681B01D3185B7B1A007B6879
:10014400934228D140F27003C0F20003DA68BB681E
:100154001B01D318186840F27003C0F20003DA6878
:10016400BB681B01D318996840F27003C0F2000306
:10017400DA68BB681B01D3185B681C0040F270038B
:10018400C0F20003DA68BB681B01D3181B68E31ACA
:100194001A0003F02FF9BB680133BB6040F270030F
:1001A400C0F200039B68BA689A42BED3C046C046F8
:1001B400BD4605B090BD000080B582B000AF4EF6DC
:1001C4000053CEF2000340F20002C0F200029A6033
:1001D400002001F059FE02F049FE012001F054FE16
:1001E40040F60053C4F2000300229A8040F6005304
:1001F400C4F20003284A1A8040F60053C4F20003F4
:1002040044F27002C2F200029A6040F60053C4F253
:100214000003224ADA6046F20003C4F2000340F20B
:10022400201241F20001995240F60053C4F2000337
:1002340001229A800020FFF729FF02F09FFD02208F
:1002440001F022FE0120FFF721FF44F20C72C0F2FC
:10025400000244F20873C0F20003D31A9B103B60FF
:1002640000237B600AE044F20873C0F200037A685A
:100274009200D35898477B6801337B607A683B6867
:100284009A42F0DB02F0C3FF002002F0F7FFC04601
:10029400BD4602B080BDC04600A5FFFF70440020EB
:04040000FFFFFFFFFC
:04040400DFDFFFFF38
:10044000000000000001000000200000000000008B
:10045000000000000000000000000000204000201C
:1004600000000000044E00206C4E0020D44E0020FE
:10047000000000000000000000000000000000007C
:10048000000000000000000000000000000000006C
:10049000000000000000000000000000000000005C
:0C04A00000000000000000000000000050
:1004AC0044F26C0044F26C03C2F20000C2F200038E
:1004BC0010B5834205D040F20003C0F2000303B133
:1004CC00984710BD44F26C0044F26C03C2F2000079
:1004DC00C2F200031B1A9A10D90F8918491010B5D3
:1004EC0029B140F20003C0F2000303B1984710BDDC
:1004FC0010B544F28444C2F20004237873B9FFF7B8
:10050C00CFFF40F20003C0F200032BB140F20840D1
:10051C00C0F2000000E000BF0123237010BDC046F4
:10052C0040F20003C0F2000310B54BB144F2884115
:10053C0040F20840C2F20001C0F2000000E000BF2F
:10054C00FFF7C0FF10BDC04680B582B000AF44F2CB
:10055C00A043C2F200033B603B68A82200211800B4
:10056C0002F036FF3B6803221A613B6803225A6192
:10057C003A6843F20C43C0F2000393613A6844F2C8
:10058C004853C2F20003D3613B6840F600021A6282
:10059C003B6800229A623B6800225A623B68002248
:1005AC00DA623A6843F20C43C0F2000313663A680D
:1005BC0044F64853C2F2000353663B6810229A6615
:1005CC003B6800221A673B680022DA663B6800220F
:1005DC005A67BFF35F8F00237B600FE07B680F22AD
:1005EC00D21A43F21843C0F2000399563A687B685A
:1005FC00D3180A1C1A707B6801337B607B680F2B45
:10060C00ECD9BFF35F8FC046BD4602B080BD80B54C
:10061C008AB000AFF860B9607A6000233B62FB6877
:10062C00DB68FB61FB681B69BB61BA69FB699A42B9
:10063C0005D9BA69FB69D31A013B7B6207E0FB68F9
:10064C009A68B969FB69CB1AD318013B7B62FB68CA
:10065C009A68FB69D21A7B6A934200D913007B62B9
:10066C007A6A7B68934200D913007B62FB685A68F4
:10067C00FB69D3187B617A6AB9687B69180002F050
:10068C00B5FE3A6A7B6AD3183B62BA687B6AD318A8
:10069C00BB607A687B6AD31A7B60FA697B6AD31871
:1006AC00FB61FB689B68FA699A4201D10023FB61EC
:1006BC00BFF35F8FFB68FA69DA607B68002BB1D1FE
:1006CC003B6A1800BD460AB080BD80B588B000AF4B
:1006DC00F860B9607A60FB68DB68FB61FB689A685C
:1006EC00FB69D31ABB61BA697B689A4212D9FB6861
:1006FC005A68FB69D3183B617A68B9683B69180082
:10070C0002F074FEBFF35F8FFA697B68D218FB6846
:10071C00DA6020E0BB697B61FB685A68FB69D3181F
:10072C003B617A69B9683B69180002F05FFE7A6830
:10073C00BB69D31A7B61FB685B683B61BA68BB69B8
:10074C00D1187A693B69180002F050FEBFF35F8F35
:10075C00FB687A69DA60C046BD4608B080BD80B5DA
:10076C0086B000AF78607B681B693B617B68DB6897
:10077C00FB603A69FB689A4208D87B689A68FB6808
:10078C00D21A3B69D318013B7B6104E03A69FB68E0
:10079C00D31A013B7B617B691800BD4606B080BD56
:1007AC0080B58CB000AFF860B9607A6044F2A043B9
:1007BC00C2F200033B623B6A1B785BB2532B01D045
:1007CC00FFF7C2FEFA6813005B009B18DB00603376
:1007DC001A0044F2A043C2F20003D318FB61BB68B9
:1007EC007B62FB691B69BB62FB69DB68BB61002335
:1007FC00FB62BA6ABB699A422CD9FB699A68BB6ADC
:10080C00D31A7B617A697B68934200D913007B61B0
:10081C00FB695A68BB6AD3183B617A6939697B6A90
:10082C00180002F0E3FDFA6A7B69D318FB627A6A5E
:10083C007B69D3187B627A687B69D31A7B60BA6A4E
:10084C007B69D318BB62FB699B68BA6A9A4201D177
:10085C000023BB62BA69BB6AD31A7B617A697B6875
:10086C00934200D913007B617B69D3B1FB695A6851
:10087C00BB6AD3183B617A6939697B6A180002F04C
:10088C00B5FDFA6A7B69D318FB627A6A7B69D31867
:10089C007B627A687B69D31A7B60BA6A7B69D318EE
:1008AC00BB62FB6A13B1FB69BA6A1A61FB6A180076
:1008BC00BD460CB080BD80B586B000AFF860B960A5
:1008CC007A60EFF31083012181F310887B617A68E1
:1008DC00B968FB681800FFF763FF03003B617B6995
:1008EC0083F310883B691800BD4606B080BD80B507
:1008FC0088B000AFF860B9607A60BB68BB61FB6818
:10090C005A1C13005B009B18DB0044F2A042C2F29D
:10091C0000029B187B617B695B69022B2DD035D85B
:10092C0013B1012B16D031E07B691800FFF717FFCC
:10093C0003003B613A697B689A4202D20023FB6157
:10094C0027E07B68FB617A68B9697B691800FFF75F
:10095C00BCFE1EE07B691800FFF701FF03003B6142
:10096C003A697B68934200D91300FB61FA69B96953
:10097C007B691800FFF7A9FE0BE07A68B9697B69FF
:10098C001800FFF744FE0300FB6102E00023FB614B
:10099C00C046FB691800BD4608B080BD80B588B064
:1009AC0000AFF860B9607A6044F2A043C2F2000371
:1009BC00FB61FB691B785BB2532B01D0FFF7C4FDC5
:1009CC00EFF31083012181F31088BB617A68B96859
:1009DC00FB681800FFF78BFF03007B61BB6983F397
:1009EC0010887B691800BD4608B080BD80B584B006
:1009FC0000AF44F2A043C2F20003BB60BB681B789B
:100A0C005BB2532B01D0FFF79FFD0A4B7B607B68D9
:100A1C001B693B607B68DB683A689A4202D0012311
:100A2C00FB6001E00023FB60FB681800BD4604B0CE
:100A3C0080BDC0460045002080B584B000AF786012
:100A4C000A00FB1C1A707B689B68FB60FB685A1CD5
:100A5C007B685B689A420FD87B681A68FB68D3186E
:100A6C00FA1C12781A70FB685A1C7B689A607B68B7
:100A7C00DB685A1C7B68DA607B689A687B685B6809
:100A8C009A4215D17B6818697B6819687B689B68EA
:100A9C001A00FFF783FF02007B689B689A4204D020
:100AAC007B6801225242DA6002E07B6800229A6085
:100ABC00C046BD4604B080BD80B58AB000AFF860BA
:100ACC00B9607A603B60BB683B6201237B620123A7
:100ADC00FB6107E03A6A7B68B2FBF3F33B62FB69AC
:100AEC000133FB613A6A7B689A42F3D23A68FB693C
:100AFC009A4201D93B68FB617B6B012213404BBBD3
:100B0C003B6B3BB37B6B0222134033B13B6823B985
:100B1C001B23FB1830221A7003E01B23FB18202226
:100B2C001A700FE03B6B013B3B631B23FB1800224D
:100B3C009A56FB6811001800FFF77EFFFB68DB6814
:100B4C00002B06DB3B6B2BB1FA693B6B9A42E9D36A
:100B5C0000E0C046FB68DB68002B56DB3B68012BD2
:100B6C0003D93B68013B3B6009E0BA687B6AB2FB86
:100B7C00F3F37B617A697B689A4200D204E07B6A6A
:100B8C007A6853437B62E9E7BA687B6AB2FBF3F39A
:100B9C007B617B697A6A5343BA68D31ABB6043F2B0
:100BAC00B843C0F200037A699B1800229A56FB687E
:100BBC0011001800FFF740FFFB68DB68002B08DB17
:100BCC007A6A7B68B2FBF3F37B627B6A002BDBD126
:100BDC0000E0C0467B6B01221340B3B13B6BA3B169
:100BEC000BE03B6B013B3B63FB6820211800FFF7DC
:100BFC0023FFFB68DB68002B06DB3B6B2BB1FA6930
:100C0C003B6B9A42EDD300E0C046C046BD460AB0ED
:100C1C0080BD90B589B002AFF860B9607A603B6076
:100C2C00BB68DA179B1853403B6101237B6107E0DB
:100C3C007B683A6992FBF3F33B617B6901337B611F
:100C4C007B683A699A42F3DA3A687B699A4201D92D
:100C5C003B687B61BB6A4BB1BB68002B03DBFB6A57
:100C6C000422134013B1BB6A013BBB62FB6A022234
:100C7C0013400BB13B68D3B1FB6A01221340B3B9EB
:100C8C00BB6AA3B10BE0BB6A013BBB62FB682021D2
:100C9C001800FFF7D1FEFB68DB68002B06DBBB6A94
:100CAC002BB17A69BB6A9A42EDD300E0C046FB686F
:100CBC00DB68002B48DBBB68002B08DABB685B42A7
:100CCC00BB60FB682D211800FFF7B6FE08E0FB6A3D
:100CDC000422134023B1FB682B211800FFF7ACFE54
:100CEC00FB68DB68002B2FDBFB6A02221340E3B1AD
:100CFC00FB6A01221340C3B93B68B3B9BB6AA3B109
:100D0C000BE0BB6A013BBB62FB6830211800FFF7AC
:100D1C0093FEFB68DB68002B06DBBB6A2BB17A69A0
:100D2C00BB6A9A42EDD300E0C046FB68DB68002B3F
:100D3C000ADBB9683C687A68F868FB6A0193BB6A9D
:100D4C0000932300FFF7B8FEC046BD4607B090BD28
:100D5C0090B5A5B002AFF860B9607A6054217B18E9
:100D6C001422BA181A607B1840225A607B18002291
:100D7C009A607B18FA681A617B180022DA60872166
:100D8C007B18BA6812781A70BB680133BB607B1889
:100D9C001B785BB2002B00D1B2E17B181B785BB2E5
:100DAC00252B00D09BE100237B6701238022BA18FE
:100DBC00136087217B18BA6812781A707B181B781D
:100DCC005BB2302B10D027DC2D2B05D024DC232B51
:100DDC001AD02B2B10D01FE07B6F012213437B67A3
:100DEC00BB680133BB601CE07B6F022213437B6743
:100DFC00BB680133BB6014E07B6F042213437B6739
:100E0C00BB680133BB600CE07B6F082213437B672C
:100E1C00BB680133BB6004E000238022BA18136066
:100E2C00C0468023FB181B68002BC2D100233B67F4
:100E3C0087217B18BA6812781A707B181B785BB202
:100E4C002F2B14DD7B181B785BB2392B0FDCBB68A6
:100E5C000133BB603A6F13009B009B185B001A00B8
:100E6C007B181B785BB2D318303B3B67E0E77F21E4
:100E7C007B1800221A700023BB6787203B18BA68C6
:100E8C0012781A703B181B785BB22E2B38D1BB68CA
:100E9C000133BB60BB681B785BB22A2B0DD1BB68DE
:100EAC000133BB607B1801221A707B681B68191D0B
:100EBC007A6811601B68BB6722E087217B18BA68CF
:100ECC0012781A707B181B785BB22F2B18DD7B18ED
:100EDC001B785BB2392B13DC7F23FB1801221A70B1
:100EEC00BB680133BB60BA6F13009B009B185B009F
:100EFC001A007B181B785BB2D318303BBB67DCE75E
:100F0C008723FB18BA6812781A708722BB181B78D3
:100F1C005BB26C2B04D0BB181B785BB2682B08D16E
:100F2C00BB680133BB608723FB18BA6812781A7050
:100F3C00EBE78723FB181B785BB2252B00D1C2E0B3
:100F4C0000DAC7E0782B00DDC4E0582B00DAC1E0F2
:100F5C00583B202B00D9BDE09A00794BD3181B6865
:100F6C009F467B681B68191D7A6811601B6880227C
:100F7C00B9180B606B217B18BA1812681A707B18A1
:100F8C0000229A565423FB1811001800FFF754FD49
:100F9C00A1E07B681B68191D7A6811601B688021B1
:100FAC007A181360BA6F7B1819685423F8187B6F82
:100FBC0001933B6F009313000A22FFF72AFE8AE08D
:100FCC007B681B68191D7A6811601B688022B91830
:100FDC000B60BB181968BA6F5423F8187B6F019318
:100FEC003B6F009313000A22FFF766FD73E07B68EA
:100FFC001B68191D7A6811601B688022B9180B6078
:10100C00BB181968BA6F5423F8187B6F01933B6FA8
:10101C00009313001022FFF74FFD5CE07B681B6808
:10102C00191D7A6811601B68FB66FB6E43B943F2AD
:10103C002C43C0F20003FB667F23FB1800221A70BE
:10104C0087217B18FA6E12781A70FB6E0133FB66DF
:10105C007B181B785BB2E3B17F23FB181B780BB1B9
:10106C00BB6FC3B18723FB1800229A5654243B193B
:10107C0011001800FFF7E0FCBB6F013BBB673B198D
:10108C00DB687F217A18791809781170002BD7DA70
:10109C0021E0C0461FE0C0461DE07B681B68191D9F
:1010AC007A6811601B688022B9180B60BB1819682C
:1010BC005423F818002301930823009308231022CB
:1010CC00FFF7FAFC07E05423FB1825211800FFF763
:1010DC00B3FC00E0C046BB680133BB6009E087236A
:1010EC00FB1800229A565423FB1811001800FFF726
:1010FC00A3FC5423FB18DB68002B00DB3FE600E06D
:10110C00C0465422BB18DB68002B12DDBB189B6851
:10111C003BB1BB189A681423F918FB681800FFF749
:10112C003DFC54217B18DA687B189B68D2187B181D
:10113C00DA605423FB18DB681800BD4623B090BD61
:10114C00343400000EB480B585B000AF7860202335
:10115C00FB18BB600823FA18F9697B681800FFF7C5
:10116C00F7FD0300FB60FB681800BD4605B080BCB2
:10117C0008BC03B0184780B586B002AF0200FB1D57
:10118C001A700023FB6044F21443C0F200031A7877
:10119C0044F20003C2F200031A7044F21443C0F28A
:1011AC0000035A6844F20003C2F200039A6044F24E
:1011BC001443C0F20003DA6844F20003C2F20003E5
:1011CC00DA6044F20433C0F20003DA6844F200033C
:1011DC00C2F200031A6144F27C33C0F20003DA68F5
:1011EC0044F20003C2F200035A6144F21443C0F209
:1011FC000003DB69BB60BB68DB6C9A6844F20003DC
:10120C00C2F200035A6044F20003C2F200035B7E98
:10121C000BB100F047F9FB1D1B78042B35D043DCD8
:10122C00032B23D040DC012B02D0022B0FD03BE050
:10123C0044F20003C2F200030C221A7043F2C843BA
:10124C00C0F2000319000020FFF77CFF3DE044F2E0
:10125C000003C2F200030D221A7043F20453C0F2D1
:10126C00000319000020FFF76DFF2EE044F200038D
:10127C00C2F200030E221A7043F24053C0F2000374
:10128C0019000020FFF75EFF1FE044F20003C2F2DA
:10129C0000030F221A7043F28453C0F200031900AA
:1012AC000020FFF74FFF10E043F2C053C0F20003E1
:1012BC0043F6B472C0F2000243F2EC51C0F20001EA
:1012CC000020FFF73FFF0323B4E0FB1D1B78180041
:1012DC0000F010FC0300FB60FB6893B143F2086361
:1012EC00C0F2000343F6B472C0F2000243F2EC51B8
:1012FC00C0F200010020FFF725FF00F06DFDFB6838
:10130C0098E043F23863C0F2000343F6B472C0F2C3
:10131C00000243F2EC51C0F200010020FFF712FF73
:10132C0044F20003C2F200035B68180000F0A5FC55
:10133C000300FB60FB6893B143F26C63C0F20003E3
:10134C0043F6B472C0F2000243F2EC51C0F2000159
:10135C000020FFF7F7FE00F03FFDFB686AE044F267
:10136C000003C2F20003D86844F20003C2F2000387
:10137C00196944F20003C2F200035B691A0000F021
:10138C00A8FC0300FB60FB6893B143F29863C0F2C6
:10139C00000343F6B472C0F2000243F2EC51C0F207
:1013AC0000010020FFF7CEFE00F016FDFB6841E0C7
:1013BC0044F20003C2F20003DA6844F20003C2F202
:1013CC000003186944F20003C2F200035B6943F2A4
:1013DC00BC61C0F20001009303000020FFF7B2FED5
:1013EC0044F20003C2F200031B780B3B1A0043F2D9
:1013FC00F063C0F2000319000020FFF7A3FE44F2D3
:10140C000003C2F200039A6843F22873C0F200038F
:10141C0019000020FFF796FE44F20003C2F200030D
:10142C005A6843F24473C0F2000319000020FFF71E
:10143C0089FE00231800BD4604B080BD80B582B083
:10144C0000AF00237B6044F6A453C2F200031800E3
:10145C0000F0BDFE03007B607B6883B143F26473D4
:10146C00C0F2000343F6C472C0F2000243F2EC5126
:10147C00C0F200010020FFF765FE7B680EE044F22D
:10148C000003C2F2000301225A7643F29073C0F2B9
:10149C00000319000020FFF755FE00231800BD467D
:1014AC0002B080BD80B582B000AF00237B6044F6F3
:1014BC00A453C2F20003180000F079FE03007B6015
:1014CC007B6873B143F2C473C0F2000343F6D47269
:1014DC00C0F2000243F2EC51C0F200010020FFF711
:1014EC0031FE44F20003C2F2000300225A7643F2AA
:1014FC00EC73C0F2000319000020FFF723FEC04676
:10150C00BD4602B080BD80B586B002AF78607B6806
:10151C0043B144F20003C2F200039B685B087A6893
:10152C009A4219D344F20003C2F200039B68580894
:10153C0043F62003C0F2000343F6E472C0F200024B
:10154C0043F2EC51C0F20001019078680090002049
:10155C00FFF7F8FD032346E044F20003C2F2000358
:10156C009A687B68D3184FF6FF72934218D944F2ED
:10157C000003C2F20003986843F67003C0F2000344
:10158C0043F6E472C0F2000243F2EC51C0F20001E7
:10159C000190786800900020FFF7D4FD032322E02F
:1015AC0044F20003C2F200037A685A6044F200036A
:1015BC00C2F200035B7E01225340DBB293B17B6825
:1015CC00180000F05AFB0300FB60FB680BB1FB68D2
:1015DC0009E07A6843F6D403C0F200031900002036
:1015EC00FFF7B0FD00231800BD4604B080BDB0B5B8
:1015FC008AB004AF040008001100FB1D221C1A70F5
:10160C00BB1D021C1A707B1D0A1C1A7000237B6107
:10161C00FB1D1B78642B07D8BB1D1B78642B03D8D0
:10162C007B1D1B78642B10D943F6FC03C0F200031E
:10163C0043F6FC72C0F2000243F2EC51C0F200011E
:10164C000020FFF77FFD03236DE0FB1D1A7844F2A9
:10165C000003C2F20003DA60BB1D1A7844F20003E7
:10166C00C2F200031A617B1D1A7844F20003C2F225
:10167C0000035A61FB1D1A7844F20003C2F2000306
:10168C009B681900100000F08BFB03003B61BB1D35
:10169C001A7844F20003C2F200039B681900100090
:1016AC0000F07EFB0300FB607B1D1A7844F2000304
:1016BC00C2F200039B681900100000F071FB0300DC
:1016CC00BB60BA68F9683B69180000F002FB0300C4
:1016DC007B617B6983B143F62C13C0F2000343F6A4
:1016EC00FC72C0F2000243F2EC51C0F20001002087
:1016FC00FFF728FD7B6916E0FB1D1C78BB1D1B78D2
:10170C007A1D12783D6943F65011C0F20001B86899
:10171C0003900292FA68019200932B0022000020A1
:10172C00FFF710FD00231800BD4606B0B0BD80B514
:10173C0000AF44F20003C2F200031800BD4680BDA6
:10174C0080B500AF43F69813C0F2000319000020D7
:10175C00FFF7F8FC43F6C013C0F200031900002099
:10176C00FFF7F0FC43F6D813C0F200031900002079
:10177C00FFF7E8FC43F6F413C0F200031900002055
:10178C00FFF7E0FC43F61C23C0F200031900002015
:10179C00FFF7D8FC43F64423C0F2000319000020E5
:1017AC00FFF7D0FC43F66C23C0F2000319000020B5
:1017BC00FFF7C8FC43F69023C0F200031900002089
:1017CC00FFF7C0FC43F6B423C0F20003190000205D
:1017DC00FFF7B8FCC046BD4680BD80B500AF43F6F0
:1017EC00C823C0F2000319000020FFF7ABFC43F63E
:1017FC00FC23C0F2000319000020FFF7A3FC43F602
:10180C003033C0F2000319000020FFF79BFC43F6B5
:10181C006433C0F2000319000020FFF793FCC046AC
:10182C00BD4680BD80B592B002AF0023FB63FFF7CD
:10183C0087FFFFF7DBF80300002BFAD03B1D1800E5
:10184C0010231A00002101F0C3FD3B1D10221900CA
:10185C000020FFF730F83B1D180001F013FD0300CA
:10186C00FB63FB6B062B00D92FE1FB6B9A00A04BA3
:10187C00D3181B689F46FFF7B0FF43F69833C0F2AE
:10188C00000319000020FFF75DFC00F0BFFA030015
:10189C00BB61BB69DBB21800FFF76DFC03007B6119
:1018AC007B69002B00D119E143F6B833C0F2000379
:1018BC0044F21802C0F2000243F2EC51C0F20001F3
:1018CC000020FFF73FFC09E143F6C833C0F20003E8
:1018DC0019000020FFF736FC00F098FA03003B6279
:1018EC003B6A1800FFF70FFE0300FB61FB69002B3E
:1018FC0000D1F5E043F6EC33C0F2000344F21802D9
:10190C00C0F2000243F2EC51C0F200010020FFF7DC
:10191C0019FCE5E043F60443C0F200031900002073
:10192C00FFF710FC00F072FA03003B6343F6284308
:10193C00C0F2000319000020FFF704FC00F066FA67
:10194C000300FB6243F64843C0F200031900002079
:10195C00FFF7F8FB00F05AFA0300BB623B6BDBB2FB
:10196C00FA6AD1B2BA6AD2B21800FFF740FE03008D
:10197C007B627B6A002B00D1B4E043F66843C0F273
:10198C00000344F21802C0F2000243F2EC51C0F220
:10199C0000010020FFF7D6FBA4E044F20003C2F2E2
:1019AC0000035B7E01225340DBB2BBB1FFF746FD67
:1019BC0003007B637B6B002B00D195E043F68043E7
:1019CC00C0F2000344F21802C0F2000243F2EC51E0
:1019DC00C0F200010020FFF7B5FB85E043F6A443FD
:1019EC00C0F2000319000020FFF7ACFB7CE044F2CE
:1019FC000003C2F200035B7E13B1FFF753FD74E0EA
:101A0C0043F6C843C0F2000319000020FFF79AFB0D
:101A1C006BE0FFF78CFE0300BB6343F6E843C0F2B8
:101A2C00000319000020FFF78DFBBB6B1B78DA1E3F
:101A3C00BB6B5B7E23B143F61053C0F2000303E093
:101A4C0043F61453C0F2000343F61851C0F20001E0
:101A5C000020FFF777FBBB6B9A68BB6B5B6843F6A8
:101A6C003451C0F200010020FFF76CFBBB6BDA684D
:101A7C00BB6B1869BB6B5B6943F65C51C0F2000130
:101A8C00009303000020FFF75DFBBB6B1B7E23B1B3
:101A9C0043F68053C0F2000303E043F68453C0F2D4
:101AAC00000343F68851C0F200011A000020FFF732
:101ABC0049FB1AE043F6A053C0F2000319000020C2
:101ACC00FFF740FB00F088F90FE043F6C053C0F27B
:101ADC00000319000020FFF735FB06E0C04604E0C8
:101AEC00C04602E0C04600E0C046FFF729FEA0E673
:101AFC00983F0000B0B58CB000AF0200FB1D1A700F
:101B0C000023FB62FB1D1B78042B1DD023DC032B55
:101B1C0013D020DC012B02D0022B07D01BE044F6A3
:101B2C005853C2F200030C221A7015E044F65853B5
:101B3C00C2F200030D221A700EE044F65853C2F2A2
:101B4C0000030E221A7007E044F65853C2F2000349
:101B5C000F221A7000E0C0460C257B1944F2144287
:101B6C00C0F2000213CA13C313CA13C303CA03C3BC
:101B7C0044F65853C2F200031A787B191A7044F2D7
:101B8C000432C0F2000244F66453C2F200031100A6
:101B9C00180000F0E6FA0300FB62FB6A83B143F61F
:101BAC00DC53C0F2000344F23002C0F2000243F2F4
:101BBC00EC51C0F200010020FFF7C4FAFB6A58E0B8
:101BCC0043F61063C0F2000319000020FFF7BAFAC5
:101BDC0044F27C32C0F2000244F68453C2F2000399
:101BEC001100180000F0BDFA0300FB62FB6A83B120
:101BFC0043F62C63C0F2000344F23002C0F2000240
:101C0C0043F2EC51C0F200010020FFF79BFAFB6A93
:101C1C002FE043F66063C0F2000319000020FFF7C9
:101C2C0091FA0C23FA1844F6A453C2F200031100E3
:101C3C00180000F096FA0300FB62FB6A83B143F6CE
:101C4C007C63C0F2000344F23002C0F2000243F2A3
:101C5C00EC51C0F200010020FFF774FAFB6A08E0B7
:101C6C0043F6B063C0F2000319000020FFF76AFAD4
:101C7C0000231800BD460CB0B0BD80B584B000AFD9
:101C8C0078600023FB6044F20003C2F200035B7E29
:101C9C0001225340DBB27BB149F28C03C4F208033E
:101CAC007A681A607A6843F6CC63C0F200031900B4
:101CBC000020FFF747FA07E043F6F463C0F2000395
:101CCC0019000020FFF73EFAFB681800BD4604B06F
:101CDC0080BD80B586B000AFF860B9607A60002333
:101CEC007B61F96844F6A453C2F200030022180089
:101CFC0000F07EFA03007B617B6983B143F62073AD
:101D0C00C0F2000344F24802C0F2000243F2EC516C
:101D1C00C0F200010020FFF715FA7B693CE0B968BE
:101D2C0044F66453C2F200030022180000F060FA7B
:101D3C0003007B617B6983B143F64873C0F20003F7
:101D4C0044F24802C0F2000243F2EC51C0F200012E
:101D5C000020FFF7F7F97B691EE0796844F684539D
:101D6C00C2F200030022180000F042FA03007B616B
:101D7C007B6983B143F67073C0F2000344F24802EE
:101D8C00C0F2000243F2EC51C0F200010020FFF758
:101D9C00D9F97B6900E000231800BD4606B080BD70
:101DAC0080B584B000AF786039607B68632B01D953
:101DBC0000230DE07B680BB93B6809E03B687A684F
:101DCC0053436422B3FBF2F33A68D31AFB60FB680B
:101DDC001800BD4604B080BD80B500AF44F6A453D6
:101DEC00C2F20003180000F0A7FA44F66453C2F2E2
:101DFC000003180000F0A0FA44F68453C2F200036A
:101E0C00180000F099FAC046BD4680BD80B586B07A
:101E1C0000AF3B00180010231A00002101F0D8FA83
:101E2C0000237B6100233B6115E0FEF7DFFD03001F
:101E3C008BB13B00102219000020FEF73CFD030083
:101E4C007B617B693BB944F21013C0F200031900AB
:101E5C000020FFF777F97B69002BE6D03B001800D8
:101E6C0001F010FA03003B613B691800BD4606B057
:101E7C0080BD80B500AFFFF7D5FCC046BD4680BD28
:101E8C0080B582B000AF0200FB1D1A70FB1D1B78E1
:101E9C0033B94CF20003C4F27E0390220121995411
:101EAC00FB1D1B78022B0BD144F27452C0F20002C2
:101EBC0044F65C53C2F200031100180000F080F8E5
:101ECC00C046BD4602B080BD80B500AFFFF7D1FF64
:101EDC0000231800BD4680BD80B584B000AF002340
:101EEC00FB60EFF310837B607B68FB600123BB60BE
:101EFC00BB6883F31088C04644F6F853C2F2000363
:101F0C001B685BB940F60053C4F204030022DA707C
:101F1C0040F60053C4F204034022DA7044F6F8533E
:101F2C00C2F200031B685A1C44F6F853C2F20003B9
:101F3C001A60FB683B603B6883F31088C046C04660
:101F4C00BD4604B080BD80B584B000AF0023FB60FB
:101F5C00EFF310837B607B68FB600123BB60BB6885
:101F6C0083F31088C04644F6F853C2F200031B6892
:101F7C0053B144F6F853C2F200031B685A1E44F6E0
:101F8C00F853C2F200031A6044F6F853C2F200038D
:101F9C001B685BB940F60053C4F204030022DA70EC
:101FAC0040F60053C4F204038022DA70FB683B60F5
:101FBC003B6883F31088C046C046BD4604B080BD64
:101FCC0080B584B000AF786039607B68FB60FA68DC
:101FDC0045F25423C5F24F0313603B68180000F020
:101FEC0005F800231800BD4604B080BD90B585B03F
:101FFC0000AF78607B68BB60FFF76EFF0E23FB18A9
:10200C0000221A8017E0BB685A680E217B181B88C7
:10201C00DB00D3189888BB685A680C007B181B88A7
:10202C00DB00D3181B68190000F012F83B191A8852
:10203C003B1901321A80BB681B880E22BA18128811
:10204C009A42E0D3FFF77FFFC046BD4605B090BD76
:10205C0090B583B000AF02003960BB1D1A803A689E
:10206C0080235B0213403BB340F60003C4F204032D
:10207C00BA1D1288120A92B21000BA1D1288FF21E2
:10208C000A4001018A189100CA5816480240CA50E9
:10209C0040F60003C4F20403BA1D1288120A92B26D
:1020AC001400BA1D1288FF210A4039680D480140FE
:1020BC00200182189200D15040F60003C4F20403B0
:1020CC00BA1D1288120A92B21000BA1D1288FF2192
:1020DC000A4001018A1892003968D150C046BD46A9
:1020EC0003B090BDFFFFFEFF80B582B000AFEFF3F1
:1020FC0003837B607B683B603B001B88DB05DB0D4F
:10210C009BB2DBB2103BDBB25BB21800BD4602B037
:10211C0080BD80B582B000AF02003960FB1D1A7023
:10212C00FB1D00229A5644F6FC53C2F200039200A7
:10213C003968D150C046BD4602B080BD80B582B072
:10214C0000AF0200FB1D1A70FB1D00229A5644F6CC
:10215C00FC53C2F200039200D3581800BD4602B0E3
:10216C0080BD80B584B000AF786039607B68FB605F
:10217C003B681B7C1A00012393401A00FB68DA6051
:10218C003A68FB681100180000F04AF93A68FB68DD
:10219C001100180000F06AF9FA6845F25403C0F215
:1021AC004703136000231800BD4604B080BD80B502
:1021BC0084B000AF78607B68FB60FB689B68FA6852
:1021CC00D2689A6000231800BD4604B080BD80B56B
:1021DC0084B000AF78607B68FB60FB689B68FA6832
:1021EC00D2685A6000231800BD4604B080BD0000C0
:1021FC0090B58DB000AFF860B9607A607B6803224F
:10220C0013407B62FB683B6214243B19012252424F
:10221C001A603B1900225A607B683A19B968386A0F
:10222C0000F0C1FB3B6A180000F0F1F80300FB6101
:10223C003B6A9B681B6BFB623B195B688BBB022385
:10224C00BB627B68082213400BB10423BB627B6822
:10225C0002221340BBB13B6A996814243B191A68DB
:10226C00BB6A12339B00CB1804331A603B6A996823
:10227C00BB6A581C3B191A68030012339B00CB181D
:10228C0004331A600DE03B6A99687A6ABB6AD0180D
:10229C001423FB181A68030012339B00CB18043369
:1022AC001A607B684022134043B13B6A9B681A6CEE
:1022BC003B6A9B688021C9030A431A647B6A012B21
:1022CC000AD0FB6A1A4A1340FB621423FB185B68A2
:1022DC001B04FA6A1343FB627B68022B09D114229C
:1022EC00BB185B682BB1BA18B968386A012300F0C7
:1022FC005AFB7B6A53B1FB6A0E4A1340FB621423F0
:10230C00FB185B681B06FA6A1343FB623B6A9B680B
:10231C00FA6A1A63FB694AF200521A433B6A1100CB
:10232C00180000F06BF800231800BD460DB090BDEE
:10233C00FFFFFCFFFFFFFFFC80B588B000AF7860AB
:10234C007B68FB610023BB61FB695B68DB697B61BC
:10235C00FB695B689B7C5BB2180000F0DBFA7B6965
:10236C0028229B56180000F0D5FA7B6929229B562F
:10237C00180000F0CFFA7B692A229B56180000F057
:10238C00C9FA7B692B229B56180000F0C3FA7B69B3
:10239C002C229B56180000F0BDFA7B692D229B560F
:1023AC00180000F0B7FA7B69DB6C3B613B692BB121
:1023BC003B695B785BB2180000F0ACFAFB69002259
:1023CC001A60FB69180000F022F80300FB60FB693F
:1023DC009B68FA69D2689A60FB699B6800225A6311
:1023EC00FB684AF200521A43FB691100180000F016
:1023FC0005F8BB691800BD4608B080BD80B582B039
:10240C0000AF78603960C046BD4602B080BD80B573
:10241C0082B000AF786000231800BD4602B080BDCA
:10242C0080B584B000AF786039607B683A685A60D8
:10243C007B6801221A743B681B7C40F6900CC0F23E
:10244C00400C63441B02FB60FA687B689A603B6833
:10245C005A697B685A613B689A697B68DA617B6868
:10246C0000229A61C046BD4604B080BD80B594B0D0
:10247C0000AF786039603B68DB69BB6300237B632A
:10248C00EFF31083BB61BB697B6301237B617B69C9
:10249C0083F31088C04646F6FC73C4F20403DA6872
:1024AC0046F6FC73C4F2040340218A43DA6046F614
:1024BC00FC73C4F20403DB687B6B3B613B6983F305
:1024CC001088C0467B689B684AF200521A607B6891
:1024DC009B680022DA627B689B680022DA637B6867
:1024EC009B6800229A643B681B7A3B633B6BDB0561
:1024FC00FB643B685B68013BBB643B681B78032B4C
:10250C0004D1FB6C802252021343FB643B681B78A2
:10251C00032B08D93B681B781B04FA6C1343FB6430
:10252C003B685B68BB643B681B780B2B04D9FB6C6A
:10253C0048F200021343FB647B689B68FA6CDA6216
:10254C007B68180000F0C7F97B689B68BA6B9269CE
:10255C00DA617B689B68BA6BD2691A627B689B688C
:10256C00BA6C9A667B689B68BA6C5A663B681B7837
:10257C000B2B03D97B689B68BA6CDA660023FB6271
:10258C00BB6B1B6D7B6408217B18012252421A60C5
:10259C007B1800225A603B681B783BB93B685B6830
:1025AC005B08013BBB627B18BA6A1A603B681B78FC
:1025BC00012B07D93B68D9680823FA1878680023DF
:1025CC0000F0F1F97B689B6808217A1812685A654B
:1025DC007B689B687A1812689A653B681B78032B9A
:1025EC0009D97B689B687A181268DA657B689B68E6
:1025FC007A1812681A663B681B780B2B04D97B6817
:10260C009B6843F20002DA6408217B185B681B04A8
:10261C00FA6A1343FB627B185B681B06FA6A134366
:10262C00FB62BB6B1B6D03BBBB6B1B7863B1BB6BE2
:10263C005A783B681100180000F038FA03007B62EE
:10264C007A6C7B6A13437B64BB6B9B786BB1BB6B03
:10265C00DA783B681100180000F028FA03003B629E
:10266C003B6A1B047A6C13437B647B68180000F094
:10267C0051FA3B681B7C1A00012393400F22134034
:10268C001BB17B689B6800225A64BB6BDB6CFB61E3
:10269C00FB69002B64D0FB69DB781A07FB699B781C
:1026AC001B0613433B643B681B7C1A0001239340BD
:1026BC000F2213409BB1FB699B6813B9FB69DB6864
:1026CC000BB1012200E000227B689B68110088227C
:1026DC0099507B689A68FB699B688C2153503B68C6
:1026EC001B7C1A00012393400F22134023B37B68F9
:1026FC009A68FB69DB6890215350FB691B7E9A0139
:10270C00FB695B7E1B021A431100FB699B7E1A035B
:10271C007B689B680A435A64FB691B791B043A6CFF
:10272C0013433B647B689B68FA6912691A677B6880
:10273C009B68FA695269DA677B689B683A6C9A63A2
:10274C00BB6B1B6DABB9FB69DB7E5B027A6C134315
:10275C007B64FB691B7F5B067A6C13437B6408E02C
:10276C007B689B6800229A637B689B6888220021A7
:10277C009950BB6B1B6D6BB9BB6B20229B5C5B03D5
:10278C007A6C13437B64BB6B21229B5C5B077A6C7A
:10279C0013437B64AA23DB03FB63BB6B48229B5C68
:1027AC0013B1A023DB03FB637B689B68FA6B1A6491
:1027BC003B681B78012B07D17B689B680022DA648D
:1027CC007B689B6800221A657B689B687A6C5A63ED
:1027DC007B689B68D96ABB6B54229B5C1A01BB6BF0
:1027EC0055201B5C5B011A437B689B680A43DA62C9
:1027FC007B689B68FA6A03210A431A637B689B68AF
:10280C00FA6A01210A431A637B689B687A68D2686A
:10281C00DA607B684AF201511800FFF7EFFD3B6864
:10282C00122018563B685B7C19007B681A0000F07C
:10283C008CF8BB6B28229856BB6B22229B5C190030
:10284C007B681A0000F081F8BB6B29229856BB6B91
:10285C0023229B5C19007B681A0000F076F8BB6B96
:10286C002A229856BB6B24229B5C19007B681A00A9
:10287C0000F06BF8BB6B2B229856BB6B25229B5C34
:10288C0019007B681A0000F060F8BB6B2C2298567C
:10289C00BB6B26229B5C19007B681A0000F055F874
:1028AC00BB6B2D229856BB6B27229B5C19007B6857
:1028BC001A0000F04AF8FB694BB1FB69012018566D
:1028CC00FB691B7819007B681A0000F03EF8C046C3
:1028DC00BD4614B080BD80B582B000AF78607B6817
:1028EC009B68802212061A617B689B688022120604
:1028FC005A617B689B68802212069A617B689B6890
:10290C0000225A627B689B6800229A62C046BD46D0
:10291C0002B080BD80B582B000AF0200FB1D1A7002
:10292C00FB1D1B787F2B0CD8FB1D1B785BB2180092
:10293C0000F028FCFB1D1B785BB200211800FFF790
:10294C00E8FBC046BD4602B080BD80B584B000AF88
:10295C00B9607A600F217B18021C1A7008007B1872
:10296C001B787F2B07D87A68B9683B181B785BB249
:10297C00180000F02DFCC046BD4604B080BD80B5EB
:10298C0082B000AF0200FB1D1A70FB1D1B787F2B61
:10299C0005D8FB1D1B785BB2180000F053FBC0463A
:1029AC00BD4602B080BDB0B588B000AFF860B9606C
:1029BC007A603B60FB689B689B6EFB61FB685B68A5
:1029CC001B78032B02D8FB690133FB6116243B19DE
:1029DC00BA6851424A411A7015257A19B868F969D2
:1029EC00002388425B4113703B191B781BB97B1980
:1029FC001B78002B44D03B68012213403BB9FB6889
:102A0C009B685B6BDB06DB0EDBB2BB6106E0FB6835
:102A1C009B685B6BDB02DB0EDBB2BB61FB685B684C
:102A2C001B78032B08D9BB6910221A401723FB18FB
:102A3C0051424A411A7008E0BB690C221A40172314
:102A4C00FB18043A51424A411A701623FB181B78A2
:102A5C0033B11723FB181B7801225340DBB23BB96F
:102A6C001523FB181B783BB11723FB181B781BB1E4
:102A7C007B6802225A6015E07B6803225A6011E0E1
:102A8C00BB683B61FB685B681B78032B03D97B68D5
:102A9C003A691A6006E03B69013B3B617B683A6925
:102AAC001A60FFE7C046BD4608B0B0BD80B584B023
:102ABC0000AF78600A00FB1C1A70FB1C1B789A0193
:102ACC00FB1C1B781B01134340F200121343BB6029
:102ADC000923FB607B681B78022B12D07B681B7868
:102AEC00032B02D90323FB600BE07B681B78032BC1
:102AFC0002D10323FB6004E0FB1C1B780BB90623FB
:102B0C00FB60BA68FB681343BB60BB681800BD462A
:102B1C0004B080BD80B584B000AF78607B685B6822
:102B2C00DB69BB600023FB601AE0BB6848229B5C3E
:102B3C001A00FB68DA401300012213406BB1BB682A
:102B4C00FA680C329200D2587B689968013AFB689B
:102B5C0012339B00CB1804331A60FB680133FB6003
:102B6C00FB68052BE1D9C046C046BD4604B080BD0C
:102B7C0090B589B000AFF8607A600B23FB180A1C83
:102B8C001A70FB689B69FB61FB691BB91023FB186E
:102B9C00FB6104E01023FB18FA6913CA13C3FB6929
:102BAC000B22BA1812781A71FB697A689A60FB6862
:102BBC00DA69FB691A60FB685B69FA69100098476F
:102BCC00FB689B692BB1FB689B691022BA1813CA6E
:102BDC0013C3C046BD4609B090BDB0B584B000AFBC
:102BEC000F257C19FFF780FA030023702C003B198A
:102BFC001B785BB2180000F001FA3B191B785BB232
:102C0C001800FFF79BFA0300BB60BB685B68DB69CD
:102C1C007B60BB685B681B78012B57D1BB681800C5
:102C2C00FFF7F5FB03003B60BB689B68BA68D26892
:102C3C009A60BB689B6800229A64BB689B68002200
:102C4C00DA64BB689B6800221A653B684AF2005242
:102C5C001A43BB6811001800FFF7D0FB3B191B7817
:102C6C005BB2180000F0EEF97B6848229B5C1A00FE
:102C7C00012313402BB17B6828229B561800FFF7C9
:102C8C007EFE7B6848229B5C1A00022313402BB10A
:102C9C007B6829229B561800FFF771FE7B682A225D
:102CAC009B561800FFF76BFE7B682B229B56180077
:102CBC00FFF765FE7B682C229B561800FFF75FFE22
:102CCC007B682D229B561800FFF759FEBB685B6989
:102CDC002BB1BB68002200211800FFF749FFC0464A
:102CEC00BD4604B0B0BD80B582B000AF0200FB1D84
:102CFC001A704EF20003C4F20103A0229B5CDBB2FB
:102D0C00FA1D12789A4231D04EF20003C4F201033C
:102D1C0036229B5CDBB253B94EF20003C4F20103C2
:102D2C003C229B5CDB07DB0FDBB2012BF4D14EF2B8
:102D3C000003C4F20103A0229B5CDB06DB0FDBB2B9
:102D4C00002BF4D14EF20003C4F20103FA1DA021B2
:102D5C0012785A544EF20003C4F20103A0229B5C79
:102D6C00DB06DB0FDBB2002BF4D100E0C046BD4626
:102D7C0002B080BD80B582B000AF4EF20003C4F249
:102D8C00010326229B5CDBB27B604EF20003C4F293
:102D9C0001031B6A1B0E072213403B6044F2704375
:102DAC00C2F200037A689200D2583B68DA4044F6CB
:102DBC000063C2F200031A60C046BD4602B080BD7B
:102DCC0080B500AF4EF20003C4F2010331220121A1
:102DDC0099544FF6C473C4F27E0301221A704EF25A
:102DEC000003C4F2010340F200121A624EF2000317
:102DFC00C4F20103262200219954FFF7BBFFC04601
:102E0C00BD4680BD80B500AF44F27043C2F20003F2
:102E1C0049F20002C0F2D0321A6044F27043C2F29E
:102E2C00000341F20022C0F27A025A6044F270436D
:102E3C00C2F2000348F200029A6044F27043C2F2FC
:102E4C00000342F60052C0F23112DA6044F27043D1
:102E5C00C2F2000300221A61FFF78CFFC046BD4688
:102E6C0080BD000080B500AF4EF20003C4F2010338
:102E7C0040F2FE32224999524CF20003C4F27E0316
:102E8C0043F6C87201219954FFF7BCFF4EF20003C0
:102E9C00C4F2010340F21342002199544EF2000394
:102EAC00C4F20103A2220921995400F02DF84EF22C
:102EBC000003C4F20103A522032199540020FFF75B
:102ECC0012FF4EF20003C4F2010336220021995482
:102EDC004EF20003C4F201033C229B5CDB07DB0FC8
:102EEC00DBB2012BF4D1FFF76BFF4EF20003C4F2FF
:102EFC00010340F2FE3203499952C046BD4680BDE3
:102F0C0003A5FFFF00A5FFFF80B500AFC046BD467F
:102F1C0080BD80B582B000AF0200FB1D1A70FB1D96
:102F2C001A7844F6C453C2F200039200D3585BB132
:102F3C00FB1D1A7844F6C453C2F200039200D35816
:102F4C00FA1D127810009847C046BD4602B080BDED
:102F5C0080B582B000AF46F20003C4F200033A1D04
:102F6C0040F220115B5A138046F20003C4F20003B6
:102F7C0040F240129B5A9AB2BB1C391D09880A4078
:102F8C001A80FB1D00221A7012E0BB1C1A88FB1D54
:102F9C001B78DA4013000122134023B1FB1D1B7870
:102FAC001800FFF7B6FFFB1D1A78FB1D01321A70D3
:102FBC00FB1D1B780C2BE8D946F20003C4F200036E
:102FCC00BA1C40F2301112885A52C046BD4602B0AB
:102FDC0080BD80B582B000AF02003960FB1D1A7055
:102FEC00FB1D00229A5644F6FC53C2F200039200D9
:102FFC003968D150C046BD4602B080BD80B582B0A4
:10300C0000AF0200FB1D1A7046F20003C4F200036D
:10301C00FA1D127852B2C0329100CA5808480240C8
:10302C00CA5046F20003C4F20003FA1D127852B2E1
:10303C00C0329200D358C046BD4602B080BDC046D7
:10304C00FFFFFEFF80B584B000AF0200FB1D1A70BD
:10305C00FB1D1B785BB21800FFF7D0FFBFF35F8F2F
:10306C00C046FB1D1B785BB2FB60FB681F22134044
:10307C0019004EF20013CEF20003FA1D127852B270
:10308C00520901208840010060329200D150C046A4
:10309C00BD4604B080BD90B585B000AFB9607A6014
:1030AC000F243B19021C1A704EF20013CEF20003CF
:1030BC003A19127852B29208C0329200D3583A1987
:1030CC001278110003220A40D200FF2191400A001D
:1030DC00D2431A401000BB689B01FF221A403B19D7
:1030EC001B78190003230B40DB009A4011004EF2B1
:1030FC000013CEF200033A19127852B2920801432F
:10310C00C0329200D1507A683B191B785BB2110027
:10311C001800FFF75EFFC046BD4605B090BD80B5F8
:10312C0084B000AF0200FB1D1A70FB1D1B785BB254
:10313C00FB60FB681F22134019004EF20013CEF205
:10314C000003FA6852090120884001009200D15016
:10315C00C046BD4604B080BD80B582B000AF020051
:10316C00FB1D1A70FB1D1B785BB21800FFF76AFF82
:10317C00FB1D1B785BB21800FFF7D1FFC046BD46A4
:10318C0002B080BD80B584B000AF0200FB1D1A7088
:10319C00FB1D1B785BB2FB60FB681F221340190000
:1031AC004EF20013CEF20003FA1D127852B25209FD
:1031BC0001208840010020329200D150BFF34F8F84
:1031CC00C046BFF36F8FC046C046BD4604B080BD3D
:1031DC0090B585B000AFB9607A600F243B19021C22
:1031EC001A707A68B9683B191B785BB21800FFF744
:1031FC0052FF3B191B785BB21800FFF7ADFFC046BE
:10320C00BD4605B090BD80B582B000AF20237B6079
:10321C007B68012B01D901237B6000233B601AE002
:10322C0044F28053C0F200033A689B181B787BB1C0
:10323C0044F28053C0F200033A689B181A7846F2A5
:10324C000003C4F2000311003A68C0329200D1505E
:10325C003B6801333B603A687B689A42E0D3C046D6
:10326C00C046BD4602B080BD80B500AF00BEC046B2
:10327C00BD4680BD80B582B000AF7860C046BD460B
:10328C0002B080BD10B50A22002100F095F810BDE7
:10329C00F0B587B0059002910392242B22D8012B14
:1032AC0020D043480825844608006646047801313E
:1032BC00375D3E002E402F42F6D12D2C19D10C78C3
:1032CC00811C0120019010251800A843E8B9302C6E
:1032DC0015D120260878B043582810D14C780231EB
:1032EC00102312E000F07CF816230360002007B0D6
:1032FC00F0BD01962B2CE6D10C78811CE3E7002B5A
:10330C00EED10A33302C00D1023B0198294D4619DD
:10331C00B6FBF3F7180000257843301A0490280008
:10332C00302252429446A4446246092A12D864467A
:10333C00A34224DD6A1C0AD001256D42874206D3C4
:10334C0002D1049AA24217DB0125584320180C78AD
:10335C000131E5E7412252429446A4446246192ABF
:10336C0001D8373CE4E7612252429446A4446246B9
:10337C00192A04D8573CDBE701256D42E7E76B1CA3
:10338C0009D12223059A30001360039B002BAED089
:10339C004B1E029307E0019B03B14042039B002BA1
:1033AC00A5D0002DF4D1029B039A13609FE7C04671
:1033BC0082450000FFFFFF7F10B513000A000100DB
:1033CC0002480068FFF764FF10BDC0461C40002097
:1033DC0003008218934200D1704719700133F9E74A
:1033EC00014B18687047C0461C400020002310B5E4
:1033FC009A4200D110BDCC5CC4540133F8E70000F4
:10340C005465726D696E616C000000000000000074
:10341C0000005454522052454747455300000000C9
:10342C00284E554C4C290000FA0F0000E01000000B
:10343C00E0100000E0100000E0100000E0100000C0
:10344C00E0100000E0100000E0100000E0100000B0
:10345C00E01000006E0F00009E0F0000E010000056
:10346C00E0100000E0100000E0100000E010000090
:10347C00E0100000E0100000E0100000E010000080
:10348C00E0100000E0100000A6100000E0100000AA
:10349C00E010000028100000E0100000CC0F00002D
:1034AC00E0100000E0100000FA0F00003031323361
:1034BC003435363738394142434445460D0A2D2DB3
:1034CC002D20436F6D706C656D656E746172792023
:1034DC0050574D204D6F6465203120285472616E19
:1034EC007366657220617420437265737429202D94
:1034FC002D2D0D0A000000000D0A2D2D2D20436FDF
:10350C006D706C656D656E746172792050574D20CD
:10351C004D6F6465203220285472616E736665723B
:10352C002061742054726F75676829202D2D2D0D24
:10353C000A0000000D0A2D2D2D20436F6D706C6557
:10354C006D656E746172792050574D204D6F6465B6
:10355C00203320285472616E73666572206174206A
:10356C00437265737420262054726F756768292026
:10357C002D2D2D0D0A0000000D0A2D2D2D20436F31
:10358C006D706C656D656E746172792050574D204D
:10359C004D6F646520342028496D6D6564696174D4
:1035AC0065205472616E7366657229202D2D2D0D68
:1035BC000A0000000D0A2A2A20496E76616C6964A3
:1035CC0020436F6D706C656D656E746172792050FF
:1035DC00574D206D6F6465202A2A0D0A00000000EB
:1035EC005B4552525D20496E2046756E6374696F5F
:1035FC006E3A20257328292C202573000D0A2A2ABF
:10360C0020436F6D706C656D656E746172792050BE
:10361C00574D206368616E6E656C206F70656E200F
:10362C004641494C4544202A2A0D0A000D0A2A2AF3
:10363C0020436F6D706C656D656E7461727920508E
:10364C00574D206368616E6E656C206F70656E20DF
:10365C0053554343455353202A2A0D0A00000000BA
:10366C000D0A2A2A20446561642074696D65206303
:10367C006F6E66696775726174696F6E2046414939
:10368C004C4544202A2A0D0A000000000D0A2A2A63
:10369C0020436F6D70617265206D61746368207377
:1036AC006574204641494C4544202A2A0D0A0000E5
:1036BC004475747920757064617465643A0A766136
:1036CC006C75655F753D25640A76616C75655F7612
:1036DC003D25640A76616C75655F773D25640D0A3E
:1036EC0000000000436F6D706C656D656E746172E7
:1036FC00792050574D204D6F646520256420696EEC
:10370C00697469616C697A65642073756363657348
:10371C007366756C6C790D0A0000000020205065F2
:10372C0072696F643A2030782530345820636F7595
:10373C006E74730D0A0000002020446561642054EF
:10374C00696D653A2030782530345820636F756E7A
:10375C0074730D0A000000000D0A2A2A20436F6DB5
:10376C00706C656D656E746172792050574D205385
:10377C0054415254206661696C6564202A2A0D0AF2
:10378C0000000000436F6D706C656D656E74617246
:10379C00792050574D2073746172746564202833FE
:1037AC002D7068617365206F75747075742061631A
:1037BC0074697665290D0A000D0A2A2A20436F6D5B
:1037CC00706C656D656E746172792050574D205325
:1037DC00544F50206661696C6564202A2A0D0A00DA
:1037EC00436F6D706C656D656E74617279205057A6
:1037FC004D2073746F7070656420616E6420616C11
:10380C006C206368616E6E656C7320636C6F73659E
:10381C00640D0A000D0A2A2A20496E76616C6964CF
:10382C0020646561642074696D65202830782530CA
:10383C00386C58293A206D757374206265203E20CF
:10384C003020616E64203C20706572696F642F3289
:10385C00203D202830782530386C5829202A2A0D14
:10386C000A0000000D0A2A2A20464F5220524132EB
:10387C0054313A20496E76616C69642064656164E8
:10388C002074696D65202830782530386C58293AB9
:10389C0020646561645F74696D65202B20706572AE
:1038AC00696F64202830782530386C582920657869
:1038BC0063656564732055494E5431365F4D4158EC
:1038CC00202A2A0D0A000000446561642074696D89
:1038DC0065207570646174656420746F2030782580
:1038EC0030345820636F756E74730D0A000000003D
:1038FC000D0A2A2A2044757479206379636C65203B
:10390C006F7574206F662072616E676520286D611B
:10391C007820313030252529202A2A0D0A00000074
:10392C000D0A2A2A2044757479206379636C65200A
:10393C00757064617465204641494C4544202A2ABF
:10394C000D0A0000447574792075706461746564A7
:10395C003A0A553D256425250976616C75655F75B8
:10396C003D2564200A563D256425250976616C7534
:10397C00655F763D2564200A573D2564252509762B
:10398C00616C75655F773D25640D0A000D0A3D3D40
:10399C003D20436F6D706C656D656E74617279203E
:1039AC0050574D205375622D4D656E75203D3D3D34
:1039BC000D0A0000456E746572203120746F2073FF
:1039CC00657420696E69740D0A000000456E74659B
:1039DC0072203220746F20736574204465616420FA
:1039EC0054696D650D0A0000456E746572203320B4
:1039FC00746F2073657420332D5068617365204497
:103A0C007574792028552C20562C2057290D0A0026
:103A1C00456E746572203420746F20537461727417
:103A2C0020436F6D706C656D656E7461727920509A
:103A3C00574D0D0A00000000456E7465722035204C
:103A4C00746F2053746F702020436F6D706C656DB4
:103A5C00656E746172792050574D0D0A000000009C
:103A6C00456E746572203620746F2053686F772012
:103A7C002043757272656E74205374617475730D86
:103A8C000A000000456E746572203020746F20525D
:103A9C00657475726E20746F204D61696E204D6572
:103AAC006E750D0A00000000436F6D702050574D6D
:103ABC0020496E7075743A20200000000D0A3D3DBF
:103ACC003D20456E746572203120746F20536574EF
:103ADC0020436F6D706C656D656E746172792050EA
:103AEC00574D204D4F44452031203D3D3D0D0A00A2
:103AFC000D0A3D3D3D20456E746572203220746F79
:103B0C002053657420436F6D706C656D656E7461C8
:103B1C0072792050574D204D4F44452032203D3D69
:103B2C003D0D0A000D0A3D3D3D20456E7465722029
:103B3C003320746F2053657420436F6D706C656D0A
:103B4C00656E746172792050574D204D4F4445205D
:103B5C0033203D3D3D0D0A000D0A3D3D3D20456E97
:103B6C00746572203420746F2053657420436F6D1C
:103B7C00706C656D656E746172792050574D204D77
:103B8C004F44452034203D3D3D0D0A000D0A43684D
:103B9C006F6F7365206D6F646520666F7220505770
:103BAC004D2831202D2033293A0D0A00496E6974B5
:103BBC00206661696C65640D0A0000000D0A456E93
:103BCC0074657220646561642074696D6520696E2A
:103BDC002068657820636F756E74733A000000007E
:103BEC00446561642074696D652073657420666139
:103BFC00696C65640D0A00000D0A456E74657220CF
:103C0C00552D706861736520647574792028302D8A
:103C1C003130302525293A0D0A000000456E7465B7
:103C2C007220562D70686173652064757479202834
:103C3C00302D3130302525293A0D0A00456E74653A
:103C4C007220572D70686173652064757479202813
:103C5C00302D3130302525293A0D0A004475747900
:103C6C00206379636C6520736574206661696C658B
:103C7C00640D0A00436F6D706C656D656E746172D6
:103C8C00792050574D207374617274206661696C91
:103C9C0065640D0A00000000436F6D706C656D6506
:103CAC006E746172792050574D20616C726561643D
:103CBC00792072756E6E696E670D0A00436F6D70B8
:103CCC006C656D656E746172792050574D206E6F06
:103CDC00742072756E6E696E670D0A000D0A2D2DBB
:103CEC002D20436F6D706C656D656E7461727920FB
:103CFC0050574D20537461747573202D2D2D0D0A62
:103D0C0000000000594553004E4F000020204D6F1D
:103D1C0064653A202564202052756E6E696E673A90
:103D2C002025730D0A0000002020506572696F6415
:103D3C003A20307825303458202044656164205472
:103D4C00696D653A203078253034580D0A00000032
:103D5C002020447574793A20553D25642525202072
:103D6C00563D256425252020573D256425250D0A23
:103D7C00000000004F4E00004F4646002020446FCC
:103D8C0075626C65204275666665723A2025730D06
:103D9C000A0000000D0A52657475726E696E672018
:103DAC00746F206D61696E206D656E752E2E2E0DF3
:103DBC000A0000000D0A496E76616C696420737507
:103DCC00622D6D656E75206F7074696F6E0D0A00D3
:103DDC000D0A2A2A20536C61766531206368616E66
:103DEC006E656C20286368312920525F4750545F00
:103DFC004F70656E204641494C4544202A2A0D0AD5
:103E0C00000000000A536C617665206368616E6E79
:103E1C00656C2031206F70656E65640D0A000000C2
:103E2C000D0A2A2A20536C61766532206368616E14
:103E3C006E656C20286368322920525F4750545FAE
:103E4C004F70656E204641494C4544202A2A0D0A84
:103E5C00000000000A536C617665206368616E6E29
:103E6C00656C2032206F70656E65640D0A00000071
:103E7C000D0A2A2A204D6173746572206368616E85
:103E8C006E656C20286368302920525F4750545F60
:103E9C004F70656E204641494C4544202A2A0D0A34
:103EAC00000000000A4D6173746572206368616ED6
:103EBC006E656C2030206F70656E65640D0A0000B5
:103ECC00446561642074696D6520636F6E66696713
:103EDC00757265643A2030782530386C5820636FE1
:103EEC00756E74730D0A0000506C656173652073F8
:103EFC00746F702050574D206265666F7265207329
:103F0C00657474696E6720646561642074696D659D
:103F1C000D0A00000D0A2A2A20552D706861736560
:103F2C0020447574794379636C65536574204641FC
:103F3C00494C4544202A2A0D0A0000000D0A2A2A61
:103F4C0020562D70686173652044757479437963CC
:103F5C006C65536574204641494C4544202A2A0D12
:103F6C000A0000000D0A2A2A20572D70686173651B
:103F7C0020447574794379636C65536574204641AC
:103F8C00494C4544202A2A0D0A000000C01A0000A2
:103F9C0082180000D418000020190000A619000097
:103FAC00FA1900001E1A0000636F6D705F70776D58
:103FBC005F696E6974000000636F6D705F70776D80
:103FCC005F73746172740000636F6D705F70776DF6
:103FDC005F73746F70000000636F6D705F70776D4E
:103FEC005F7365745F646561645F74696D6500001F
:103FFC00636F6D705F70776D5F7365745F647574FC
:10400C00795F33706861736500000000636F6D70D9
:10401C005F70776D5F70726F636573735F696E70DD
:10402C0075740000636F6D705F70776D5F6F706596
:10403C006E5F6368616E6E656C730000636F6D70AC
:10404C005F70776D5F7365745F636F6D70617265C0
:10405C005F6D6174636800000D0A2A2A20525F4765
:10406C0050545F4F70656E20415049204641494C79
:10407C004544202A2A0D0A005B4552525D20496EA8
:10408C002046756E6374696F6E3A20257328292C4F
:10409C00202573000D0A202A2A20525F4750545FB6
:1040AC00537461727420415049206661696C656477
:1040BC00202A2A200D0A00000D0A2A2A20525F47C6
:1040CC0050545F496E666F476574204150492066B5
:1040DC0061696C6564202A2A0D0A00000D0A2A2ADF
:1040EC0020525F4750545F447574794379636C6513
:1040FC0053657420415049206661696C6564202ABF
:10410C002A0D0A000D0A496E76616C696420496EAD
:10411C007075740D0A0000000D0A2A2A20525F47A0
:10412C0050545F436C6F7365204641494C454420A5
:10413C002A2A0D0A000000000D0A4D656E75204FED
:10414C007074696F6E7300000D0A312E20456E7409
:10415C006572203120666F7220506572696F6469D8
:10416C0063206D6F646500000D0A322E20456E745D
:10417C006572203220666F722050574D206D6F642F
:10418C00650000000D0A332E20456E7465722033D5
:10419C0020666F72204F6E652D53686F74206D6FA3
:1041AC00646500000D0A342E20456E74657220344F
:1041BC0020666F7220436F6D706C656D656E7461F7
:1041CC0072792050574D204D6F6465203120286343
:1041DC0072657374207472616E7366657229000067
:1041EC000D0A352E20456E746572203520666F726F
:1041FC0020436F6D706C656D656E746172792050C3
:10420C00574D204D6F64652032202874726F75678E
:10421C0068207472616E7366657229000D0A362E01
:10422C0020456E746572203620666F7220436F6D68
:10423C00706C656D656E746172792050574D204DB0
:10424C006F64652033202863726573742026207494
:10425C00726F7567682900000D0A372E20456E7441
:10426C006572203720666F7220436F6D706C656DC0
:10427C00656E746172792050574D204D6F646520C6
:10428C00342028696D6D656469617465290D0A00B7
:10429C005573657220496E7075743A2020000000C9
:1042AC000100000000000000000000000000000001
:1042BC0000000000000000000000000000000000F2
:1042CC000000FFFFFFFFFFFFDFDFDFDFDFDF0000AE
:1042DC0000000000000000000000000000000000D2
:1042EC0000000000000000000000000000000000C2
:1042FC0056115901000000000200000000A000004F
:10430C00000000000140000001FF00000000000060
:10431C0000000000AC4200000000000000000000A3
:10432C000000000000000000000000000000000081
:10433C0000000000000000000000FFFFFFFFFFFF77
:10434C00DFDFDFDFDFDF0000000000000000000027
:10435C000000000000000000000000000000000051
:10436C000000000000000000561159010000000080
:10437C000100000000A0000000000000014000004F
:10438C0002020000000000000000000024430000B6
:10439C00FFDF000000000000001000000000000023
:1043AC000000000000000000000000000000000001
:1043BC0001000000000000000000000000000000F0
:1043CC0000000000000000000000000000000000E1
:1043DC000000FFFFFFFFFFFFDFDFDFDFDFDF00009D
:1043EC0000000000000000000000000000000000C1
:1043FC000000000000000000000000009C430000D2
:10440C0056115901000000000C00000000A0000033
:10441C00000000000040000000FF00000000000051
:10442C0000000000BC430000008000000000000001
:10443C00008000000100000000800000020000006D
:10444C00100000000A000000100000000B0000002B
:10445C00100000000C000000008000000D000000A7
:10446C00008000000E000000100000000F00000093
:10447C000000010300010000000001030101000025
:10448C000000010302010000000001030301000011
:10449C0010000000040100000000010008010000F1
:1044AC000000010509010000000001050A010000DF
:1044BC00100000000B010000100000000C010000B7
:1044CC00004000000002000000000000010200009B
:1044DC00100000000602000010000000070200009F
:1044EC001000000008020000000001030C02000094
:1044FC00000001030D020000000001000003000099
:10450C00000001040103000000000104020300008C
:10451C000000010700040000000001070104000076
:10452C001000000002040000100000000304000052
:10453C000000011B070400001040000008040000EC
:10454C00100000000904000010000000000500002D
:10455C00100000000D090000040000000E0900000E
:10456C00100000000F090000280000003444000077
:10457C00000000000F0020202020202020202028D8
:10458C0028282828202020202020202020202020FF
:10459C002020202020208810101010101010101037
:1045AC001010101010100404040404040404040477
:1045BC0010101010101010414141414141010101F6
:1045CC0001010101010101010101010101010101CF
:1045DC0001101010101010424242424242020202DC
:1045EC00020202020202020202020202020202029F
:1045FC00021010101020000000000000000000004D
:10460C00000000000000000000000000000000009E
:10461C00000000000000000000000000000000008E
:10462C00000000000000000000000000000000007E
:10463C00000000000000000000000000000000006E
:10464C00000000000000000000000000000000005E
:10465C00000000000000000000000000000000004E
:10466C00000000000000000000000000000000003E
:10467C00000000000000000000000206362E322E62
:10468C00302D7263302B32303235303932392E6165
:10469C0066303530626330004275696C742077691E
:1046AC0074682052656E6573617320416476616E27
:1046BC0063656420466C657869626C6520536F662F
:1046CC007477617265205061636B616765207665F4
:1046DC007273696F6E20362E322E302D7263302B32
:1046EC0032303235303932392E61663035306263D2
:0246FC0030008C
:04470000F8B5C04602
:04470400F8B5C046FE
:044708002D0500007B
:04470C00FD040000A8
:040000030000008178
:00000001FF
