S0110000636F6D706C5F70776D2E7372656345
S113000000440020950000004D21000085220000DE
S11300108522000085220000852200008522000040
S11300200000000000000000000000008522000025
S113003085220000000000008522000085220000C7
S113004000000000000000000000000000000000AC
S10B0050B51F0000BF1F0000F2
S113005801000000880000000200000068000000A1
S1130068004000200040002000001040000002036F
S1130078004000200040002040040000000001036C
S113008814440020785000200000000310B500F04C
S11300982FF801F007FBFEE7F8B5060000240C274B
S11300A8124D2B68A34204D80024AB68A3420ED88F
S11300B8F8BD3A0062436B689B185A7AB24204D17D
S11300C805CB0021121A02F015F90134E8E7EB68B0
S11300D822019B185A7BB24205D118685A6899685C
S11300E8121A02F00FF90134DFE7C0465800000085
S11300F870B500241B4A1C4B00209A6000F09EFC3B
S113010801F08CFF012000F099FC012541F2000167
S1130118164B174A9C801A80164A20009A60164A81
S1130128DA60164A51849D80FFF7B6FF01F062FF3A
S1130138022000F083FC2800FFF7AEFF104D114B9E
S1130148ED1AAD10AC4205DB02F086F8002002F08F
S113015897F870BD0B4AA3009B181B689847013495
S1130168F0E7C0460000000000ED00E0000D00408C
S113017800A5FFFF0040002000440020FE6000406E
S10B01889C30000098300000D7
S1070400FFFFFFFFF8
S1070404DFDFFFFF34
S113044040F2084040F20843C0F20000C0F200034A
S113045010B5834205D040F20003C0F2000303B19B
S1130460984710BD40F2084040F20843C0F2000033
S1130470C0F200031B1A9A10D90F8918491010B53D
S113048029B140F20003C0F2000303B1984710BD44
S113049010B544F21444C2F20004237873B9FFF790
S11304A0CFFF40F20003C0F200032BB140F208403A
S11304B0C0F2000000E000BF0123237010BDC0465D
S11304C040F20003C0F2000310B54BB144F21841EE
S11304D040F20840C2F20001C0F2000000E000BF98
S11304E0FFF7C0FF10BDC0460369C268934201D83C
S11304F081685B18013B981A7047F7B50500C4681A
S1130500836840681F1B00190E000193A4189742CA
S113051007D83A0001F0FAFE019B6868E41A220049
S1130520F11901F0F3FEBFF35F8FEC60F7BD002318
S1130530F7B506001700C568019100933369B468E4
S11305409D4221D2013B5B1B641BBC4200D93C0091
S11305509C4200D91C00706822004019019901F0E6
S1130560D5FE009B2D191B190093019B3F1B1B19E2
S11305700193B368AB4200D10025BFF35F8FF560F0
S1130580002FDBD10098FEBD1B19DBE710B5154C1D
S1130590A8220021200001F0B1FE0323124A2361A6
S11305A06361124BA261E36140F6000323620023FE
S11305B0A3626362E36222660D4A62661022A26647
S11305C02367E3666367BFF35F8F0F33180009493E
S11305D0C21A5918097849B2A154013BF7D2BFF3A2
S11305E05F8F10BD404C00201E23000040440020BB
S11305F030440020D42C0000182370B5451C5D4302
S113060043431400114A0E009B18DB6AAD18012BFA
S11306100AD0022B14D023B92800FFF765FF8442C7
S113062008D90024200070BD2800FFF75DFF844234
S113063000D90400220031002800FFF75EFFF1E733
S113064022002800FFF773FF0400EBE7404C002072
S1130650F8B50B4B04001B780E001700532B01D088
S1130660FFF794FFEFF31085012181F310883A001E
S113067031002000FFF7C0FF85F31088F8BDC046A5
S1130680404C002010B5826804004068531C83422B
S113069005D820688154A360E3680133E360A2684D
S11306A063689A4209D121682069FFF7D1FFA368E2
S11306B0984203D001235B42E36010BD0023A36092
S11306C0FBE70000F0B515000400012285B000939B
S11306D00A9F0B9B0191A94217D2009902928A4268
S11306E000D202910122190011400391134201D159
S11306F07FB90027E3680126002B3BDB009B012B1D
S11307001CD9013B00936E43F8E7B1FBF5F10132CC
S1130710E1E720269B0703D5009B103603B1103E6A
S1130720029BBB42E6D231002000FFF7ABFFE36837
S1130730013F002BDEDB002FF2D1DAE7019BB3FB94
S1130740F6F39D42DFD9019B3200B3FBF6F35A4323
S1130750019920008A1A01920E4AD156FFF792FF9E
S1130760E368002B03DBB6FBF5F3AE4204D2039B34
S113077003B15FB905B0F0BD1E00E4E720212000FD
S1130780FFF780FFE368013F002BF3DB029B9F42EE
S1130790F4D8EFE7E52C0000F0B59DB00CAB07935F
S11307A04023089300230D001700059009930B9034
S11307B00A9300216956013531B90A9D002D00DDE7
S11307C023E10A981DB0F0BD252900D0C3E000261E
S11307D004201D390023EB566A1C2D2B17D012DC84
S11307E0232B1AD02B2B16D000240A210023EB56DE
S11307F06A1C18003038C0B2092810D84C43303C69
S113080015001C19F2E7302BEED1022300E001237E
S11308101E431500DEE70643FBE70E43F9E700211C
S1130820029103912E2B0BD10123EB562A2B12D1CB
S11308303B6802351A1D3A601B6802930123039337
S11308400021042369560A0001359A43682A17D106
S113085000216956F7E7150040F20A0C0121002235
S1130860AA56681C1300303BDBB2092BE8D8654656
S1130870029B03916B43303BD31805000293EEE7D0
S1130880782909DC6F290CDC63295FD018DC252961
S113089061D0582900D18BE00A9B002B00DB88E74C
S11308A08BE7703908000829F6D801F0EFFCA600A0
S11308B0F5FFF5FF8900F5FF7800F5FFF5FF8100EE
S11308C06429E9D13B680A211A1D3A601B681A00A1
S11308D00393DB17D2185A400123092A3FDC029AFA
S11308E004929A4200D204932CB1039B002B01DBA7
S11308F0730700D5013CB30701D5029B1BB1F30775
S113090001D484BB00240A9B002BC5DB039B002B72
S113091035DA2D215B42039307A8FFF7B3FE0A9B48
S1130920002BB9DB03233340022B03D1029B0BB909
S11309304CBB00240A9B002BAEDB0A22029B0399CA
S11309400196009407A8FFF7BDFEA5E700213B68C8
S11309501A1D3A60595607A8FFF794FE9CE792FBCC
S1130960F1F20133B9E7049B9C42CCD9202107A8BA
S1130970FFF788FE0A9B013C002BC2DAC3E773072A
S1130980D0D52B21C8E7049B9C42D3D9302107A89A
S1130990FFF778FE0A9B013C002BC9DACAE70A225A
S11309A039680B1D3B60029B019600940968C9E7F6
S11309B039680B1D3B60029B019600941022F5E7F9
S11309C03B681A1D3A601E6816B90023144E03933F
S11309D0340000216156002900D15DE7039B23B157
S11309E0029BF3189C4200D156E707A8FFF74AFE82
S11309F00A9B0134002BECDA4EE739680B1D3B608F
S1130A000023019308330093D8E7099C24B1220002
S1130A1005980CA9FFF71CFE64190A94D1E6C04698
S1130A20272300000EB403B503AB02CB01AA019344
S1130A30FFF7B2FE02B008BC03B0184710B500F0CF
S1130A40F7F810BD10B518B90122054B1A7010BD86
S1130A500228FCD10349044800F08AFEF7E7C046A7
S1130A6090C07E40BC2E00009C4F0020F7B50C4E79
S1130A703568102D08D80B4F2C01E0510135E419CD
S1130A8061602272E360356042B1074A01930091CC
S1130A90030006490020FFF7C5FFF7BD044AF5E748
S1130AA0E84C0020EC4C00202E23000038230000EA
S1130AB03323000010B5054C1C220021200001F056
S1130AC01DFC2000024900F0AFFE10BD9C4E00202A
S1130AD07C4E002010B5044C200000F053FE200092
S1130AE000F006FF10BDC0469C4E00200A4B80005B
S1130AF0C01842680020E03213689B059B0F012B4D
S1130B0006D11168C90103D410688001C00F584090
S1130B10012318407047C0469C4E0020F7B5324C64
S1130B20324B22000191050043CB43C243CB43C265
S1130B3003CB03C22E4B2F4A43CB43C243CB43C206
S1130B4003CB03C22C4B2D4A43CB43C243CB43C2FA
S1130B5003CB03C22A4EE1694022300001F0D6FBE8
S1130B60284B9C466246284B83CB83C283CB83C2EB
S1130B7081CB81C263464022D969244801F0C6FB77
S1130B80716B39B1224F2022380001F0BFFB4023A2
S1130B907763BB60174B194A1D701E4B15701A0002
S1130BA01D49E661257061C961C210001B49E0C995
S1130BB0E0C01D00183529001948E0C8E0C15C6098
S1130BC0184C0C49200019610C49D9611649E0C937
S1130BD0E0C0E0C9E0C060C960C063600199134B24
S1130BE02170A260E360F7BD584F0020242D00005F
S1130BF0B02D0000384F00203C2E0000184F00207C
S1130C00D84E00203C4E002004500020FC4D002013
S1130C10B84E0020784F0020182D0000A42D0000AD
S1130C20302E00007C4E0020F82C0000904F002055
S1130C30F0B54C498FB00020FFF7F4FE4A4900207C
S1130C40FFF7F0FE49490020FFF7ECFE4849002079
S1130C50FFF7E8FE0023474A474D01210C201360AB
S1130C60FFF75CFF2800454901F024F8040028B987
S1130C70AB68D863280000F053FE0400FFF71AFFA6
S1130C8004430026002C00D08AE03D4E01233700A7
S1130C9003932000FFF72AFF73680134DA6D394BA0
S1130CA0E4B25B6804365B685B689B1A5A42534142
S1130CB0039A03401A400392032CEAD17B6830481C
S1130CC0DC6A00F064FD0022844601217B68DA635B
S1130CD0DA6B0A42FCD0DA6B8A430121DA63DA6BFD
S1130CE00A42FCD0DA6B8A43DA63AB68264AD96BD2
S1130CF0C9074FD50121D86CDA6B8A43DA63224ADB
S1130D00D96B890700D47BE202251A6DD96B121ABC
S1130D10A943D9631B4B00215B685B685868DD6895
S1130D20431BA84208D30F0013B15E1EB24203D383
S1130D30591C91427F413900F02636033440134E4A
S1130D400090A41966427441039E0195344066469E
S1130D5077427E4126400E4000200D49FFF762FE97
S1130D601CE0C046C5280000F22800001729000036
S1130D7037290000E84C00205C4E00203C4E002047
S1130D809C4E00207C4E0020A18601000000F4FF50
S1130D9064290000013A002AA9D10026FFF79AFE2F
S1130DA0DB4800F04DFF002E00D12EE2D94B32007B
S1130DB0D949DA48FFF75AFE01210D20FFF7AEFEAC
S1130DC0FFF778FE0400002800D120E20024D44B71
S1130DD02200D449D448FFF749FE01210E20FFF731
S1130DE09DFEFFF767FE00250400D8B9CF4800F048
S1130DF0CEFC43425841CD4EC5B22000FFF776FEEB
S1130E0073680134DA6DCA4BE4B25B6804365B681C
S1130E105B689B1A5A42534103401D40032CECD19A
S1130E20FFF758FE02210E20FFF778FEFFF742FE7F
S1130E30002840D1BD4800F0AAFC43425841012299
S1130E40BB4B28405B685B685E68B84993005B18DD
S1130E501C6800232500E03529688905890F0129CC
S1130E600AD12968C901CF0F994205DA39002B68E4
S1130E709B01DB0F59400B00E16D0340246E002001
S1130E80B14202D1A01B4142484118400123D2186B
S1130E901840042AD9D1A54B5B68DC6AF0231B03F4
S1130EA01C40A44BE41863425C410440FFF712FE6B
S1130EB0002C00D0D7E100249F4B22009F49A0487A
S1130EC0FFF7D4FD01210F20FFF728FEFFF7F2FD05
S1130ED00700002800D1C8E100249A4B22009A4957
S1130EE09A48FFF7C3FD01210E20FFF717FEFFF715
S1130EF0E1FD002800D1ECE10022954B954996488C
S1130F00FFF7B4FD01210E20FFF708FEFFF7D2FD25
S1130F1050B9864B5B685A6E8C331B6813B19A4286
S1130F2000D9E2E1FFF7D6FD00228C4B8C498D48B5
S1130F30FFF79CFD01210E20FFF7F0FDFFF7BAFD3E
S1130F40002800D1D6E10024874B22008749884835
S1130F50FFF78CFD01210E20FFF7E0FDFFF7AAFD4E
S1130F60002800D1DBE10024824B2200824983481F
S1130F70FFF77CFD01210E20FFF7D0FDFFF79AFD5E
S1130F800500002800D1DCE100247D4B22007D49CE
S1130F907D48FFF76BFD01210F20FFF7BFFDFFF731
S1130FA089FD0400002800D100E20024774B2200D0
S1130FB077497848FFF75AFD01210F20FFF7AEFD6E
S1130FC0FFF778FD0400002800D110E20024724BE2
S1130FD0220072497248FFF749FD01210E20FFF7F4
S1130FE09DFDFFF767FD0600002800D120E20024E4
S1130FF06C4B22006C496D48FFF738FD40F60C53EA
S113100006AA13810E23012400259372082206AB3D
S11310109B180121585DFFF781FDFFF74BFD002868
S113102000D034E2FFF762FD07000120FFF75EFD08
S11310303840C6B20220FFF759FD30400440FFF7A4
S113104049FD0135032DE1D1002C00D121E2584B9B
S1131050220058495848FFF709FD02210E20FFF7E6
S11310605DFDFFF727FD002800D114E20024534B57
S1131070220053495348FFF7F9FC01210F20FFF7E1
S11310804DFDFFF717FD0600002800D129E20024DA
S11310904D4B22004D494E48FFF7E8FC01210E203C
S11310A0FFF73CFDFFF706FD0500002800D143E2F1
S11310B00024484B220048494848FFF7D7FC012147
S11310C00E20FFF72BFDFFF7F5FC0400002800D1EC
S11310D092E20022424B43484349FFF7C7FC434B8B
S11310E0434A186800231C00984200D0CDE24149CD
S11310F00020FFF797FC3D4B22001B683E4900206F
S1131100FFF790FC3D490020FFF78CFC0FB0F0BDC9
S11311105C4E00204B230000B0290000D2290000BF
S113112000240000DC290000FF2900009C4E002060
S11311307C4E00200000F2FF5E240000092A00001B
S1131140382A0000B7240000422A0000682A000060
S1131150F3240000722A0000892A000031250000CF
S1131160932A0000BC2A000079250000C62A00004A
S1131170F12A0000BE250000FB2A0000292B0000F4
S113118015260000332B00005A2B00009C2600007B
S1131190642B0000802B00009A2600008A2B00009C
S11311A0A42B0000E9260000AE2B0000CE2B00008B
S11311B009270000D82B0000F82B0000922700001C
S11311C0032C0000202C0000E72700002B2C00003B
S11311D04C2C000047280000572C00007F2C0000F6
S11311E0A2280000AB2C00008A2C0000E84C002050
S11311F0EC4C0020C5280000B62C00003729000064
S1131200013A002A00D07BE5C7E5E64BCFE5E64886
S113121000F0BDFAE44E434258413700C5B2200005
S1131220FFF764FC73680134DA6DE04BE4B25B6889
S113123004365B685B689B1A5A42534103401D4065
S1131240032CECD17B68DC6AF0231B031C40D84BD5
S1131250E41863425C412C40FFF73CFC002C00D1B5
S1131260B4E5D44BB4E5D44B27E6CF4E73683000D5
S1131270DD6A00F08CFAD14B0C225C6839000390D3
S11312800BA801F03BF8A40808A9300008940994BD
S11312900A9400F081FA01210700080000F020FF01
S11312A0F02273681203DB6C1540E41AC44A6342EB
S11312B05C41039BAD186A4255413B435A4253413A
S11312C02C401C40FFF706FC002C00D104E6BD4B6B
S11312D004E6B54B5B688C331C68FFF7FBFB402CC2
S11312E000D009E60122B84B08E6FFF7F3FB012220
S11312F0B64B1BE68021AC4B5A688C3213681160E4
S11313001468403B803C5A425341624254411C4061
S1131310FFF7E0FB002C00D115E6AD4B15E6A24B20
S11313205B681A008C33883214681B68403B5A424D
S113133053411C40FFF7CEFB002C00D113E6A54B14
S113134013E6994F380000F022FA9C4B0C22290036
S113135003900BA85C6800F0D1FF0323A60865087E
S11313605C4308A9A4083800089609950A9400F07B
S113137013FA7B68DA6DBB68B21AD96DFB68564202
S11313807241DB6D6E1AE51A039C71424E416B4249
S11313905D41044363425C41164035402C40FFF7F5
S11313A099FB002C00D1EFE58B4BEFE57E4F834B8F
S11313B038005E6800F0EBF905000C2221000BA850
S11313C000F09CFF380008A9089609960A9600F0D8
S11313D0E3F97B686A425541DB6DB34264412C40BA
S11313E0FFF778FB002C00D1DFE57C4BDFE56E4F87
S11313F00126380000F0CBF90C22210005000BA8CF
S113140000F07CFF380008A9089609960A9600F0B7
S1131410C3F97B680543DB6D6A4255419E426441D2
S11314202C40FFF757FB002C00D1CFE56C4BCFE5E8
S1131430632427006425614B02005B685F43B7FBAC
S1131440F5F5AB4242415848D3B20393BC42A441A0
S113145000F09DF9039B0C223100049064420BA818
S11314601C4000F04BFF504808A9089509950A95BF
S113147000F092F9049B034318004342584104408E
S1131480FFF728FB002C00D1B1E5564BB1E5002451
S1131490D7E5554BDCE501221400434993005B1862
S11314A0186800230500E03529688905890F01299A
S11314B008D12E68F601F10F9E4203DA2B689B01D6
S11314C0DB0F4B40016E0132481E81410B401C4032
S11314D0042AE2D1FFF7FEFA002C00D1C6E5434B03
S11314E0C6E5314F380000F052F9344B0C225C68E9
S11314F00323B4FBF3F4310005000BA800F0FEFE57
S113150008A93800089409940A9400F045F90121C7
S11315100600080000F0E4FD7B683543DB6C6A429A
S11315205541E41A63425C412C40FFF7D3FA002C86
S113153000D1ACE52E4BACE51B4F380000F027F989
S11315401E4B0C22290003900BA85C6800F0D6FE09
S11315500323A60865085C4308A9A4083800089674
S113156009950A9400F018F97B68DA6DBB68B21A21
S1131570D96DFB6856427241DB6D6E1AE51A039C05
S113158071424E416B425D41044363425C411640EB
S113159035402C40FFF79EFA002C00D188E5154B0E
S11315A088E5C046902300009C4E00207C4E00201D
S11315B00000F3FFC62300002C240000584F002035
S11315C00000F1FF81240000D82400000E25000053
S11315D04E2500009A250000E62500003B26000069
S11315E06B260000B6260000372700005F270000A6
S11315F0BA27000012280000294E2700300000F00E
S1131600C6F843425841C3B20593264B40F2E83131
S11316100A205D6800F064FD7368A4469A6C049324
S1131620260040F2D0730121681E403D03940690C9
S113163007951500049A926C012A00D80E000698AA
S1131640824229D2012A01D80C0008E0AA421AD801
S113165000D28C46402AF7D907988242F4D2013B43
S1131660002BE6D12EB127B1039A12B163465B4237
S11316702340059C1C40FFF72DFA002C00D128E5DF
S11316800122094B27E50F00E4E7117A01334D1ECF
S1131690A9411032641827E50391012ADAD8D3E767
S11316A09C4E0020584F00206A28000010B5FFF718
S11316B0C5F9002010BD0000EFF31080012383F36F
S11316C01088064B196819B9054AD1704031D17098
S11316D01A6801321A6080F310887047585000204D
S11316E0000D0440EFF31081012383F31088074BAE
S11316F01A6812B11A68013A1A601A681AB9044BC6
S1131700DA708032DA7081F3108870475850002004
S1131710000D0440030A70B5C0B2084D1B01CA0392
S113172007D51A189200AE58054C26400C40AE500E
S1131730AC501B189B00E95070BDC0460008044023
S1131740FFFFFEFF70B505000024FFF7B5FF2B88EF
S1131750A34202D8FFF7C6FF70BD6B68E2009B1876
S1131760988819680134FFF7D5FFA4B2EFE70000A9
S113177010B5034B03600800FFF7E4FF002010BD21
S113178054524F504368026900209A60704743687E
S1131790026900205A6070474AF2005370B54268EB
S11317A0136082681360C268136083695B685B6856
S11317B01A7813000C3B032B1CD80022194BD318A6
S11317C01B789B00C418CB1865681E68EE65057D00
S11317D0022D02D16468DB6823660132032AEDD14D
S11317E04AF201534268136082681360C2680020A1
S11317F0136070BD0500031D10351E680C68746508
S11318001E68B465047D022C01D0062A04D11E682A
S1131810CC68F4651E68346604330431AB42ECD101
S1131820DEE7C046063000000B00F7B506000D00E9
S113183010330F1D041D01933B6803CB00F03AFAEB
S11318404AF200523B681B689B6823601A602B783D
S1131850022B05D1A02122680903136C0B431364E6
S11318606B685B6819780B000C3B032B24D83B682E
S113187028785B682268DB6802282ED10E3901299A
S11318802BD8E03210681749084040F20011014398
S11318901160802122684904E0321068014311601C
S11318A022681148E0321168014011602268D36453
S11318B02268D365226813664AF2015208CC0437C1
S11318C01A60019B9F42B7D16B69002033612B786A
S11318D0B5613375054B3360FEBDD3642268D365AF
S11318E0EAE7C046FFFCFFFFFFFFFFFD335450470C
S11318F070B5002405004368026904609A60AB690E
S1131900A2009B185B680134186800F099F9032C55
S1131910F5D1002070BD8368C26800209A607047CA
S11319208368C26800205A6070478368C2680020D8
S1131930DA6070478022F0B543681206DB69866876
S1131940D9685C689D68144315430A434AF2005100
S1131950376831608668394375618568AA61826831
S1131960146182681C69546282685B69936282684C
S113197000201160F0BD4AF2005210B583681C6863
S11319801A6043681A780B00032A00D84B1E826839
S11319909366426812782AB9826849080139516508
S11319A0826891658268D16AC90707D45366AA22FE
S11319B08368D2031A648368C268DA604AF2005307
S11319C0826823430020136010BD4AF2005330B5EF
S11319D0846812322568236084689200A41801394F
S11319E0616082682B430020136030BD8368DB6A2A
S11319F0DB07DB0F0B71836800209B6C0B60704767
S1131A004161C261836100207047802382681B06A4
S1131A101361826853618268936100238268536210
S1131A2082689362704770B54AF200550400836877
S1131A301E681D60FFF7E9FFA368354300201D60A1
S1131A4070BDF0B586684068B46E0078032800D88D
S1131A5001344D424D410DB9A1421CD3DB070CD4D6
S1131A60736BDB06DB0E03280AD9180901238343B1
S1131A7069B9B3B902235360F0BD736BDB02F1E7BC
S1131A800C200340043B58424341DBB2F0E7002BF7
S1131A90F0D10323EFE7032801D91160ECE7013902
S1131AA0FBE7002CF5D1E5E70123F0B55B4287B0F5
S1131AB00493032700230500059316001300174021
S1131AC004AA0291FFF7BDFFAB6805991A68039257
S1131AD04AF200521A60AB681C6B0193B9B940F228
S1131AE0020C0423300700D463466246049816426D
S1131AF02AD040F2120C9C44624692009446019A09
S1131B00133362445060AA689B00D318586073066C
S1131B1005D58023AA68DB03106C03431364012FEB
S1131B2026D0154B23400C041C43022E13D129B19B
S1131B3001232800029904AAFFF783FF0F4B2340D7
S1131B40059C24061C4308E0DB19019A12339B0010
S1131B50D2185060DBE7002FF0D1AB6800201C6383
S1131B604AF20053039A1343AA68136007B0F0BD06
S1131B70022EDCD0E2E7C046FFFFFCFFFFFFFFFCC4
S1131B80F0B50500806987B08C46019203AC88B13A
S1131B9023000200C2CAC2C363460371019B83606F
S1131BA0EB6903606B699847AB690BB123CC23C322
S1131BB007B0F0BD2000EFE710B5002801DB00F00E
S1131BC047FB10BDF7B50700EFF30384103C64B284
S1131BD0200000F0DBFA134BA200D6587168CB69E1
S1131BE030331B78CBB93A000125B3681232920026
S1131BF09B185B6801930B78012B05D13000FFF72C
S1131C0004FF200000F0D0FA73692BB1E919300009
S1131C10019AC9B2FFF7B4FFF7BD0023042501936D
S1131C20E9E7C0465C50002010B5041E05DB00F057
S1131C30FFFA0022014BA400E25010BD5C500020CA
S1131C4070B50400436812201856DD69FFF7ECFFF5
S1131C501F206B1D1856FFF7E7FF1F20AB1D1856FA
S1131C60FFF7E2FF6B6B1BB101201856FFF7DCFF97
S1131C7000204AF20053A268206011681360A26831
S1131C80E5680B439560A2685063A268136070BD59
S1131C900A018B0113430922022805D0063A0228BF
S1131CA002D8033201B1033240F200101343184347
S1131CB0704700000122F0B50D000B7C1100994023
S1131CC04560C16002742B7CA54904005B180021A7
S1131CD01B0283606B6985B04361AB698161C36139
S1131CE0EE69EFF3108082F3108840279D4BDA6889
S1131CF0BA43DA60DB6880F310884AF20052A368C2
S1131D001A60A368D962A368D963A36899642B7A1B
S1131D1069682A78DB054F1E032A00D00BE1802274
S1131D2052021343A2682000D362FFF76EFEA36839
S1131D30B269DA61A368F2691A62A3689F66A3684C
S1131D405F66B36B2A78009301235B4202930023FE
S1131D500393002A00D0F5E06B685B08013B029313
S1131D60A268029B5365A26893652A78032A03D963
S1131D70A268D365A2681366039B1A041B061A4360
S1131D80B36B019293B9337833B171782878FFF744
S1131D907FFF009B03430093B3783BB1F17828782D
S1131DA0FFF776FF009B0004034300936368DB693D
S1131DB0190030310A78D20703D59A6AA068013A2B
S1131DC0C2640A78920703D5DB6AA268013B1365F3
S1131DD001232A7C93401B0702D00022A3685A6483
S1131DE0776BA168002F00D1B5E0FB78BA781B07A8
S1131DF01206134301229C461300287C83401800DA
S1131E00000728D0B86810B9FA68501E824188319A
S1131E100A60A268B9688C3211600122297C8A4068
S1131E20120718D06346A268F968903211603A7EAE
S1131E30787E920100020243B87EA1680003024347
S1131E404A643A793969120413439C46A2681167BB
S1131E50A2687969D1676346A2689363B36B3BB99F
S1131E60FB7E3A7F5B0252061343009A1A430092A8
S1131E70B36B4BB9731CB21CDB7FD27F5B0352077D
S1131E801343009A1A430092330030331B785A1ECE
S1131E909341354A5B421340AA22D2039B18A2689D
S1131EA013642B78012B04D10023A268D364A268A5
S1131EB01365A368009A12205A633300A2683C3366
S1131EC01B78D16A1B010B4331003D31097849016C
S1131ED00B43D36203230199A2680B4313630123C9
S1131EE0A2680B431363A368E268DA604AF2015202
S1131EF0A3681A60697C22002856FFF75DFE1F2044
S1131F00F31CD97F731D18562200FFF755FE1F20BE
S1131F10331D06362200D97F3056FFF74DFE2FB110
S1131F200120220039783856FFF746FE00200F4B77
S1131F30236005B0F0BD032A00D8F3E612040F00B5
S1131F401343EFE6012A00D10AE72000E96802AA58
S1131F50FFF777FD04E78F63A36888331F6087E783
S1131F6090084000FC6F04400000FBFF5450470001
S1131F7030B54268836812785B6E032A00D8013357
S1131F8007258B608368DA6A084B5201186A084B8C
S1131F90040E1B682C40A3402840C340120FD340BA
S1131FA04B60012300200B7030BDC04600E00140AF
S1131FB07450002010B50020FFF704FE10BD10B5CA
S1131FC00120FFF7FFFD10BD094B1A7882420DD0A6
S1131FD0084A12781AB908490A78D207FCD51A783F
S1131FE0D206FCD418701A78D206FCD47047C046C6
S1131FF0A0E0014036E001403CE00140064B0749C7
S1132000DA1DD27F1B6A920052585B015B0FDA40E3
S11320101300034A1360704700E0014000440020AD
S11320207450002040F2FE3370B51C4A1C4C012150
S1132030E25243F6C8731B4A0025D1541A4B1B4A7B
S11320401D611A601A4A5A6048F200029A60194ADD
S1132050DA60FFF7D3FF40F213430922E554164B2D
S113206028001A70154B063A1A70FFF7ADFF144B8F
S1132070144A1D701378DB07FCD50123124A137030
S1132080124A13700022FF332362114BDA77FFF7F1
S1132090B5FF40F2FE330F4AE25270BD03A5FFFFC5
S11320A000E0014000C07E40004400200090D003C6
S11320B000127A00002D3101A2E00140A5E00140A8
S11320C036E001403CE0014031E00140C4FF7E4085
S11320D007E0014000A5FFFF01380028FCD170474C
S11320E070B54143164B40F2E83208001E680C00FC
S11320F00023002100F0D4F8124D134AB5FBF6F585
S113210059B9B0FBF5F00423964200D90233B0FB71
S1132110F3F008B1FFF7E0FF70BD0423964200D945
S113212002335D4340F2E832B4FBF5F000230021B2
S113213000F0B6F80029ECD001204042EAE7C0469E
S11321407450002000CA9A3B0048E801F8B540F2F8
S11321504013002401270A4E0A4A758CD35A1D40A5
S11321602B00E3403B4206D0074AA3009B181B68A0
S11321700BB1E0B2984701340D2CF1D17586F8BD4E
S1132180FE6000400060004024500020044BC0303A
S11321908000C25803490A40C250C3587047C04621
S11321A000600040FFFFFEFF10B50400FFF7EEFFE4
S11321B0BFF35F8F1F22630914401E3AA2400249F5
S11321C060339B005A5010BD00E100E0F7B5FF27D3
S11321D0019283080A4A03269B009B183A0040F2A6
S11321E000350640F6008901B2403940B1405C59DF
S11321F0800094430C435C51019A024B1A50F7BD82
S113220000E100E05C5000201F22430910401E3A08
S1132210824002499B005A507047C04600E100E0EA
S113222010B50400FFF7C0FF2000FFF7EDFF10BD5D
S11322301F22430910401E3A8240044920339B0068
S11322405A50BFF34F8FBFF36F8F704700E100E028
S113225010B50400FFF7BAFF2000FFF7E1FF10BD3F
S113226000230648064A9A18117819B11A00C03298
S1132270920011500133062BF4D1704700600040E6
S11322800030000000BE70477047000003B4714680
S1132290490840004900095E49008E4403BC704768
S11322A0F0B54FF6FF750400CE462C404746154066
S11322B00E002900994680B5130C0700000C6143F9
S11322C04543584363430C0C5B19E4188C46A54200
S11322D003D980235B0298464044230C61461B18B3
S11322E04FF6FF7008404946564379432404891940
S11322F02018C918C0BCB946B046F0BD0300821806
S1132300934200D1704719700133F9E7002310B5E7
S11323109A4200D110BDCC5CC4540133F8E7546533
S1132320726D696E616C00284E554C4C2900504109
S11323305353004641494C005B25735D2025733A95
S1132340202573202D2025730D0A004D6F64652010
S113235031206F70656E65642C20475442455232BB
S11323602073696E676C652C20475443522E4D448C
S11323703D3078432C20647574792D636170207727
S1132380697468696E20746F6C6572616E63650050
S11323904D6F64652031206F70656E202F2072654B
S11323A0676973746572202F20647574792D636175
S11323B07020766572696669636174696F6E206600
S11323C061696C6564004D6F64652032206F7065CF
S11323D06E65642C204754424552322073696E67FF
S11323E06C65206275666665722C20475443522ED4
S11323F04D443D30784420766572696669656400B1
S11324004D6F64652032206F70656E206F7220728C
S1132410656769737465722076657269666963615C
S113242074696F6E206661696C6564004D6F6465E4
S113243020332073696E676C652F646F75626C65F9
S1132440206275666665722C20475443522E4D44B3
S11324503D307845207665726966696564004D6F24
S1132460646520332062756666657220636F6E66EC
S1132470696775726174696F6E206661696C656401
S1132480004D6F6465203420475443522E4D443D23
S11324903078462C20696D6D6564696174652047E8
S11324A054434352442D3E4754434352412076659E
S11324B0726966696564004D6F6465203420696DD6
S11324C06D656469617465207472616E73666572AA
S11324D0206661696C656400475444565520636FF7
S11324E06E6669677572656420636F727265637482
S11324F06C7900475444565520636F6E666967755E
S1132500726174696F6E206661696C65640044650C
S113251061642074696D652076616C7565207769E6
S11325207468696E2076616C69642072616E676597
S113253000446561642074696D652076616C75651D
S1132540206F7574206F662072616E676500475452
S113255044565520646972656374207772697465A2
S113256020766572696669656420286E6F206275DD
S113257066666572696E6729004754445655206241
S11325807566666572206265686176696F7220752A
S11325906E65787065637465640044656164207475
S11325A0696D65206F757470757420656E61626CF9
S11325B065642C204754445655203E203000446521
S11325C061642074696D65206775617264206E6F43
S11325D0742070726F7065726C7920636F6E6669B7
S11325E0677572656400546872656520696E646518
S11325F070656E64656E7420647574792076616CA0
S11326007565732073657420616E642076657269E4
S11326106669656400496E646570656E64656E74B0
S11326202064757479206379636C6520636F6E74BC
S1132630726F6C206661696C6564004475747920FE
S113264073657420746F20706572696F642028301C
S11326502520706F7369746976652070686173658D
S11326602920766572696669656400447574792009
S113267073657420746F206D696E202831303025A5
S113268020706F7369746976652070686173652959
S1132690207665726966696564003130302520648E
S11326A0757479206379636C65207465737420662E
S11326B061696C65640075696E7433325F74206996
S11326C06E7465726D6564696174652061726974A4
S11326D0686D657469632070726576656E747320C5
S11326E06F766572666C6F77004F766572666C6F95
S11326F0772070726576656E74696F6E2074657389
S113270074206661696C6564004754424552322006
S113271073696E676C65206275666665722076659E
S113272072696669656420666F72204D6F646573B3
S113273020312F322F330053696E676C6520627528
S11327406666657220636861696E20766572696683
S113275069636174696F6E206661696C65640047C2
S1132760544245523220646F75626C65206275660E
S1132770666572202B2047544343524620696E6994
S11327807469616C697A65642076657269666965E5
S11327906400446F75626C652062756666657220BC
S11327A0636861696E2076657269666963617469DC
S11327B06F6E206661696C656400475443435244FC
S11327C0202D3E2047544343524120696D6D65647A
S11327D069617465207472616E73666572207665D2
S11327E0726966696564004D6F646520342062799E
S11327F070617373207472616E736665722076659E
S113280072696669636174696F6E206661696C657B
S1132810640057206368616E6E656C20777269741A
S113282074656E206C6173742C20616C6C2070680C
S113283061736573207570646174656420636F727D
S1132840726563746C79005772697465206F726481
S11328506572696E67207665726966696361746919
S11328606F6E206661696C656400416C6C20352074
S113287073656374696F6E73202874726F7567680B
S11328802F75702F63726573742F646F776E2F6466
S113289065616462616E6429206F62736572766536
S11328A064004E6F7420616C6C20636F756E746984
S11328B06E672073656374696F6E73206F627365EE
S11328C072766564000D0A3D3D3D3D3D3D3D3D3D17
S11328D03D3D3D3D3D3D3D3D3D3D3D3D3D3D3D3D24
S11328E03D3D3D3D3D3D3D3D3D3D3D3D3D3D3D0D44
S11328F00A00202047505420436F6D706C656D654D
S11329006E746172792050574D205465737420534E
S1132910756974650D0A00202046535052412D35C7
S1132920373235202F204653502076362E352E3020
S1132930207263300D0A003D3D3D3D3D3D3D3D3D32
S11329403D3D3D3D3D3D3D3D3D3D3D3D3D3D3D3DB3
S11329503D3D3D3D3D3D3D3D3D3D3D3D3D3D3D0DD3
S11329600A0D0A0020205B5245512D4F4D2D303168
S11329705D20447574792D6361703A206D656173CF
S1132980757265643D256C752C206578706563747B
S113299065643D256C752028706572696F643D25FA
S11329A06C752C20647574793D256C75290D0A00AD
S11329B04F7065726174696E67206D6F6465203154
S11329C020286372657374207472616E7366657215
S11329D029005245512D4F4D2D3031004F706572F5
S11329E06174696E67206D6F64652032202874728B
S11329F06F756768207472616E7366657229005220
S1132A0045512D4F4D2D3032004F70657261746900
S1132A106E67206D6F64652033202863726573745C
S1132A202B74726F7567682C2073696E676C652BE5
S1132A30646F75626C6529005245512D4F4D2D30E0
S1132A4033004F7065726174696E67206D6F6465E1
S1132A5020342028696D6D65646961746520747221
S1132A60616E7366657229005245512D4F4D2D30AC
S1132A703400436F6E666967757261626C652064C9
S1132A806561642074696D65005245512D44542D6F
S1132A90303500446561642074696D652076616C2D
S1132AA069642072616E6765202830203C20475499
S1132AB0445655203C204754505229005245512D2C
S1132AC044542D3036004E6F206275666665722060
S1132AD06F7065726174696F6E20666F72206465D1
S1132AE061642074696D65207265676973746572C9
S1132AF0005245512D44542D3037004E6F6E2D6FCA
S1132B007665726C617070696E6720677561726456
S1132B10202870726576656E742073686F6F742DEB
S1132B207468726F75676829005245512D44542D9D
S1132B30303800496E646570656E64656E74206437
S1132B40757479206379636C6520636F6E74726F3A
S1132B506C2028552F562F5729005245512D444398
S1132B602D30390030252064757479207768656EBE
S1132B7020475443435241203E3D20475450520085
S1132B805245512D44432D313000313030252064DD
S1132B90757479207768656E204754434352412009
S1132BA03D2030005245512D44432D3131005072A7
S1132BB06576656E742031362D626974206F766592
S1132BC072666C6F77202852413254312900524585
S1132BD0512D44432D31320053696E676C65206278
S1132BE0756666657220636861696E20284D6F643E
S1132BF0657320312D3329005245512D4255462D00
S1132C00313300446F75626C652062756666657267
S1132C1020636861696E20284D6F64652033290044
S1132C205245512D4255462D3134004D6F64652077
S1132C303420696D6D6564696174652062797061C1
S1132C407373207472616E73666572005245512D00
S1132C504255462D313500536C61766520636861B9
S1132C606E6E656C2032207772697465206F7264B1
S1132C706572696E67202857206C6173742900524D
S1132C8045512D4255462D313600466976652063FF
S1132C906F756E74696E67206F7065726174696FA9
S1132CA06E2073656374696F6E73005245512D53C2
S1132CB045432D3137002020526573756C74733A87
S1132CC020256C75202F20256C7520706173736529
S1132CD0640D0A00000000000000545452205245C4
S1132CE0474745530030313233343536373839416C
S1132CF0424344454600000001000000182D000036
S1132D00A42D0000302E0000000000000700000089
S1132D100000000000000000A44F0020242D00004B
S1132D200C3000000C00000000A0000000000000B7
S1132D300060000000FFDF00000000000000000051
S1132D40442D00000100010000000000000000000C
S1132D50000000000000000000000000000000006F
S1132D60000000000000FFFFDFDF000000000000A3
S1132D700000000000000000842D0000000000009E
S1132D8000000000FFDF0000000000000000000061
S1132D90000000000000000000000000000000002F
S1132DA000000000C44F0020B02D00000C300000D3
S1132DB00C00000000A00000000000000060000003
S1132DC001FFDF000000000000000000D02D000023
S1132DD001000100000000000000000000000000ED
S1132DE000000000000000000000000000000000DF
S1132DF00000FFFFDFDF0000000000000000000013
S1132E0000000000102E0000000000000000000080
S1132E10FFDF0000000000000000000000000000D0
S1132E20000000000000000000000000000000009E
S1132E30E44F00203C2E00000C3000000C00000089
S1132E4000A00000000000000060000002FFDF009E
S1132E5000000000000000005C2E000001000100E2
S1132E60000000000000000000000000000000005E
S1132E700000000000000000000000000000FFFF50
S1132E80DFDF000000000000000000000000000080
S1132E909C2E00000000000000000000FFDF000086
S1132EA0000000000000000000000000000000001E
S1132EB000000000000000000000000027000000E7
S1132EC0C82E000000000000008000000000000088
S1132ED000800000010000000080000002000000EB
S1132EE0100000000A000000100000000B000000A9
S1132EF0100000000C000000008000000D00000025
S1132F00008000000E000000100000000F00000010
S1132F1000000103000100000000010301010000A2
S1132F20000001030201000000000103030100008E
S1132F30100000000401000000000100080100006E
S1132F400000010509010000000001050A0100005C
S1132F50100000000B010000100000000C01000034
S1132F600040000000020000000000000102000018
S1132F70100000000602000010000000070200001C
S1132F801000000008020000000001030C02000011
S1132F90000001030D020000000001000003000016
S1132FA0000001040103000000000104020300000A
S1132FB000000103000400001000000002040000EF
S1132FC010000000030400000000011B07040000BF
S1132FD01040000008040000100000000904000074
S1132FE01000000000050000100000000D090000A2
S1132FF0040000000E090000100000000F0900008A
S1133000000000001916000102000000B51C0000B9
S113301021190000171900002B19000035190000B0
S1133020271A000077190000A91A0000CB19000024
S1133030711F0000ED190000011A0000411C00007E
S11330404275696C7420776974682052656E657383
S1133050617320416476616E63656420466C6578B3
S113306069626C6520536F66747761726520506184
S1133070636B6167652076657273696F6E20362EA7
S1133080322E3000362E322E3000000000000206B0
S1073090F8B5C04685
S1073094F8B5C04681
S1073098C10400006B
S107309C9104000097
S903009567
