S0110000636F6D706C5F70776D2E7372656345
S113000000440020950000000D2000004521000060
S11300104521000045210000452100004521000044
S11300200000000000000000000000004521000066
S1130030452100000000000045210000452100008A
S113004000000000000000000000000000000000AC
S10B0050751E00007F1E000074
S113005801000000880000000200000068000000A1
S1130068004000200040002000001040000002036F
S1130078004000200040002040040000000001036C
S113008814440020D84F00200000000310B500F0ED
S11300982FF801F067FAFEE7F8B5060000240C27EC
S11300A8124D2B68A34204D80024AB68A3420ED88F
S11300B8F8BD3A0062436B689B185A7AB24204D17D
S11300C805CB0021121A02F075F80134E8E7EB6851
S11300D822019B185A7BB24205D118685A6899685C
S11300E8121A02F06FF80134DFE7C0465800000026
S11300F870B500241B4A1C4B00209A6000F09EFC3B
S113010801F0ECFE012000F099FC012541F2000108
S1130118164B174A9C801A80164A20009A60164A81
S1130128DA60164A51849D80FFF7B6FF01F0C2FEDB
S1130138022000F083FC2800FFF7AEFF104D114B9E
S1130148ED1AAD10AC4205DB01F0E6FF002001F02A
S1130158F7FF70BD0B4AA3009B181B68984701342E
S1130168F0E7C0460000000000ED00E0000D00408C
S113017800A5FFFF0040002000440020FE6000406E
S10B0188F82E0000F42E000023
S1070400FFFFFFFFF8
S1070404DFDFFFFF34
S113044040F2084040F20843C0F20000C0F200034A
S113045010B5834205D040F20003C0F2000303B19B
S1130460984710BD40F2084040F20843C0F2000033
S1130470C0F200031B1A9A10D90F8918491010B53D
S113048029B140F20003C0F2000303B1984710BD44
S113049010B544F21444C2F20004237873B9FFF790
S11304A0CFFF40F20003C0F200032BB140F208403A
S11304B0C0F2000000E000BF0123237010BDC0465D
S11304C040F20003C0F2000310B54BB144F21841EE
S11304D040F20840C2F20001C0F2000000E000BF98
S11304E0FFF7C0FF10BDC0460369C268934201D83C
S11304F081685B18013B981A7047F7B50500C4681A
S1130500836840681F1B00190E000193A4189742CA
S113051007D83A0001F05AFE019B6868E41A2200E9
S1130520F11901F053FEBFF35F8FEC60F7BD0023B8
S1130530F7B506001700C568019100933369B468E4
S11305409D4221D2013B5B1B641BBC4200D93C0091
S11305509C4200D91C00706822004019019901F0E6
S113056035FE009B2D191B190093019B3F1B1B1982
S11305700193B368AB4200D10025BFF35F8FF560F0
S1130580002FDBD10098FEBD1B19DBE710B5154C1D
S1130590A8220021200001F011FE0323124A236146
S11305A06361124BA261E36140F6000323620023FE
S11305B0A3626362E36222660D4A62661022A26647
S11305C02367E3666367BFF35F8F0F33180009493E
S11305D0C21A5918097849B2A154013BF7D2BFF3A2
S11305E05F8F10BD404C0020DE21000040440020FD
S11305F030440020332B0000182370B5451C5D43A4
S113060043431400114A0E009B18DB6AAD18012BFA
S11306100AD0022B14D023B92800FFF765FF8442C7
S113062008D90024200070BD2800FFF75DFF844234
S113063000D90400220031002800FFF75EFFF1E733
S113064022002800FFF773FF0400EBE7404C002072
S1130650F8B50B4B04001B780E001700532B01D088
S1130660FFF794FFEFF31085012181F310883A001E
S113067031002000FFF7C0FF85F31088F8BDC046A5
S1130680404C002010B5826804004068531C83422B
S113069005D820688154A360E3680133E360A2684D
S11306A063689A4209D121682069FFF7D1FFA368E2
S11306B0984203D001235B42E36010BD0023A36092
S11306C0FBE70000F0B515000400012285B000939B
S11306D00A9F0B9B0191A94217D2009902928A4268
S11306E000D202910122190011400391134201D159
S11306F07FB90027E3680126002B3BDB009B012B1D
S11307001CD9013B00936E43F8E7B1FBF5F10132CC
S1130710E1E720269B0703D5009B103603B1103E6A
S1130720029BBB42E6D231002000FFF7ABFFE36837
S1130730013F002BDEDB002FF2D1DAE7019BB3FB94
S1130740F6F39D42DFD9019B3200B3FBF6F35A4323
S1130750019920008A1A01920E4AD156FFF792FF9E
S1130760E368002B03DBB6FBF5F3AE4204D2039B34
S113077003B15FB905B0F0BD1E00E4E720212000FD
S1130780FFF780FFE368013F002BF3DB029B9F42EE
S1130790F4D8EFE7442B0000F0B59DB00CAB079301
S11307A04023089300230D001700059009930B9034
S11307B00A9300216956013531B90A9D002D00DDE7
S11307C023E10A981DB0F0BD252900D0C3E000261E
S11307D004201D390023EB566A1C2D2B17D012DC84
S11307E0232B1AD02B2B16D000240A210023EB56DE
S11307F06A1C18003038C0B2092810D84C43303C69
S113080015001C19F2E7302BEED1022300E001237E
S11308101E431500DEE70643FBE70E43F9E700211C
S1130820029103912E2B0BD10123EB562A2B12D1CB
S11308303B6802351A1D3A601B6802930123039337
S11308400021042369560A0001359A43682A17D106
S113085000216956F7E7150040F20A0C0121002235
S1130860AA56681C1300303BDBB2092BE8D8654656
S1130870029B03916B43303BD31805000293EEE7D0
S1130880782909DC6F290CDC63295FD018DC252961
S113089061D0582900D18BE00A9B002B00DB88E74C
S11308A08BE7703908000829F6D801F04FFCA60040
S11308B0F5FFF5FF8900F5FF7800F5FFF5FF8100EE
S11308C06429E9D13B680A211A1D3A601B681A00A1
S11308D00393DB17D2185A400123092A3FDC029AFA
S11308E004929A4200D204932CB1039B002B01DBA7
S11308F0730700D5013CB30701D5029B1BB1F30775
S113090001D484BB00240A9B002BC5DB039B002B72
S113091035DA2D215B42039307A8FFF7B3FE0A9B48
S1130920002BB9DB03233340022B03D1029B0BB909
S11309304CBB00240A9B002BAEDB0A22029B0399CA
S11309400196009407A8FFF7BDFEA5E700213B68C8
S11309501A1D3A60595607A8FFF794FE9CE792FBCC
S1130960F1F20133B9E7049B9C42CCD9202107A8BA
S1130970FFF788FE0A9B013C002BC2DAC3E773072A
S1130980D0D52B21C8E7049B9C42D3D9302107A89A
S1130990FFF778FE0A9B013C002BC9DACAE70A225A
S11309A039680B1D3B60029B019600940968C9E7F6
S11309B039680B1D3B60029B019600941022F5E7F9
S11309C03B681A1D3A601E6816B90023144E03933F
S11309D0340000216156002900D15DE7039B23B157
S11309E0029BF3189C4200D156E707A8FFF74AFE82
S11309F00A9B0134002BECDA4EE739680B1D3B608F
S1130A000023019308330093D8E7099C24B1220002
S1130A1005980CA9FFF71CFE64190A94D1E6C04698
S1130A20E72100000EB403B503AB02CB01AA019386
S1130A30FFF7B2FE02B008BC03B0184710B500F0CF
S1130A40E1F810BD10B518B90122054B1A7010BD9C
S1130A500228FCD10349044800F0EAFDF7E7C04648
S1130A6090C07E40182D00001C4F0020F7B50C4E9E
S1130A703568102D08D80B4F2C01E0510135E419CD
S1130A8061602272E360356042B1074A01930091CC
S1130A90030006490020FFF7C5FFF7BD044AF5E748
S1130AA0E84C0020EC4C0020EE210000F82100006E
S1130AB0F321000010B5054C1C220021200001F098
S1130AC07DFB2000024900F00FFE10BD1C4E0020EB
S1130AD0FC4D002010B5044C200000F0B3FD2000B4
S1130AE000F066FE10BDC0461C4E00200A4B80007C
S1130AF0C01842680020E03213689B059B0F012B4D
S1130B0006D11168C90103D410688001C00F584090
S1130B10012318407047C0461C4E0020F7B52A4CEC
S1130B202A4B22000191050043CB43C243CB43C26D
S1130B3003CB03C2264B274A43CB43C243CB43C216
S1130B4003CB03C2244B254A43CB43C243CB43C20A
S1130B5003CB03C2224EE1694022300001F036FB90
S1130B60716B39B11F4F2022380001F02FFB402355
S1130B707763BB60174B194A1D701B4B15701A0025
S1130B801A49E661257061C961C210001849E0C9BB
S1130B90E0C01D00183529001648E0C8E0C15C60BB
S1130BA0154C0C49200019610C49D9611349E0C95D
S1130BB0E0C0E0C9E0C060C960C063600199104B47
S1130BC02170A260E360F7BDD84E0020802B0000A6
S1130BD00C2C0000B84E0020982C0000984E0020E9
S1130BE0584E0020384E0020F84E0020742B000090
S1130BF0002C00008C2C0000FC4D0020542B000025
S1130C00104F0020F0B5E4498DB00020FFF70AFF33
S1130C10E2490020FFF706FFE1490020FFF702FF49
S1130C20E0490020FFF7FEFE0023DF4A01210C20EB
S1130C301360FFF773FFFFF73DFF040050BBDB4871
S1130C4000F005FDD94E434258413700C5B220009B
S1130C50FFF74CFF73680134DA6DD54BE4B25B687F
S1130C6004365B685B689B1A5A42534103401D403B
S1130C70032CECD17B68DC6AF0231B031C40CD4BB6
S1130C80E41863425C412C40FFF724FF002C01D0A0
S1130C9000F001FC0024C84B2200C849C848FFF7F3
S1130CA0E5FE01210D20FFF739FFFFF703FF0400E4
S1130CB048BBBE4800F0CBFCBC4E43425841370011
S1130CC0C5B22000FFF712FF73680134DA6DB84B28
S1130CD0E4B25B6804365B685B689B1A5A42534112
S1130CE003401D40032CECD17B68DC6AF0231B031A
S1130CF01C40B44BE41863425C412C40FFF7EAFE0D
S1130D00002C00D0CAE30024AF4B2200AF49B04806
S1130D10FFF7ACFE01210E20FFF700FFFFF7CAFE2C
S1130D2000250400D8B9A14800F091FC4342584181
S1130D309E4EC5B22000FFF7D9FE73680134DA6D08
S1130D409B4BE4B25B6804365B685B689B1A5A424F
S1130D50534103401D40032CECD1FFF7BBFE02219D
S1130D600E20FFF7DBFEFFF7A5FE002840D18F48D9
S1130D7000F06DFC4342584101228D4B28405B68D2
S1130D805B685E68894993005B181C680023250032
S1130D90E03529688905890F01290AD12968C90123
S1130DA0CF0F994205DA39002B689B01DB0F5940BC
S1130DB00B00E16D0340246E0020B14202D1A01B60
S1130DC04142484118400123D2181840042AD9D17D
S1130DD0764B5B68DC6AF0231B031C407D4BE418F4
S1130DE063425C410440FFF775FE002C00D057E3DA
S1130DF00024794B220079497948FFF737FE012115
S1130E000F20FFF78BFEFFF755FE070088BB674EE8
S1130E1073683000DD6A00F01AFC724B0C225C68C7
S1130E203900019009A801F0C9F9A40806A9300005
S1130E3006940794089400F00FFC012107000800B1
S1130E4001F0AEF8F02273681203DB6C1540E41A6B
S1130E50654A63425C41019BAD186A4255413B437C
S1130E605A4253412C401C40FFF734FE002C00D062
S1130E7018E300245D4B22005D495E48FFF7F6FD50
S1130E8001210E20FFF74AFEFFF714FE40B9474B3D
S1130E905B688C331C68FFF71DFE402C00D103E314
S1130EA00022554B55495648FFF7E0FD01210E201D
S1130EB0FFF734FEFFF7FEFD50B93C4B5B685A6EFA
S1130EC08C331B6813B19A4200D9F0E2FFF702FE9B
S1130ED000224C4B4C494D48FFF7C8FD01210E2020
S1130EE0FFF71CFEFFF7E6FD90B980212F4B5A68EF
S1130EF08C32136811601468403B803C5A42534161
S1130F00624254411C40FFF7E5FD002C00D0D3E2BF
S1130F1000243F4B22003F493F48FFF7A7FD012132
S1130F200E20FFF7FBFDFFF7C5FD78B91F4B5B688B
S1130F301A008C33883214681B68403B5A42534170
S1130F401C40FFF7C7FD002C00D0B7E20024334B50
S1130F50220033493348FFF789FD01210E20FFF7B2
S1130F60DDFDFFF7A7FD050000287BD10F4F3800FA
S1130F7000F06DFB1B4B0C222900019009A85C6852
S1130F8001F01CF90323A60865085C4306A9A4081C
S1130F9038000696079547E0702700009D2700005B
S1130FA0C2270000E2270000E84C00201C4E00206D
S1130FB0FC4D00200000F4FF452200000F28000033
S1130FC0312800000000F3FFAB2200003B280000A2
S1130FD05E2800000000F2FF0923000068280000DA
S1130FE097280000D84E00200000F1FF6223000083
S1130FF0A1280000C72800009E230000D12800007B
S1131000E8280000DC230000F22800001B2900006F
S11310102424000025290000502900006924000030
S11310205A29000088290000089400F015FB7B6809
S1131030DA6DBB68B21AD96DFB6856427241DB6D3A
S11310406E1AE51A019C71424E416B425D410443A4
S113105063425C41164035402C40FFF73BFD002CB9
S113106000D02DE20024DA4B2200DA49DA48FFF7F7
S1131070FDFC01210F20FFF751FDFFF71BFD0400CC
S1131080F0B9D64FD64B38005E6800F0E0FA0500A0
S11310900C22210009A801F091F8380006A906964F
S11310A00796089600F0D8FA7B686A425541DB6DD2
S11310B0B34264412C40FFF70DFD002C00D001E247
S11310C00024C84B2200C849C848FFF7CFFC0121BF
S11310D00F20FFF723FDFFF7EDFC0400F0B9BF4F2D
S11310E00126380000F0B3FA0C222100050009A8FB
S11310F001F064F8380006A906960796089600F0F1
S1131100ABFA7B680543DB6D6A4255419E426441FC
S11311102C40FFF7DFFC002C00D0D5E10024B44BB9
S11311202200B449B448FFF7A1FC01210E20FFF7C7
S1131130F5FCFFF7BFFC060060BB632427006425B1
S1131140A74B02005B685F43B7FBF5F5AB42424136
S1131150A248D3B20193BC42A44100F078FA019BA7
S11311600C2231000290644209A81C4001F026F8C8
S11311709A4806A906950795089500F06DFA029B12
S113118003431800434258410440FFF7A3FC002CDA
S113119000D09BE10024994B220099499948FFF71C
S11311A065FC40F60C5306AA13800E230125002685
S11311B0937006AB0121985DFFF7B0FCFFF77AFC52
S11311C0002800D084E1FFF791FC07000120FFF71D
S11311D08DFC3840C4B20220FFF788FC044025404F
S11311E0FFF778FC0136032EE3D1002D00D171E125
S11311F0854B2A0085498648FFF738FC02210E20DA
S1131200FFF78CFCFFF756FC18BB0122140073494E
S113121093005B18186800230500E03529688905E8
S1131220890F012908D12E68F601F10F9E4203DAD5
S11312302B689B01DB0F4B40016E0132481E81413C
S11312400B401C40042AE2D1FFF744FC002C00D0E0
S113125042E100246F4B22006F497048FFF706FCFF
S113126001210F20FFF75AFCFFF724FC060040BBC6
S11312705A4F380000F0EBF9594B0C225C680323F9
S1131280B4FBF3F43100050009A800F097FF06A9A8
S1131290380006940794089400F0DEF90121060052
S11312A0080000F07DFE7B683543DB6C6A425541E3
S11312B0E41A63425C412C40FFF70CFC002C00D084
S11312C00CE10024564B220056495748FFF7CEFB49
S11312D001210E20FFF722FCFFF7ECFB050090BB79
S11312E03E4F380000F0B3F93D4B0C222900019029
S11312F009A85C6800F062FF0323A60865085C4344
S113130006A9A408380006960795089400F0A4F9E5
S11313107B68DA6DBB68B21AD96DFB6856427241BC
S1131320DB6D6E1AE51A019C71424E416B425D41C0
S1131330044363425C41164035402C40FFF7CAFB2E
S1131340002C00D0CCE00024384B22003849394826
S1131350FFF78CFB01210E20FFF7E0FBFFF7AAFB50
S11313600400002879D11D4E2700300000F06FF9E9
S113137043425841C3B20393194B40F2E8310A2067
S11313805D6800F00DFE7368A4469A6C0293260013
S113139040F2D0730121681E403D019404900595EC
S11313A01500029A926C012A00D80E000498824219
S11313B000D3A3E0012A3FD9AA4200D992E000D287
S11313C08C46402A38D90598824236D334E0C04648
S11313D0C024000092290000B92900001C4E0020FE
S11313E0D84E002047250000C3290000DF29000053
S11313F045250000E9290000032A00009425000087
S11314000D2A00002D2A0000B4250000372A000010
S1131410572A00003D260000622A00007F2A0000AF
S1131420922600008A2A0000AB2A0000F22600005F
S1131430B62A0000DE2A00000C00013B002BAFD1CD
S11314402EB127B1019A12B163465B422340039C3B
S11314501C40FFF73FFB002C46D100222A4B2B48AF
S11314602B49FFF703FB2B4B2B4A186800231C0066
S113147098423CD129490020FFF7D4FA254B220099
S11314801B6827490020FFF7CDFA26490020FFF703
S1131490C9FA0DB0F0BD244BFFF7FEFB234B34E437
S11314A0234BA7E4234BE6E40122234BFAE4FFF7A2
S11314B011FB0122214B0DE5214B2BE5214B47E587
S11314C0214BD1E5214BFDE5214B29E6214B63E678
S11314D0002587E6204B8CE6204BBCE6204BF2E649
S11314E0204B32E70F006CE701221F4BB7E7117A5C
S11314F001334D1EA94110326418B9E70191012A44
S113150000D95EE798E7C0464D2700000A2B00008B
S1131510E92A0000E84C0020EC4C00207027000071
S1131520152B0000E22700000B22000071220000AE
S1131530D72200002C23000083230000B9230000DD
S1131540F92300004524000091240000E624000053
S11315501625000061250000E22500000A2600008F
S113156065260000BD2600001527000010B5FFF712
S113157065FA002010BD0000EFF31080012383F30F
S11315801088064B196819B9054AD1704031D170D9
S11315901A6801321A6080F310887047B84F00202F
S11315A0000D0440EFF31081012383F31088074BEF
S11315B01A6812B11A68013A1A601A681AB9044B07
S11315C0DA708032DA7081F310887047B84F0020E7
S11315D0000D0440030A70B5C0B2084D1B01CA03D4
S11315E007D51A189200AE58054C26400C40AE5050
S11315F0AC501B189B00E95070BDC0460008044065
S1131600FFFFFEFF70B505000024FFF7B5FF2B8830
S1131610A34202D8FFF7C6FF70BD6B68E2009B18B7
S1131620988819680134FFF7D5FFA4B2EFE70000EA
S113163010B5034B03600800FFF7E4FF002010BD62
S113164054524F504368026900209A6070474368BF
S1131650026900205A6070474AF2005370B542682C
S1131660136082681360C268136083695B685B6897
S11316701A7813000C3B032B1CD80022194BD318E7
S11316801B789B00C418CB1865681E68EE65057D41
S1131690022D02D16468DB6823660132032AEDD18E
S11316A04AF201534268136082681360C2680020E2
S11316B0136070BD0500031D10351E680C68746549
S11316C01E68B465047D022C01D0062A04D11E686C
S11316D0CC68F4651E68346604330431AB42ECD143
S11316E0DEE7C046622E00000B00F7B506000D00D1
S11316F010330F1D041D01933B6803CB00F03AFA2D
S11317004AF200523B681B689B6823601A602B787E
S1131710022B05D1A02122680903136C0B43136427
S11317206B685B6819780B000C3B032B24D83B686F
S113173028785B682268DB6802282ED10E390129DB
S11317402BD8E03210681749084040F200110143D9
S11317501160802122684904E0321068014311605D
S113176022681148E0321168014011602268D36494
S11317702268D365226813664AF2015208CC043702
S11317801A60019B9F42B7D16B69002033612B78AB
S1131790B5613375054B3360FEBDD3642268D365F0
S11317A0EAE7C046FFFCFFFFFFFFFFFD335450474D
S11317B070B5002405004368026904609A60AB694F
S11317C0A2009B185B680134186800F099F9032C97
S11317D0F5D1002070BD8368C26800209A6070470C
S11317E08368C26800205A6070478368C26800201A
S11317F0DA6070478022F0B543681206DB698668B8
S1131800D9685C689D68144315430A434AF2005141
S1131810376831608668394375618568AA61826872
S1131820146182681C69546282685B69936282688D
S113183000201160F0BD4AF2005210B583681C68A4
S11318401A6043681A780B00032A00D84B1E82687A
S11318509366426812782AB9826849080139516549
S1131860826891658268D16AC90707D45366AA223F
S11318708368D2031A648368C268DA604AF2005348
S1131880826823430020136010BD4AF2005330B530
S1131890846812322568236084689200A418013990
S11318A0616082682B430020136030BD8368DB6A6B
S11318B0DB07DB0F0B71836800209B6C0B607047A8
S11318C04161C261836100207047802382681B06E6
S11318D01361826853618268936100238268536252
S11318E082689362704770B54AF2005504008368B9
S11318F01E681D60FFF7E9FFA368354300201D60E3
S113190070BDF0B586684068B46E0078032800D8CE
S113191001344D424D410DB9A1421CD3DB070CD417
S1131920736BDB06DB0E03280AD9180901238343F2
S113193069B9B3B902235360F0BD736BDB02F1E7FD
S11319400C200340043B58424341DBB2F0E7002B38
S1131950F0D10323EFE7032801D91160ECE7013943
S1131960FBE7002CF5D1E5E70123F0B55B4287B036
S11319700493032700230500059316001300174062
S113198004AA0291FFF7BDFFAB6805991A68039298
S11319904AF200521A60AB681C6B0193B9B940F269
S11319A0020C0423300700D46346624604981642AE
S11319B02AD040F2120C9C44624692009446019A4A
S11319C0133362445060AA689B00D31858607306AE
S11319D005D58023AA68DB03106C03431364012F2D
S11319E026D0154B23400C041C43022E13D129B1DD
S11319F001232800029904AAFFF783FF0F4B234019
S1131A00059C24061C4308E0DB19019A12339B0051
S1131A10D2185060DBE7002FF0D1AB6800201C63C4
S1131A204AF20053039A1343AA68136007B0F0BD47
S1131A30022EDCD0E2E7C046FFFFFCFFFFFFFFFC05
S1131A40F0B50500806987B08C46019203AC88B17B
S1131A5023000200C2CAC2C363460371019B8360B0
S1131A60EB6903606B699847AB690BB123CC23C363
S1131A7007B0F0BD2000EFE710B5002801DB00F04F
S1131A8047FB10BDF7B50700EFF30384103C64B2C5
S1131A90200000F0DBFA134BA200D6587168CB6922
S1131AA030331B78CBB93A000125B3681232920067
S1131AB09B185B6801930B78012B05D13000FFF76D
S1131AC004FF200000F0D0FA73692BB1E91930004B
S1131AD0019AC9B2FFF7B4FFF7BD002304250193AF
S1131AE0E9E7C046BC4F002010B5041E05DB00F03A
S1131AF0FFFA0022014BA400E25010BDBC4F0020AD
S1131B0070B50400436812201856DD69FFF7ECFF36
S1131B101F206B1D1856FFF7E7FF1F20AB1D18563B
S1131B20FFF7E2FF6B6B1BB101201856FFF7DCFFD8
S1131B3000204AF20053A268206011681360A26872
S1131B40E5680B439560A2685063A268136070BD9A
S1131B500A018B0113430922022805D0063A022800
S1131B6002D8033201B1033240F200101343184388
S1131B70704700000122F0B50D000B7C1100994064
S1131B804560C16002742B7CA54904005B180021E8
S1131B901B0283606B6985B04361AB698161C3617A
S1131BA0EE69EFF3108082F3108840279D4BDA68CA
S1131BB0BA43DA60DB6880F310884AF20052A36803
S1131BC01A60A368D962A368D963A36899642B7A5D
S1131BD069682A78DB054F1E032A00D00BE18022B6
S1131BE052021343A2682000D362FFF76EFEA3687B
S1131BF0B269DA61A368F2691A62A3689F66A3688E
S1131C005F66B36B2A78009301235B42029300233F
S1131C100393002A00D0F5E06B685B08013B029354
S1131C20A268029B5365A26893652A78032A03D9A4
S1131C30A268D365A2681366039B1A041B061A43A1
S1131C40B36B019293B9337833B171782878FFF785
S1131C507FFF009B03430093B3783BB1F17828786E
S1131C60FFF776FF009B0004034300936368DB697E
S1131C70190030310A78D20703D59A6AA068013A6C
S1131C80C2640A78920703D5DB6AA268013B136534
S1131C9001232A7C93401B0702D00022A3685A64C4
S1131CA0776BA168002F00D1B5E0FB78BA781B07E9
S1131CB01206134301229C461300287C834018001B
S1131CC0000728D0B86810B9FA68501E82418831DC
S1131CD00A60A268B9688C3211600122297C8A40AA
S1131CE0120718D06346A268F968903211603A7EF0
S1131CF0787E920100020243B87EA1680003024389
S1131D004A643A793969120413439C46A2681167FC
S1131D10A2687969D1676346A2689363B36B3BB9E0
S1131D20FB7E3A7F5B0252061343009A1A430092E9
S1131D30B36B4BB9731CB21CDB7FD27F5B035207BE
S1131D401343009A1A430092330030331B785A1E0F
S1131D509341354A5B421340AA22D2039B18A268DE
S1131D6013642B78012B04D10023A268D364A268E6
S1131D701365A368009A12205A633300A2683C33A7
S1131D801B78D16A1B010B4331003D3109784901AD
S1131D900B43D36203230199A2680B43136301230A
S1131DA0A2680B431363A368E268DA604AF2015243
S1131DB0A3681A60697C22002856FFF75DFE1F2085
S1131DC0F31CD97F731D18562200FFF755FE1F2000
S1131DD0331D06362200D97F3056FFF74DFE2FB152
S1131DE00120220039783856FFF746FE00200F4BB9
S1131DF0236005B0F0BD032A00D8F3E612040F00F7
S1131E001343EFE6012A00D10AE72000E96802AA99
S1131E10FFF777FD04E78F63A36888331F6087E7C4
S1131E2090084000FC6F04400000FBFF5450470042
S1131E3030B54268836812785B6E032A00D8013398
S1131E4007258B608368DA6A084B5201186A084BCD
S1131E50040E1B682C40A3402840C340120FD340FB
S1131E604B60012300200B7030BDC04600E00140F0
S1131E70D44F002010B50020FFF704FE10BD10B5AC
S1131E800120FFF7FFFD10BD094B1A7882420DD0E7
S1131E90084A12781AB908490A78D207FCD51A7880
S1131EA0D206FCD418701A78D206FCD47047C04607
S1131EB0A0E0014036E001403CE00140064B074908
S1131EC0DA1DD27F1B6A920052585B015B0FDA4025
S1131ED01300034A1360704700E0014000440020EF
S1131EE0D44F002040F2FE3370B51C4A1C4C012133
S1131EF0E25243F6C8731B4A0025D1541A4B1B4ABD
S1131F001D611A601A4A5A6048F200029A60194A1E
S1131F10DA60FFF7D3FF40F213430922E554164B6E
S1131F2028001A70154B063A1A70FFF7ADFF144BD0
S1131F30144A1D701378DB07FCD50123124A137071
S1131F40124A13700022FF332362114BDA77FFF732
S1131F50B5FF40F2FE330F4AE25270BD03A5FFFF06
S1131F6000E0014000C07E40004400200090D00307
S1131F7000127A00002D3101A2E00140A5E00140E9
S1131F8036E001403CE0014031E00140C4FF7E40C6
S1131F9007E0014000A5FFFF01380028FCD170478D
S1131FA070B54143164B40F2E83208001E680C003D
S1131FB00023002100F0D4F8124D134AB5FBF6F5C6
S1131FC059B9B0FBF5F00423964200D90233B0FBB3
S1131FD0F3F008B1FFF7E0FF70BD0423964200D987
S1131FE002335D4340F2E832B4FBF5F000230021F4
S1131FF000F0B6F80029ECD001204042EAE7C046E0
S1132000D44F002000CA9A3B0048E801F8B540F2DA
S11320104013002401270A4E0A4A758CD35A1D40E6
S11320202B00E3403B4206D0074AA3009B181B68E1
S11320300BB1E0B2984701340D2CF1D17586F8BD8F
S1132040FE60004000600040844F0020044BC0301C
S11320508000C25803490A40C250C3587047C04662
S113206000600040FFFFFEFF10B50400FFF7EEFF25
S1132070BFF35F8F1F22630914401E3AA240024936
S113208060339B005A5010BD00E100E0F7B5FF2714
S1132090019283080A4A03269B009B183A0040F2E7
S11320A000350640F6008901B2403940B1405C5920
S11320B0800094430C435C51019A024B1A50F7BDC3
S11320C000E100E0BC4F00201F22430910401E3AEB
S11320D0824002499B005A507047C04600E100E02C
S11320E010B50400FFF7C0FF2000FFF7EDFF10BD9F
S11320F01F22430910401E3A8240044920339B00AA
S11321005A50BFF34F8FBFF36F8F704700E100E069
S113211010B50400FFF7BAFF2000FFF7E1FF10BD80
S113212000230648064A9A18117819B11A00C032D9
S1132130920011500133062BF4D170470060004027
S11321405C2E000000BE70477047000003B4714667
S1132150490840004900095E49008E4403BC7047A9
S1132160F0B54FF6FF750400CE462C4047461540A7
S11321700E002900994680B5130C0700000C61433A
S11321804543584363430C0C5B19E4188C46A54241
S113219003D980235B0298464044230C61461B18F4
S11321A04FF6FF7008404946564379432404891981
S11321B02018C918C0BCB946B046F0BD0300821847
S11321C0934200D1704719700133F9E7002310B529
S11321D09A4200D110BDCC5CC4540133F8E7546575
S11321E0726D696E616C00284E554C4C290050414B
S11321F05353004641494C005B25735D2025733AD7
S1132200202573202D2025730D0A004D6F64652051
S113221031206F70656E65642C20475442455232FC
S11322202073696E676C65206275666665722C2022
S1132230475443522E4D443D3078432076657269AD
S113224066696564004D6F64652031206F70656E4A
S1132250206F722072656769737465722076657287
S1132260696669636174696F6E206661696C65642F
S1132270004D6F64652032206F70656E65642C209C
S11322804754424552322073696E676C652062750B
S1132290666665722C20475443522E4D443D307877
S11322A044207665726966696564004D6F646520D3
S11322B032206F70656E206F722072656769737467
S11322C0657220766572696669636174696F6E20F0
S11322D06661696C6564004D6F64652033207369C1
S11322E06E676C652F646F75626C652062756666D7
S11322F065722C20475443522E4D443D307845207E
S11323007665726966696564004D6F646520332083
S113231062756666657220636F6E66696775726161
S113232074696F6E206661696C6564004D6F6465E5
S1132330203420475443522E4D443D3078462C20BF
S1132340696D6D6564696174652047544343524403
S11323502D3E475443435241207665726966696550
S113236064004D6F6465203420696D6D6564696136
S11323707465207472616E73666572206661696C3F
S1132380656400475444565520636F6E66696775EB
S113239072656420636F72726563746C790047546C
S11323A044565520636F6E66696775726174696F10
S11323B06E206661696C65640044656164207469BB
S11323C06D652076616C75652077697468696E2027
S11323D076616C69642072616E676500446561644E
S11323E02074696D652076616C7565206F75742045
S11323F06F662072616E67650047544456552064C9
S11324006972656374207772697465207665726990
S11324106669656420286E6F2062756666657269F8
S11324206E67290047544456552062756666657286
S1132430206265686176696F7220756E6578706573
S11324406374656400446561642074696D65206F1C
S1132450757470757420656E61626C65642C2047B8
S113246054445655203E203000446561642074690C
S11324706D65206775617264206E6F742070726F71
S11324807065726C7920636F6E66696775726564D6
S113249000546872656520696E646570656E646574
S11324A06E7420647574792076616C75657320731D
S11324B0657420616E64207665726966696564007E
S11324C0496E646570656E64656E742064757479B4
S11324D0206379636C6520636F6E74726F6C206621
S11324E061696C6564004475747920736574207443
S11324F06F20706572696F642028302520706F73B7
S113250069746976652070686173652920766572DF
S11325106966696564004475747920736574207410
S11325206F206D696E20283130302520706F7369FB
S113253074697665207068617365292076657269AF
S113254066696564003130302520647574792063D0
S113255079636C652074657374206661696C656465
S11325600075696E7433325F7420696E7465726DC0
S11325706564696174652061726974686D65746904
S1132580632070726576656E7473206F766572660B
S11325906C6F77004F766572666C6F77207072652A
S11325A076656E74696F6E207465737420666169F4
S11325B06C6564004754424552322073696E676CFF
S11325C065206275666665722076657269666965FE
S11325D06420666F72204D6F64657320312F322F33
S11325E0330053696E676C65206275666665722098
S11325F0636861696E20766572696669636174698E
S11326006F6E206661696C656400475442455232BE
S113261020646F75626C6520627566666572202B36
S11326202047544343524620696E697469616C695A
S11326307A656420766572696669656400446F75BD
S1132640626C652062756666657220636861696E96
S113265020766572696669636174696F6E2066616C
S1132660696C656400475443435244202D3E20471F
S1132670544343524120696D6D65646961746520FA
S11326807472616E736665722076657269666965D7
S113269064004D6F64652034206279706173732027
S11326A07472616E736665722076657269666963B9
S11326B06174696F6E206661696C6564005720639C
S11326C068616E6E656C207772697474656E206CD7
S11326D06173742C20616C6C207068617365732065
S11326E07570646174656420636F72726563746C81
S11326F079005772697465206F72646572696E67D8
S113270020766572696669636174696F6E206661BB
S1132710696C656400416C6C203520736563746971
S11327206F6E73202874726F7567682F75702F63CE
S1132730726573742F646F776E2F64656164626170
S11327406E6429206F62736572766564004E6F74DF
S113275020616C6C20636F756E74696E672073659D
S11327606374696F6E73206F62736572766564005B
S11327700D0A3D3D3D3D3D3D3D3D3D3D3D3D3D3DE8
S11327803D3D3D3D3D3D3D3D3D3D3D3D3D3D3D3D75
S11327903D3D3D3D3D3D3D3D3D3D0D0A0020204735
S11327A0505420436F6D706C656D656E7461727901
S11327B02050574D20546573742053756974650D0A
S11327C00A00202046535052412D35373235202FF0
S11327D0204653502076362E352E30207263300D2D
S11327E00A003D3D3D3D3D3D3D3D3D3D3D3D3D3D85
S11327F03D3D3D3D3D3D3D3D3D3D3D3D3D3D3D3D05
S11328003D3D3D3D3D3D3D3D3D3D0D0A0D0A004FE5
S11328107065726174696E67206D6F646520312024
S1132820286372657374207472616E7366657229AD
S1132830005245512D4F4D2D3031004F706572615E
S113284074696E67206D6F64652032202874726F1E
S1132850756768207472616E7366657229005245EB
S1132860512D4F4D2D3032004F7065726174696E79
S113287067206D6F64652033202863726573742B41
S113288074726F7567682C2073696E676C652B644E
S11328906F75626C6529005245512D4F4D2D3033B3
S11328A0004F7065726174696E67206D6F64652096
S11328B0342028696D6D6564696174652074726182
S11328C06E7366657229005245512D4F4D2D30347B
S11328D000436F6E666967757261626C652064653A
S11328E061642074696D65005245512D44542D3046
S11328F03500446561642074696D652076616C6996
S1132900642072616E6765202830203C204754445F
S11329105655203C204754505229005245512D44CD
S1132920542D3036004E6F20627566666572206FD6
S11329307065726174696F6E20666F722064656180
S1132940642074696D6520726567697374657200CB
S11329505245512D44542D3037004E6F6E2D6F76F5
S113296065726C617070696E67206775617264204E
S11329702870726576656E742073686F6F742D7439
S113298068726F75676829005245512D44542D3083
S11329903800496E646570656E64656E7420647594
S11329A07479206379636C6520636F6E74726F6CE5
S11329B02028552F562F5729005245512D44432D79
S11329C030390030252064757479207768656E206D
S11329D0475443435241203E3D20475450520052F5
S11329E045512D44432D313000313030252064755C
S11329F07479207768656E20475443435241203DE3
S1132A002030005245512D44432D31310050726520
S1132A1076656E742031362D626974206F76657226
S1132A20666C6F7720285241325431290052455147
S1132A302D44432D31320053696E676C65206275F5
S1132A406666657220636861696E20284D6F6465EF
S1132A507320312D3329005245512D4255462D31D5
S1132A603300446F75626C6520627566666572201A
S1132A70636861696E20284D6F64652033290052B4
S1132A8045512D4255462D3134004D6F6465203437
S1132A9020696D6D65646961746520627970617324
S1132AA073207472616E73666572005245512D42D3
S1132AB055462D313500536C617665206368616E2F
S1132AC06E656C2032207772697465206F7264655C
S1132AD072696E67202857206C617374290052450F
S1132AE0512D4255462D3136004669766520636F77
S1132AF0756E74696E67206F7065726174696F6E4C
S1132B002073656374696F6E73005245512D53458C
S1132B10432D3137002020526573756C74733A204D
S1132B20256C75202F20256C752070617373656486
S1132B300D0A000000000000005454522052454782
S1132B404745530030313233343536373839414212
S1132B504344454601000000742B0000002C000093
S1132B608C2C0000000000000700000000000000A2
S1132B7000000000244F0020802B0000682E00007D
S1132B800C00000000A00000000000000060000035
S1132B9000FFDF000000000000000000A02B000088
S1132BA0010001000000000000000000000000001F
S1132BB00000000000000000000000000000000011
S1132BC00000FFFFDFDF0000000000000000000045
S1132BD000000000E02B00000000000000000000E6
S1132BE0FFDF000000000000000000000000000003
S1132BF000000000000000000000000000000000D1
S1132C00444F00200C2C0000682E00000C00000033
S1132C1000A00000000000000060000001FFDF00D1
S1132C2000000000000000002C2C00000100010046
S1132C300000000000000000000000000000000090
S1132C400000000000000000000000000000FFFF82
S1132C50DFDF0000000000000000000000000000B2
S1132C606C2C00000000000000000000FFDF0000EA
S1132C700000000000000000000000000000000050
S1132C80000000000000000000000000644F00206D
S1132C90982C0000682E00000C00000000A000002A
S1132CA0000000000060000002FFDF0000000000E0
S1132CB000000000B82C000001000100000000002A
S1132CC00000000000000000000000000000000000
S1132CD000000000000000000000FFFFDFDF000034
S1132CE0000000000000000000000000F82C0000BC
S1132CF00000000000000000FFDF000000000000F2
S1132D0000000000000000000000000000000000BF
S1132D10000000000000000027000000242D000037
S1132D20000000000080000000000000008000009F
S1132D3001000000008000000200000010000000FC
S1132D400A000000100000000B000000100000004A
S1132D500C000000008000000D0000000080000056
S1132D600E000000100000000F000000000001032E
S1132D700001000000000103010100000000010344
S1132D800201000000000103030100001000000024
S1132D90040100000000010008010000000001051A
S1132DA009010000000001050A01000010000000F4
S1132DB00B010000100000000C01000000400000A6
S1132DC000020000000000000102000010000000EA
S1132DD006020000100000000702000010000000BE
S1132DE008020000000001030C02000000000103BF
S1132DF00D020000000001000003000000000104B7
S1132E0001030000000001040203000000000103AC
S1132E100004000010000000020400001000000084
S1132E20030400000000011B070400001040000020
S1132E300804000010000000090400001000000055
S1132E4000050000100000000D090000040000004F
S1132E500E090000100000000F090000000000002F
S1132E601916000102000000751B0000E1170000A4
S1132E70D7170000EB170000F5170000E718000053
S1132E8037180000691900008B180000311E00007B
S1132E90AD180000C1180000011B00004275696CE8
S1132EA07420776974682052656E6573617320417C
S1132EB06476616E63656420466C657869626C65EE
S1132EC020536F667477617265205061636B61672C
S1132ED0652076657273696F6E20362E322E30004F
S10F2EE0362E322E3000000000000206E6
S1072EECF8B5C0462B
S1072EF0F8B5C04627
S1072EF4C104000011
S1072EF8910400003D
S903009567
