S0110000636F6D706C5F70776D2E7372656345
S1130000004400207D000000FD06000055070000AC
S1130010550700005507000055070000550700006C
S11300200000000000000000000000005507000070
S113003055070000000000005507000055070000A8
S113004001000000700000000200000050000000E9
S11300500040002000400020000010400000020387
S11300600040002000400020400400000000010384
S113007014440020744400200000000310B500F074
S11300802FF800F047FAFEE7F8B5060000240C2725
S1130090124D2B68A34204D80024AB68A3420ED8A7
S11300A0F8BD3A0062436B689B185A7AB24204D195
S11300B005CB0021121A00F050FB0134E8E7EB688D
S11300C022019B185A7BB24205D118685A68996874
S11300D0121A00F04AFB0134DFE7C046400000007A
S11300E070B500241B4A1C4B00209A6000F0FEF9F6
S11300F000F0AAFA012000F0F9F9012541F200010B
S1130100164B174A9C801A80164A20009A60164A99
S1130110DA60164A51849D80FFF7B6FF00F080FA3A
S1130120022000F0E3F92800FFF7AEFF104D114B59
S1130130ED1AAD10AC4205DB00F000FB002000F02E
S11301400BFB70BD0B4AA3009B181B689847013436
S1130150F0E7C0460000000000ED00E0000D0040A4
S113016000A5FFFF0040002000440020FE60004086
S10B0170280900002409000025
S1070400FFFFFFFFF8
S1070404DFDFFFFF34
S113044040F2084040F20843C0F20000C0F200034A
S113045010B5834205D040F20003C0F2000303B19B
S1130460984710BD40F2084040F20843C0F2000033
S1130470C0F200031B1A9A10D90F8918491010B53D
S113048029B140F20003C0F2000303B1984710BD44
S113049010B544F21444C2F20004237873B9FFF790
S11304A0CFFF40F20003C0F200032BB140F208403A
S11304B0C0F2000000E000BF0123237010BDC0465D
S11304C040F20003C0F2000310B54BB144F21841EE
S11304D040F20840C2F20001C0F2000000E000BF98
S11304E0FFF7C0FF10BDC0467047000010B518B933
S11304F00122054B1A7010BD0228FCD1034904489F
S113050000F06AF8F7E7C04690C07E407C07000020
S11305103044002010B5FFF7E7FF002010BD0000B5
S1130520EFF31080012383F31088064B196819B97F
S1130530054AD1704031D1701A6801321A6080F3D3
S1130540108870476C440020000D0440EFF31081C4
S1130550012383F31088074B1A6812B11A68013A11
S11305601A601A681AB9044BDA708032DA7081F3AF
S1130570108870476C440020000D0440030A70B5D5
S1130580C0B2084D1B01CA0307D51A189200AE5811
S1130590054C26400C40AE50AC501B189B00E95053
S11305A070BDC04600080440FFFFFEFF70B50500A3
S11305B00024FFF7B5FF2B88A34202D8FFF7C6FF3C
S11305C070BD6B68E2009B18988819680134FFF7C6
S11305D0D5FFA4B2EFE7000010B5034B0360080099
S11305E0FFF7E4FF002010BD54524F50094B1A7816
S11305F082420DD0084A12781AB908490A78D207FB
S1130600FCD51A78D206FCD418701A78D206FCD419
S11306107047C046A0E0014036E001403CE00140A4
S1130620064B0749DA1DD27F1B6A920052585B01C0
S11306305B0FDA401300034A1360704700E0014087
S1130640004400207044002040F2FE3370B51C4A80
S11306501C4C0121E25243F6C8731B4A0025D154B5
S11306601A4B1B4A1D611A601A4A5A6048F200026A
S11306709A60194ADA60FFF7D3FF40F21343092264
S1130680E554164B28001A70154B063A1A70FFF7FA
S1130690ADFF144B144A1D701378DB07FCD50123FE
S11306A0124A1370124A13700022FF332362114B53
S11306B0DA77FFF7B5FF40F2FE330F4AE25270BD1E
S11306C003A5FFFF00E0014000C07E40004400207D
S11306D00090D00300127A00002D3101A2E0014005
S11306E0A5E0014036E001403CE0014031E001403A
S11306F0C4FF7E4007E0014000A5FFFFF8B540F2CB
S11307004013002401270A4E0A4A758CD35A1D400F
S11307102B00E3403B4206D0074AA3009B181B680A
S11307200BB1E0B2984701340D2CF1D17586F8BDB8
S1130730FE6000400060004038440020034B1B78FA
S11307401BB140F2003202498B507047C8080000C8
S11307500060004000BE7047704703008218934257
S113076000D1704719700133F9E7002310B59A429C
S113077000D110BDCC5CC4540133F8E7280000005C
S11307808807000000000000008000000000000056
S11307900080000001000000008000000200000052
S11307A0100000000A000000100000000B00000010
S11307B0100000000C000000008000000D0000008C
S11307C0008000000E000000100000000F00000078
S11307D0000001030001000000000103010100000A
S11307E000000103020100000000010303010000F6
S11307F010000000040100000000010008010000D6
S11308000000010509010000000001050A010000C3
S1130810100000000B010000100000000C0100009B
S1130820004000000002000000000000010200007F
S11308301000000006020000100000000702000083
S11308401000000008020000000001030C02000078
S1130850000001030D02000000000100000300007D
S11308600000010401030000000001040203000071
S1130870000001070004000000000107010400005B
S11308801000000002040000100000000304000037
S11308900000011B070400001040000008040000D1
S11308A01000000009040000100000000005000012
S11308B0100000000D090000040000000E090000F3
S11308C0100000000F090000000000004275696C70
S11308D07420776974682052656E65736173204172
S11308E06476616E63656420466C657869626C65E4
S11308F020536F667477617265205061636B616722
S1130900652076657273696F6E20362E322E300044
S10F0910362E322E3000000000000206DB
S107091CF8B5C04620
S1070920F8B5C0461C
S1070924C104000006
S10709289104000032
S903007D7F
