S024000046535052415F353732355F636F6D706C656D656E746172795F70776D2E73726563C0
S1130000604400207D000000211400004D15000014
S11300104D1500004D1500004D1500004D15000054
S11300200000000000000000000000004D1500006A
S11300304D150000000000004D1500004D15000096
S113004001000000700000000200000050000000E9
S11300500040002000400020000010400000020387
S11300600040002060400020400400000000010324
S113007074440020284F00200000000310B500F055
S11300802FF800F0FDFEFEE7F8B5060000240C276B
S1130090124D2B68A34204D80024AB68A3420ED8A7
S11300A0F8BD3A0062436B689B185A7AB24204D195
S11300B005CB0021121A01F007FB0134E8E7EB68D5
S11300C022019B185A7BB24205D118685A68996874
S11300D0121A01F007FB0134DFE7C04640000000BC
S11300E070B500241B4A1C4B00209A6000F0B4FE3B
S11300F001F03CF9012000F0AFFE012541F20001BE
S1130100164B174A9C801A80164A20009A60164A99
S1130110DA60164A51849D80FFF7B6FF01F012F9A8
S1130120022000F099FE2800FFF7AEFF104D114B9E
S1130130ED1AAD10AC4205DB01F0FCF9002001F032
S113014007FA70BD0B4AA3009B181B68984701343B
S1130150F0E7C0460000000000ED00E0000D0040A4
S113016000A5FFFF6040002060440020FE600040C6
S10B0170602100005C21000085
S1070400FFFFFFFFF8
S1070404DFDFFFFF34
S11304400000000100200000000000000000000087
S11304501440002000000000F04D0020584E002001
S1130460C04E00200000000000000000000000005A
S11304700000000000000000000000000000000078
S11304800000000000000000000000000000000068
S11304900000000000000000000000000000000058
S11304A044F2600044F26003C2F20000C2F20003AE
S11304B010B5834205D040F20003C0F2000303B13B
S11304C0984710BD44F2600044F26003C2F2000099
S11304D0C2F200031B1A9A10D90F8918491010B5DB
S11304E029B140F20003C0F2000303B1984710BDE4
S11304F010B544F27444C2F20004237873B9FFF7D0
S1130500CFFF40F20003C0F200032BB140F20840D9
S1130510C0F2000000E000BF0123237010BDC046FC
S113052040F20003C0F2000310B54BB144F278412D
S113053040F20840C2F20001C0F2000000E000BF37
S1130540FFF7C0FF10BDC0460369C268934201D8DB
S113055081685B18013B981A7047F7B50500C468B9
S1130560836840681F1B00190E000193A41897426A
S113057007D83A0001F0B6F8019B6868E41A220033
S1130580F11901F0AFF8BFF35F8FEC60F7BD002302
S1130590F7B506001700C568019100933369B46884
S11305A09D4221D2013B5B1B641BBC4200D93C0031
S11305B09C4200D91C00706822004019019901F086
S11305C091F8009B2D191B190093019B3F1B1B19CC
S11305D00193B368AB4200D10025BFF35F8FF56090
S11305E0002FDBD10098FEBD1B19DBE710B5154CBD
S11305F0A8220021200001F067F80323124A236196
S11306006361124BA261E36140F60003236200239D
S1130610A3626362E36222660D4A62661022A266E6
S11306202367E3666367BFF35F8F0F3318000949DD
S1130630C21A5918097849B2A154013BF7D2BFF341
S11306405F8F10BDA04C0020F6160000A0440020CF
S113065090440020221D0000F0B5254B85B01B7886
S1130660070014000191532B01D0FFF7BFFF18239B
S11306707B431F4A00269B18DA6E1D6F0292954237
S11306801AD99B6E26005B1B9C4200D91E001823BE
S11306907B43174A01989B18596E320049190393FA
S11306A001F020F8019BAD199B190193039BA41B36
S11306B09B6EAB4200D10025029B5B1B9C4200D980
S11306C01C005CB118237B43094A01989B18596E9E
S11306D02200491901F006F836192D1926B11823FC
S11306E07B43034A9B181D67300005B0F0BDC0462C
S11306F0A04C002010B50B00EFF31084012181F30E
S113070010881900FFF7A8FF84F3108810BD0000BB
S1130710182370B5451C5D4343431400114A0E0071
S11307209B18DB6AAD18012B0AD0022B14D023B915
S11307302800FFF709FF844208D90024200070BD77
S11307402800FFF701FF844200D904002200310091
S11307502800FFF702FFF1E722002800FFF717FF48
S11307600400EBE7A04C0020F8B50B4B04001B7809
S11307700E001700532B01D0FFF738FFEFF310855D
S1130780012181F310883A0031002000FFF7C0FFF7
S113079085F31088F8BDC046A04C002010B5064C67
S11307A02378532B01D0FFF721FFE36E206FC01A8B
S11307B0431E984110BDC046A04C002010B582686D
S11307C004004068531C834205D820688154A36008
S11307D0E3680133E360A26863689A4209D121683F
S11307E02069FFF7C1FFA368984203D001235B424D
S11307F0E36010BD0023A360FBE70000F0B5150023
S11308000400012285B000930A9F0B9B0191A94229
S113081017D2009902928A4200D202910122190051
S113082011400391134201D17FB90027E3680126E7
S1130830002B3BDB009B012B1CD9013B00936E4337
S1130840F8E7B1FBF5F10132E1E720269B0703D578
S1130850009B103603B1103E029BBB42E6D231002E
S11308602000FFF7ABFFE368013F002BDEDB002F26
S1130870F2D1DAE7019BB3FBF6F39D42DFD9019B8A
S11308803200B3FBF6F35A43019920008A1A01920D
S11308900E4AD156FFF792FFE368002B03DBB6FB49
S11308A0F5F3AE4204D2039B03B15FB905B0F0BDCA
S11308B01E00E4E720212000FFF780FFE368013FEA
S11308C0002BF3DB029B9F42F4D8EFE7331D0000BB
S11308D0F0B59DB00CAB07934023089300230D00A3
S11308E01700059009930B900A930021695601356E
S11308F031B90A9D002D00DD23E10A981DB0F0BD39
S1130900252900D0C3E0002604201D390023EB561E
S11309106A1C2D2B17D012DC232B1AD02B2B16D0AC
S113092000240A210023EB566A1C18003038C0B298
S1130930092810D84C43303C15001C19F2E7302B21
S1130940EED1022300E001231E431500DEE7064337
S1130950FBE70E43F9E70021029103912E2B0BD103
S11309600123EB562A2B12D13B6802351A1D3A603B
S11309701B680293012303930021042369560A0090
S113098001359A43682A17D100216956F7E7150003
S113099040F20A0C01210022AA56681C1300303BC5
S11309A0DBB2092BE8D86546029B03916B43303BCD
S11309B0D31805000293EEE7782909DC6F290CDCD3
S11309C063295FD018DC252961D0582900D18BE038
S11309D00A9B002B00DB88E78BE7703908000829A5
S11309E0F6D800F0C1FDA600F5FFF5FF8900F5FF7C
S11309F07800F5FFF5FF81006429E9D13B680A21FD
S1130A001A1D3A601B681A000393DB17D2185A4068
S1130A100123092A3FDC029A04929A4200D20493E9
S1130A202CB1039B002B01DB730700D5013CB307FA
S1130A3001D5029B1BB1F30701D484BB00240A9B9C
S1130A40002BC5DB039B002B35DA2D215B4203937E
S1130A5007A8FFF7B3FE0A9B002BB9DB032333403F
S1130A60022B03D1029B0BB94CBB00240A9B002B25
S1130A70AEDB0A22029B03990196009407A8FFF7B4
S1130A80BDFEA5E700213B681A1D3A60595607A828
S1130A90FFF794FE9CE792FBF1F20133B9E7049B64
S1130AA09C42CCD9202107A8FFF788FE0A9B013C71
S1130AB0002BC2DAC3E77307D0D52B21C8E7049B08
S1130AC09C42D3D9302107A8FFF778FE0A9B013C4A
S1130AD0002BC9DACAE70A2239680B1D3B60029B66
S1130AE0019600940968C9E739680B1D3B60029BB5
S1130AF0019600941022F5E73B681A1D3A601E68BF
S1130B0016B90023144E03933400002161560029C2
S1130B1000D15DE7039B23B1029BF3189C4200D1F3
S1130B2056E707A8FFF74AFE0A9B0134002BECDACC
S1130B304EE739680B1D3B60002301930833009393
S1130B40D8E7099C24B1220005980CA9FFF70CFEF4
S1130B5064190A94D1E6C046FF1600000EB403B52A
S1130B6003AB02CB01AA0193FFF7B2FE02B008BCAB
S1130B7003B018471FB510220021684600F0A4FDF9
S1130B80FFF70CFE0028FBD0102269460020FFF777
S1130B90B1FD18B90449FFF7E1FFF1E7684600F039
S1130BA0EDFC05B000BDC0460617000010B50548B1
S1130BB000F086FA044800F083FA044800F080FA52
S1130BC010BDC046904D0020704D0020504D0020B7
S1130BD070B50E00150001000022104800F0FEF967
S1130BE0040038B10E4B00200E4A0F49FFF7B6FF40
S1130BF0200070BD020031000C4800F0EFF9040041
S1130C0008B10B4BEFE7020029000A4800F0E6F9AF
S1130C1004000028ECD0084BE5E7C046504D002006
S1130C2020170000511D000046170000704D0020E1
S1130C3062170000904D00208817000010B50A4884
S1130C4000F08AF928B10020084B094A0949FFF746
S1130C5085FFFFF7ABFF0020074B08495873187056
S1130C60FFF77CFF10BDC046504D0020AE170000BA
S1130C70431D00004617000000400020D617000066
S1130C8010B50E490020FFF769FF0D490020FFF75A
S1130C9065FF0C490020FFF761FF0B490020FFF7B7
S1130CA05DFF0A490020FFF759FF09490020FFF7BB
S1130CB055FF00200749FFF751FF10BD351900000B
S1130CC05619000081190000B6190000E11900004E
S1130CD00C1A00002319000037B5FFF7D1FFFFF706
S1130CE049FFC0B2073803282FD83E4D00F032FC2C
S1130CF00221252907233C492B700020FFF72EFFF2
S1130D006B7B0BB1FFF79AFF3849394800F004FABE
S1130D10040018B3374B0020374A3849FFF71EFF49
S1130D20374B384A35490020FFF718FFFFF73EFFDD
S1130D3012E0082334492B70DFE7092333492B7071
S1130D40DBE70A2332492B70D7E70020314B2D4AC9
S1130D502A49FFF703FF032420003EBD2E49FFF775
S1130D60FDFE2E492E4800F0D7F9040008B12D4BA2
S1130D70D1E72D49FFF7F2FE2C492D4800F0CCF9BC
S1130D80040008B12B4BC6E72B49FFF7E7FE3223DB
S1130D906422A888EB802B816B814343B3FBF2F37D
S1130DA0C01A80B202000100FFF712FF040008B16C
S1130DB0224BB6E72A782249033AFFF7CFFEAA88E6
S1130DC020002049FFF7CAFE6A8820001E49FFF769
S1130DD0C5FE69892B89EA88200000911B49FFF729
S1130DE0BDFEB9E700400020301A0000941D000049
S1130DF0504D0020481B00006C1D000046170000E9
S1130E003B1C0000831D0000691A0000A31A0000A7
S1130E10E51A00001F1B0000791B0000F41D0000F0
S1130E20704D0020991B0000CA1B0000541E0000D6
S1130E30904D0020E91B00001A1C00006B1C0000F0
S1130E408D1C0000C41C0000DE1C0000FB1C000004
S1130E5010B5FFF741FF10BD10B518B90122054BBD
S1130E601A7010BD0228FCD10349044800F06AF846
S1130E70F7E7C04690C07E40B41E0000484D0020F5
S1130E8010B5FFF7E5FF002010BD0000EFF3108060
S1130E90012383F31088064B196819B9054AD170E8
S1130EA04031D1701A6801321A6080F3108870479B
S1130EB0E44D0020000D0440EFF31081012383F37F
S1130EC01088074B1A6812B11A68013A1A601A6836
S1130ED01AB9044BDA708032DA7081F310887047E3
S1130EE0E44D0020000D0440030A70B5C0B2084D63
S1130EF01B01CA0307D51A189200AE58054C2640A8
S1130F000C40AE50AC501B189B00E95070BDC0465D
S1130F1000080440FFFFFEFF70B505000024FFF742
S1130F20B5FF2B88A34202D8FFF7C6FF70BD6B68DC
S1130F30E2009B18988819680134FFF7D5FFA4B222
S1130F40EFE7000010B5034B03600800FFF7E4FF70
S1130F50002010BD54524F508368C26800209A602C
S1130F607047802382681B0613618268536182681C
S1130F709361002382685362826893627047F0B57C
S1130F804E424E418568AC6E01340EB9A1421ED367
S1130F90DB070ED46B6BDB064068DB0E007803289E
S1130FA00AD918090123834369B99BB90223536001
S1130FB0F0BD6B6BDB02EFE70C200340043B5842AF
S1130FC04341DBB2F0E7002BF0D10323EFE7013913
S1130FD01160EDE7002CF8D1E8E700000123F0B53B
S1130FE05B4285B002930327002306000393150098
S1130FF01300174002AA0191FFF7C1FFB3680399D8
S11310001C6B0093B9B940F2020C0423280700D4E6
S113101063466246029815422AD040F2120C9C4460
S1131020624692009446009A133362445060B26858
S11310309B00D31858606B0605D58023B268DB0388
S1131040106C03431364012F20D0124B23400C0473
S11310501C43022D13D129B101233000019902AAA6
S1131060FFF78DFF0C4B2340039C24061C4308E030
S1131070DB19009A12339B00D2185060DBE7002F73
S1131080F0D10020B3681C6305B0F0BD022DE2D09E
S1131090E8E7C046FFFFFCFFFFFFFFFC10B5002898
S11310A001DB00F03FFA10BD10B5041E05DB00F0B3
S11310B029FA0022014BA400E25010BDE84D0020A3
S11310C070B50400436812201856DD69FFF7ECFF81
S11310D01F206B1D1856FFF7E7FF1F200635285603
S11310E0FFF7E2FF0020A368E26820609A60A3682B
S11310F0586370BD0A018B0113430922022805D0ED
S11311000200032802D0062201B1033240F200108B
S113111013431843704700000122F0B50D000B7C07
S1131120110099404560C16002742B7C744904002D
S11311305B181B0283606B6985B04361AB69C36153
S113114000238361EE69EFF3108082F31088402757
S11311506C4AD168B943D160D26880F310884AF2EE
S11311600051A2681160A268D362A268D363A26826
S113117093642B7A6F682A78DB05013F032A02D136
S1131180802252021343A2682000D362FFF7E9FED3
S1131190A368B269DA61A368F2691A62A3689F66F8
S11311A0A3685F6601235B42029300232A78B76B2E
S11311B00393002A00D09AE06B685B08013B02931A
S11311C0A268029B5365A26893652A78032A03D90F
S11311D0A268D365A2681366039B1A041B061A430C
S11311E0B36B019273B9337823B171782878FFF720
S11311F081FF0743B3782BB1F1782878FFF77AFFA2
S1131200000407436368DB69190030310A78D207A8
S113121003D59A6AA068013AC2640A78920703D592
S1131220DB6AA268013B136501232A7C93401B07F8
S113123002D00022A3685A640022A3689A63A368B8
S113124088331A60B36B3BB9731CB21CDB7FD27F4B
S11312505B03520713431F43330030331B785A1E7A
S11312609341294A5B421340AA22D2039B18A268E5
S113127013642B78012B04D10023A268D364A268E1
S11312801365A36812205F633300A2683C331B78A4
S1131290D16A1B010B4331003D31097849010B43ED
S11312A0D36203230199A2680B4313630123A26849
S11312B00B431363A368E268DA60697C2200285652
S11312C0FFF7ECFE1F20F31CD97F731D2200185674
S11312D0FFF7E4FE1F20331D0636D97F3056220067
S11312E0FFF7DCFE0020094B236005B0F0BD012AA6
S11312F000D165E72000E96802AAFFF740FE5FE736
S113130090084000FC6F04400000FBFF545047006D
S1131310094B1A7882420DD0084A12781AB9084942
S11313200A78D207FCD51A78D206FCD418701A7839
S1131330D206FCD47047C046A0E0014036E001402C
S11313403CE00140064B0749DA1DD27F1B6A92003C
S113135052585B015B0FDA401300034A1360704775
S113136000E0014060440020EC4D002040F2FE33D8
S113137070B51C4A1C4C0121E25243F6C8731B4A47
S11313800025D1541A4B1B4A1D611A601A4A5A602F
S113139048F200029A60194ADA60FFF7D3FF40F27C
S11313A013430922E554164B28001A70154B063ACC
S11313B01A70FFF7ADFF144B144A1D701378DB0746
S11313C0FCD50123124A1370124A13700022FF3312
S11313D02362114BDA77FFF7B5FF40F2FE330F4A71
S11313E0E25270BD03A5FFFF00E0014000C07E4053
S11313F0604400200090D00300127A00002D3101D7
S1131400A2E00140A5E0014036E001403CE001409B
S113141031E00140C4FF7E4007E0014000A5FFFF2A
S1131420F8B540F24013002401270A4E0A4A758C8D
S1131430D35A1D402B00E3403B4206D0074AA30089
S11314409B181B680BB1E0B2984701340D2CF1D105
S11314507586F8BDFE60004000600040B04D00207D
S1131460044BC0308000C25803490A40C250C358DC
S11314707047C04600600040FFFFFEFF10B5040047
S1131480FFF7EEFFBFF35F8F1F22630914401E3A7C
S1131490A240024960339B005A5010BD00E100E0B5
S11314A0F7B5FF27019283080A4A03269B009B187D
S11314B03A0040F200350640F6008901B240394056
S11314C0B1405C59800094430C435C51019A024B37
S11314D01A50F7BD00E100E0E84D00201F22430947
S11314E010401E3A824002499B005A507047C04641
S11314F000E100E010B50400FFF7C0FF2000FFF793
S1131500EDFF10BD1F22430910401E3A82400449DA
S113151020339B005A50BFF34F8FBFF36F8F704738
S113152000E100E010B50400FFF7BAFF2000FFF768
S1131530E1FF10BD034B1B781BB140F2003202499E
S11315408B507047002000000060004000BE7047D0
S11315507047000002B4714649084900095C49001B
S11315608E4402BC7047C04603B47146490840002B
S11315704900095E49008E4403BC704710B50A2235
S1131580002100F095F810BDF0B587B005900291E8
S11315900392242B22D8012B20D0434808258446CB
S11315A00800664604780131375D3E002E402F4224
S11315B0F6D12D2C19D10C78811C01200190102515
S11315C01800A843E8B9302C15D120260878B04378
S11315D0582810D14C780231102312E000F07CF826
S11315E016230360002007B0F0BD01962B2CE6D132
S11315F00C78811CE3E7002BEED10A33302C00D1A8
S1131600023B0198294D4619B6FBF3F71800002553
S11316107843301A04902800302252429446A4445D
S11316206246092A12D86446A34224DD6A1C0AD001
S113163001256D42874206D302D1049AA24217DBE8
S11316400125584320180C780131E5E74122524224
S11316509446A4446246192A01D8373CE4E761223F
S113166052429446A4446246192A04D8573CDBE704
S113167001256D42E7E76B1C09D12223059A30004E
S11316801360039B002BAED04B1E029307E0019B1B
S113169003B14042039B002BA5D0002DF4D1029B43
S11316A0039A13609FE7C04602200000FFFFFF7FFC
S11316B010B513000A00010002480068FFF764FF38
S11316C010BDC0461040002003008218934200D190
S11316D0704719700133F9E7014B18687047C04629
S11316E010400020002310B59A4200D110BDCC5CFC
S11316F0C4540133F8E75465726D696E616C002857
S11317004E554C4C29000D0A696E70757420737423
S113171072696E6720697320696E76616C69640012
S11317200D0A2A2A20552D7068617365204475744A
S1131730794379636C65536574206661696C65648B
S1131740202A2A0D0A005B4552525D20696E20460C
S1131750756E6374696F6E3A20257328292C2025D1
S113176073000D0A2A2A20562D706861736520447F
S11317707574794379636C65536574206661696C2B
S11317806564202A2A0D0A000D0A2A2A20572D7082
S11317906861736520447574794379636C65536536
S11317A074206661696C6564202A2A0D0A000D0A9A
S11317B02A2A20436F6D706C656D656E7461727951
S11317C02050574D2053544F50206661696C656416
S11317D0202A2A0D0A00436F6D706C656D656E7466
S11317E06172792050574D2073746F707065642056
S11317F0616E6420616C6C206368616E6E656C73ED
S113180020636C6F736564200D0A000D0A2A2A2078
S1131810436F6D706C656D656E746172792050579D
S11318204D207375622D6D656E75202A2A0D0A0090
S113183020612E20456E746572203120746F2073F0
S1131840657420446561642054696D65200D0A0047
S113185020622E20456E746572203220746F2073CE
S113186065742074687265652D70686173652064A1
S11318707574792028552C20562C205729200D0AC0
S11318800020632E20456E746572203320746F200F
S1131890737461727420636F6D706C656D656E74C2
S11318A06172792050574D200D0A0020642E204586
S11318B06E746572203420746F2073746F702063AB
S11318C06F6D706C656D656E746172792050574DE3
S11318D0200D0A0020652E20456E74657220352087
S11318E0746F2073686F772063757272656E7420ED
S11318F07374617465200D0A0020662E20456E7491
S11319006572203020746F2072657475726E207455
S11319106F206D61696E207375622D6D656E752023
S11319200D0A0020436F6D702050574D20496E7092
S113193075743A20000D0A2A2A20436F6D706C6575
S11319406D656E746172792050574D206D656E75AA
S1131950202A2A0D0A0020612E20456E746572200B
S11319603420746F2073657420636F6D706C656DC3
S1131970656E74617279206D6F64652031200D0A83
S11319800020622E20456E746572203520746F200D
S113199073657420636F6D706C656D656E746172D0
S11319A079206D6F646520322028552C20562C2018
S11319B05729200D0A0020632E20456E746572207D
S11319C03620746F2073657420636F6D706C656D61
S11319D0656E74617279206D6F64652033200D0A21
S11319E00020642E20456E746572203720746F20A9
S11319F073657420636F6D706C656D656E74617270
S1131A0079206D6F64652034200D0A0020662E2035
S1131A104F7468657220746F2072657475726E20DD
S1131A20696E76616C6964206D6F6465200D0A00CF
S1131A300D0A2D2D2D20436F6D706C656D656E74D0
S1131A406172792050574D204D6F646520312028F4
S1131A505472616E7366657220617420637265737B
S1131A607429202D2D2D0D0A000D0A2D2D2D204316
S1131A706F6D706C656D656E746172792050574D31
S1131A80204D6F6465203220285472616E73666540
S1131A90722061742074726F75676829202D2D2D52
S1131AA00D0A000D0A2D2D2D20436F6D706C656D90
S1131AB0656E746172792050574D204D6F646520B6
S1131AC03320285472616E736665722061742063DA
S1131AD07265737420262074726F75676829202DCF
S1131AE02D2D0D0A000D0A2D2D2D20436F6D706CC8
S1131AF0656D656E746172792050574D204D6F6429
S1131B006520342028496D6D6564696174652074AD
S1131B1072616E7366657229202D2D2D0D0A000DDC
S1131B200A2A2A20496E76616C696420436F6D70BD
S1131B306C656D656E746172792050574D204D6FE0
S1131B406465202A2A0D0A000D0A2A2A204D617391
S1131B50746572206368616E6E656C2028636830FA
S1131B602920525F4750545F4F70656E206661694B
S1131B706C6564202A2A0D0A00204D617374657215
S1131B80206368616E6E656C202863683029206F5D
S1131B9070656E6564200D0A000D0A2A2A20736C94
S1131BA0617665206368616E6E656C3120286368B8
S1131BB0312920525F4750545F4F70656E20666133
S1131BC0696C6564202A2A0D0A0020736C617665AD
S1131BD0206368616E6E656C202863683129206F0C
S1131BE070656E6564200D0A000D0A2A2A20736C44
S1131BF0617665206368616E6E656C322028636867
S1131C00322920525F4750545F4F70656E206661E1
S1131C10696C6564202A2A0D0A0020736C6176655C
S1131C20206368616E6E656C2032202863683229F7
S1131C30206F70656E6564200D0A000D0A2A2A2043
S1131C40436F6D706C656D656E7461727920505769
S1131C504D206368616E6E656C206F70656E204602
S1131C6041494C4544202A2A0D0A000D0A2A2A43D8
S1131C706F6D70617265206D617463682073657443
S1131C80206661696C6564202A2A0D0A0020436F6E
S1131C906D706C656D656E746172792050574D205E
S1131CA06D6F646520256420696E697469616C696F
S1131CB07A6564207375636365737366756C6C7998
S1131CC0200D0A0020506572696F643A203078252F
S1131CD030345820636F756E7473200D0A002044ED
S1131CE06561642054696D653A2030782530345834
S1131CF020636F756E7473200D0A0020496E697439
S1131D0069616C20647574793A20553D25642525F4
S1131D1020563D2564252520573D25642525200D85
S1131D200A00000000000000545452205245474766
S1131D304553003031323334353637383941424334
S1131D40444546636F6D705F70776D5F73746F7039
S1131D5000636F6D705F70776D5F7365745F636F41
S1131D606D706172655F6D6174636800636F6D703F
S1131D705F70776D5F6F70656E5F6368616E6E65CF
S1131D806C7300636F6D705F70776D5F696E6974FB
S1131D90000000000700000000A000000000000098
S1131DA00050000000FFDF00000000000000000001
S1131DB0B41D00000101000100000000000000004B
S1131DC0000000000000000000000000000000000F
S1131DD0000000000000FFFFDFDF00000000000043
S1131DE000000000000000000000000000000000EF
S1131DF0000000000700000000A000000000000038
S1131E000050000001FFDF0000000000000000009F
S1131E10141E000001010001000000000000000089
S1131E2000000000000000000000000000000000AE
S1131E30000000000000FFFFDFDF000000000000E2
S1131E40000000000000000000000000000000008E
S1131E50000000000700000000A0000000000000D7
S1131E600050000002FFDF0000000000000000003E
S1131E70741E0000010100010000000000000000C9
S1131E80000000000000000000000000000000004E
S1131E90000000000000FFFFDFDF00000000000082
S1131EA0000000000000000000000000000000002E
S1131EB00000000028000000C01E00000000000018
S1131EC0008000000000000000800000010000000D
S1131ED00080000002000000100000000A00000062
S1131EE0100000000B000000100000000C000000B7
S1131EF0008000000D000000008000000E000000C3
S1131F00100000000F00000010000000000100009D
S1131F101000000001010000100000000201000098
S1131F201000000003010000100000000401000084
S1131F300000010008010000000001050901000083
S1131F40000001050A010000100000000B01000060
S1131F50100000000C01000000400000000200001E
S1131F600000000001020000100000000602000052
S1131F70100000000702000010000000080200002A
S1131F80000001030C020000000001030D02000028
S1131F900000010000030000000001040103000030
S1131FA00000010402030000000001070004000017
S1131FB000000107010400001000000002040000FA
S1131FC010000000030400001000000007040000DB
S1131FD01040000008040000100000000904000084
S1131FE01000000000050000100000000D090000B2
S1131FF0040000000E090000100000000F0900009A
S113200000002020202020202020202828282828E4
S113201020202020202020202020202020202020BC
S11320202020881010101010101010101010101014
S11320301010040404040404040404041010101014
S113204010101041414141414101010101010101CF
S1132050010101010101010101010101011010103F
S113206010101042424242424202020202020202A2
S11320700202020202020202020202020210101012
S1132080102000000000000000000000000000001C
S1132090000000000000000000000000000000003C
S11320A0000000000000000000000000000000002C
S11320B0000000000000000000000000000000001C
S11320C0000000000000000000000000000000000C
S11320D000000000000000000000000000000000FC
S11320E000000000000000000000000000000000EC
S11320F000000000000000000000000000000000DC
S1132100000000004275696C74207769746820527D
S1132110656E6573617320416476616E63656420E6
S1132120466C657869626C6520536F66747761727A
S113213065205061636B6167652076657273696FB2
S11321406E20362E322E3000362E322E3000000015
S1072150000002067F
S1072154F8B5C046D0
S1072158F8B5C046CC
S107215C2105000055
S1072160F104000082
S903007D7F
